:020000040800F2
:100000000050002081090008910100089D010008AE
:10001000A3010008A9010008AF01000800000000CA
:10002000000000000000000000000000B501000812
:10003000C101000800000000CD010008D90100083E
:10004000C9090008C9090008C9090008C909000848
:10005000C9090008C9090008C9090008C909000838
:10006000C9090008C9090008C9090008C909000828
:10007000C9090008C9090008C9090008C909000818
:10008000E10A0008C9090008C9090008C9090008EF
:10009000C9090008C9090008C9090008C9090008F8
:1000A000C9090008C9090008C9090008C9090008E8
:1000B000C9090008C9090008C9090008C9090008D8
:1000C000C9090008C9090008C9090008C9090008C8
:1000D000C9090008C9090008C9090008C9090008B8
:1000E000C9090008C9090008C90900080000000082
:1000F0000000000000000000000000000000000000
:0C01000000000000000000005FF808F1A3
:10010C0010B5054C237833B9044B13B10448AFF345
:10011C0000800123237010BD14000020000000009B
:10012C006419000808B5034B1BB103490348AFF32E
:10013C00008008BD000000001800002064190008B1
:10014C0080B582B000AF00F070FC00F0E6F8002340
:10015C00FB7113E000F098F800F030FBFB790A21FA
:10016C00184600F015FA32236E223221022000F0DC
:10017C0053FA00F031F8FB790133FB71FB793E2B1C
:10018C00E8D9E4E780B400AF00BFBD4680BC70473F
:10019C0080B400AFFEE780B400AFFEE780B400AFE0
:1001AC00FEE780B400AFFEE780B400AF00BFBD46F1
:1001BC0080BC704780B400AF00BFBD4680BC7047A8
:1001CC0080B400AF00BFBD4680BC704780B400AFA8
:1001DC0000BFBD4680BC704780B582B000AF002325
:1001EC007B6010E07B68DBB20021184600F072F8EF
:1001FC007B68DB01084A13440021184600F08CFD93
:10020C007B6801337B607B68072BEBD900BF00BF99
:10021C000837BD4680BD00BF3000002080B485B0DB
:10022C0000AF03463960FB7197F90730002B24DBD4
:10023C003B68002B21DB3B683F2B1EDC3B68FB73D0
:10024C00FB7BDB08D8B20246FB790E49D2010A448B
:10025C0013441B785AB2FB7B03F00703012101FA0C
:10026C0003F35BB2134359B20246FB79C8B205499A
:10027C00D2010A44134402461A7000BF1437BD461B
:10028C0080BC70473000002080B483B000AF0023E6
:10029C00BB7113E00023FB710AE0BA79FB790C49BE
:1002AC00D2010A44134400221A70FB790133FB710A
:1002BC00FB79802BF1D9BB790133BB71BB79072B4F
:1002CC00E8D900BF00BF0C37BD4680BC704700BFEB
:1002DC003000002080B582B000AF03460A46FB71A7
:1002EC001346BB71FB7963F04F03DBB2184600F089
:1002FC00FBFCBB791B09DBB243F01003DBB21846E5
:10030C0000F0F2FCBB7903F00F03DBB2184600F0EF
:10031C00EBFC00BF0837BD4680BD80B500AFC820E0
:10032C0000F070FBAE2000F0DFFC002000F0DCFCE5
:10033C00102000F0D9FC402000F0D6FC812000F009
:10034C00D3FCCF2000F0D0FCA12000F0CDFCC820C5
:10035C0000F0CAFCA62000F0C7FCA82000F0C4FCEA
:10036C003F2000F0C1FCD32000F0BEFC002000F0C8
:10037C00BBFCD52000F0B8FC802000F0B5FCD920E7
:10038C0000F0B2FCF12000F0AFFCDA2000F0ACFC85
:10039C00122000F0A9FCDB2000F0A6FC402000F0AD
:1003AC00A3FC202000F0A0FC002000F09DFC8D2080
:1003BC0000F09AFC142000F097FCA42000F094FCB0
:1003CC00A62000F091FCAF2000F08EFC00F036FB74
:1003DC0000BF80BD90B484B000AF044608461146FF
:1003EC001A462346FB800346BB800B46FB70134624
:1003FC00BB70FB78013B002B00DA0733DB10DBB260
:10040C0001337B720023FB72B4E00023BB72A9E0C2
:10041C00B7F90620BB7A13447F2B06DDB7F906200B
:10042C00BB7A1344002BC0F29980B7F904305A42BE
:10043C0003F0070302F0070258BF5342BB81B7F920
:10044C000430002B00DA0733DB10FB81B7F90430E2
:10045C00002B07DAFB89013B9BB2FB81BB8908337C
:10046C009BB2BB81B7F90E20FB7A1344002B34DB13
:10047C00B7F90E20FB7A1344072B2EDCB7F90E20AC
:10048C00FB7A1A44B7F90610BB7A0B443F49D201E8
:10049C000A4413441B785AB2B97ABB78F87A00FB39
:1004AC0003F30B441946BB690B441B781946B7F987
:1004BC000C3001FA03F35BB2134358B2B7F90E20B8
:1004CC00FB7A1A44B7F90610BB7A0B44C0B22F4919
:1004DC00D2010A44134402461A70B7F90E20FB7A73
:1004EC001344B3F1FF3F3ADBB7F90E20FB7A134408
:1004FC00062B34DCB7F90E20FB7A13445A1CB7F9DF
:10050C000610BB7A0B442149D2010A4413441B78D0
:10051C005AB2B97ABB78F87A00FB03F30B4419464C
:10052C00BB690B441B781946B7F90C30C3F10803AF
:10053C0041FA03F35BB2134358B2B7F90E20FB7ABE
:10054C0013445A1CB7F90610BB7A0B44C0B20F49BE
:10055C00D2010A44134402461A7000E000BFBB7A71
:10056C000133BB72BA7ABB789A42FFF451AFFB7A73
:10057C000133FB72FA7A7B7A9A42FFF446AF00BFE2
:10058C0000BF1037BD4690BC704700BF3000002044
:10059C0080B485B000AF03460A46FB711346BB71AD
:1005AC00FB79FB7329E00023BB731FE0FB7BDB08AB
:1005BC00D8B20246BB7B1749D2010A4413441B78BC
:1005CC005AB2FB7B03F00703012101FA03F35BB280
:1005DC00534059B20246BB7BC8B20E49D2010A4401
:1005EC00134402461A70BB7B0133BB7397F90E3070
:1005FC00002BDBDAFB7B0133FB73FA7BF979BB79DC
:10060C000B449A42CFDB00BF00BF1437BD4680BC01
:10061C00704700BF3000002090B587B000AF044693
:10062C00084611461A462346FB710346BB710B461E
:10063C007B7113463B710023FB753A79BB79D21A57
:10064C007979FB79CB1A9A420EDDBB79FB60FB7989
:10065C00BB71FB68FB713B79FB607B793B71FB6881
:10066C007B710123FB7523E03A79BB79D31A002BFC
:10067C001EDABB795B42BB713B795B423B713A79C9
:10068C00BB79D21A7979FB79CB1A9A420EDDBB79F8
:10069C003B61FB79BB713B69FB713B793B617B79BE
:1006AC003B713B697B710323FB7501E00223FB75F6
:1006BC007A79FB79D31AFB723A79BB79D31ABB726C
:1006CC00BB7A5B00DAB2FB7AD31ABB75BB7A5B00E0
:1006DC007B72BA7AFB7AD31ADBB25B003B72BB79C2
:1006EC007B75FB7D032B15D0032B1BDC012B02D060
:1006FC00022B07D016E0FA79BB7911461846FFF7A2
:10070C008DFD16E0BB795A42FB7911461846FFF76E
:10071C0085FD0EE0FB795A42BB7911461846FFF76E
:10072C007DFD06E0BA79FB7911461846FFF776FD98
:10073C0000BFBA79FB7911461846FFF76FFDFB79BC
:10074C0001333B7531E0BA7D3B7A1344BB757B7D3D
:10075C0001337B75FB7D032B15D0032B1BDC012B8D
:10076C0002D0022B07D016E03A7D7B7D114618464D
:10077C00FFF754FD16E07B7D5A423B7D114618462F
:10078C00FFF74CFD0EE03B7D5A427B7D114618462F
:10079C00FFF744FD06E07A7D3B7D11461846FFF7D6
:1007AC003DFD00BF3B7D01333B753A7D7B799A4221
:1007BC00C9D300BF00BF1C37BD4690BD80B582B009
:1007CC0002AF0E4B00931023102232216420FFF74E
:1007DC0001FE0A4B00931023102201210120FFF788
:1007EC00F9FD064B0093102310226FF004016FF0FB
:1007FC000400FFF7EFFD00BFBD4680BD7C1900086B
:10080C0080B500AF154B1B68144A43F0010313600D
:10081C00124B5A681149124B13404B600F4B1B681B
:10082C000E4A23F0847323F4803313600B4B1B6844
:10083C000A4A23F480231360084B5B68074A23F4AD
:10084C00FE035360054B4FF41F029A6000F00CF846
:10085C00044B4FF000629A6000BF80BD0010024054
:10086C000000FFF800ED00E080B500AF00F002F8EA
:10087C0000BF80BD80B483B000AF00237B60002339
:10088C003B603A4B1B68394A43F480331360374B57
:10089C001B6803F400333B607B6801337B603B686F
:1008AC00002B03D17B68B3F5A06FF0D12F4B1B68E5
:1008BC0003F40033002B02D001233B6001E0002342
:1008CC003B603B68012B4BD1294B1B68284A43F0FA
:1008DC0010031360264B1B68254A23F00303136097
:1008EC00234B1B68224A43F0020313601F4B1F4A21
:1008FC005B6853601D4B1D4A5B6853601B4B5B6808
:10090C001A4A43F480635360184B5B68174A23F40C
:10091C007C135360154B5B68144A43F4E813536023
:10092C00124B1B68114A43F08073136000BF0F4BCE
:10093C001B6803F00073002BF9D00C4B5B680B4A5F
:10094C0023F003035360094B5B68084A43F002032E
:10095C00536000BF054B5B6803F00C03082BF9D107
:10096C0000BF0C37BD4680BC704700BF0010024072
:10097C0000200240FFF744FF0B480C490C4A0023AF
:10098C0002E0D458C4500433C4188C42F9D3094A39
:10099C00094C002301E013600432A242FBD300F0A7
:1009AC00B7FFFFF7CDFB70470000002014000020BC
:1009BC00C81900081400002034040020FEE70000D1
:1009CC0080B483B000AF78600D497A681346DB00C1
:1009DC001344DB004B600A4B00229A60084B052243
:1009EC001A6000BF064B1B6803F48033002BF9D050
:1009FC00034B04221A6000BF0C37BD4680BC704705
:100A0C0010E000E080B582B000AF786003E04FF4F6
:100A1C007A70FFF7D5FF7B685A1E7A60002BF6D1EF
:100A2C0000BF00BF0837BD4680BD80B500AF00F0E9
:100A3C0073F800F09FF800BF80BD000080B58CB04B
:100A4C0000AF012000F086F80121012000F0E8FE43
:100A5C001D4800F0EFF91D4B7B601D4BBB60102354
:100A6C00FB6080233B6100237B618023BB610023FF
:100A7C00FB6100233B6220237B624FF48053BB62FB
:100A8C000023FB623B1D19460F4800F08FFA102320
:100A9C003B7000237B700123BB700123FB703B4632
:100AAC00184600F065F90121074800F0BDFA002155
:100ABC00054800F0B9FA01220221034800F0D0FAEF
:100ACC0000BF3037BD4680BD6C0002401054004062
:100ADC003000002080B500AF4FF4001000F0DEFABB
:100AEC000346002B12D04FF4001000F0FFFA0A203E
:100AFC00FFF766FF0121064800F011FD01210448B3
:100B0C0000F02CFD0021034800F08EFA00BF80BDE0
:100B1C00005400406C00024080B500AF012104205D
:100B2C0000F09CFE0121092000F098FE074B1C22CE
:100B3C00DA70064B03229A70044BC0221A800349C8
:100B4C00034800F0EDFA00BF80BD00BF3004002068
:100B5C00000C014080B582B000AF0346FB71FB79FD
:100B6C001946034800F09DFC00BF0837BD4680BD08
:100B7C000054004080B584B000AF01214FF4001048
:100B8C0000F08AFE1B4800F087FB1A4B1B889BB2B7
:100B9C00184A6FEA43436FEA53439BB21380154BD9
:100BAC001B889BB2134AC3F30E039BB213804FF402
:100BBC0080637B814FF480637B810023BB800023A7
:100BCC00FB8000233B814FF48043BB8142F21073C6
:100BDC003B600121074800F045FC3B46194605489F
:100BEC0000F07EFB0121012000F01AFE00BF10373F
:100BFC00BD4680BD0054004080B582B000AF0346B6
:100C0C00FB7100BF0749084800F0F3FC0346002BBA
:100C1C00F8D0FB791946044800F0BFFC00BF083738
:100C2C00BD4680BD800007000054004080B582B0F6
:100C3C0000AF0346FB7100BF0749084800F0D9FC20
:100C4C000346002BF8D0FB791946044800F0A5FCAC
:100C5C0000BF0837BD4680BD80000700005400402F
:100C6C0080B582B000AF0346FB7100BF084909484C
:100C7C0000F0BFFC0346002BF8D0FB79002219468C
:100C8C00044800F099FC00BF0837BD4680BD00BF8A
:100C9C00010003000054004080B500AF00BF4FF4CA
:100CAC000031064800F0D4FC0346002BF7D101219B
:100CBC00024800F015FC00BF80BD00BF005400408E
:100CCC0080B500AF00BF0649064800F092FC034611
:100CDC00002BF8D00121034800F021FC00BF80BD9F
:100CEC00840007000054004080B582B000AF03467A
:100CFC00FB71FFF7D1FF7820FFF7B2FF0020FFF761
:100D0C0095FFFB791846FFF777FFFFF7D9FF00BF78
:100D1C000837BD4680BD000080B582B000AF78605A
:100D2C000B46FB70FFF7B8FF7820FFF799FF4020C8
:100D3C00FFF77CFF03E000210A4800F075F90A492F
:100D4C000A4800F056FC0346002BF4D0054A7B6899
:100D5C00D3600121034800F067F900BF0837BD4696
:100D6C0080BD00BF6C0002408000070000540040B2
:100D7C0080B487B000AF786000237B6100233B61B7
:100D8C000F23FB607B68DB78002B3AD0274BDB68AA
:100D9C00DB431B0A03F007037B617B69C3F104038C
:100DAC003B61FA687B6922FA03F3FB607B685B7832
:100DBC001A463B6902FA03F37B617B689B781A46FF
:100DCC00FB6813407A6913437B617B691B017B6170
:100DDC00174A7B681B787969C9B213440A4683F8B1
:100DEC0000237B681B7803F01F0311497A68127883
:100DFC005209D2B21046012202FA03F341F8203014
:100E0C000FE07B681B7803F01F0309497A6812789E
:100E1C005209D2B2104601229A4000F1200341F847
:100E2C00232000BF1C37BD4680BC704700ED00E09E
:100E3C0000E100E080B483B000AF78607B681A6892
:100E4C004FF6FE7313407A6813607B6800221A60B9
:100E5C007B6800225A607B6800229A607B680022C3
:100E6C00DA607B68434A934206D1434B5B68424A43
:100E7C0043F00F03536077E07B68404A934206D1FE
:100E8C003D4B5B683C4A43F0F00353606CE07B687D
:100E9C003B4A934206D1384B5B68374A43F4706344
:100EAC00536061E07B68374A934206D1324B5B68F2
:100EBC00314A43F47043536056E07B68324A9342A4
:100ECC0006D12D4B5B682C4A43F4702353604BE0E6
:100EDC007B682E4A934206D1274B5B68264A43F423
:100EEC007003536040E07B68294A934206D1224B41
:100EFC005B68214A43F07063536035E07B68254A98
:100F0C00934206D1244B5B68234A43F00F03536092
:100F1C002AE07B68214A934206D11F4B5B681E4A2C
:100F2C0043F0F00353601FE07B681D4A934206D1E7
:100F3C00194B5B68184A43F47063536014E07B6888
:100F4C00184A934206D1144B5B68134A43F470431E
:100F5C00536009E07B68144A934205D10E4B5B68E1
:100F6C000D4A43F47023536000BF0C37BD4680BC60
:100F7C00704700BF08000240000002401C00024005
:100F8C003000024044000240580002406C00024015
:100F9C008000024008040240000402401C0402408D
:100FAC0030040240440402405804024080B485B02E
:100FBC0000AF786039600023FB607B681B68FB60C6
:100FCC00FB6823F4FF4323F07003FB603B689A68D3
:100FDC003B681B6A1A433B681B691A433B685B6995
:100FEC001A433B689B691A433B68DB691A433B68AD
:100FFC005B6A1A433B689B6A1343FA681343FB60B2
:10100C007B68FA681A603B68DA687B685A603B68F0
:10101C001A687B689A603B685A687B68DA6000BF24
:10102C001437BD4680BC704780B483B000AF786085
:10103C000B46FB70FB78002B06D07B681B6843F0DB
:10104C0001027B681A6006E07B681A684FF6FE7333
:10105C0013407A68136000BF0C37BD4680BC7047E4
:10106C0080B485B000AFF860B9601346FB71FB79B2
:10107C00002B06D0FB681A68BB681A43FB681A6021
:10108C0006E0FB681A68BB68DB431A40FB681A6011
:10109C0000BF1437BD4680BC7047000080B485B0DB
:1010AC0000AF78600023FB730023BB607B6803F008
:1010BC008053002B03D00B4B1B68BB6002E00A4B28
:1010CC001B68BB60BA687B681340002B02D00123FD
:1010DC00FB7301E00023FB73FB7B18461437BD4602
:1010EC0080BC7047000402400000024080B483B012
:1010FC0000AF78607B6803F08053002B03D0064A66
:10110C007B68536002E0054A7B68536000BF0C3774
:10111C00BD4680BC704700BF000402400000024086
:10112C0080B489B000AF786039600023FB61002384
:10113C003B610023BB610023FB6000237B61002328
:10114C00BB603B68DB7803F00F03FB613B68DB782B
:10115C0003F01003002B05D03B689B781A46FB6903
:10116C001343FB613B681B88DBB2002B44D07B68CC
:10117C001B687B610023BB6138E00122BB6902FA6A
:10118C0003F3FB603B681B881A46FB6813403B610A
:10119C003A69FB689A4226D1BB699B00FB600F221F
:1011AC00FB6802FA03F3BB60BB68DB437A6913404C
:1011BC007B61FA69FB6802FA03F37A6913437B617A
:1011CC003B68DB78282B05D10122BB699A407B68F0
:1011DC005A6108E03B68DB78482B04D10122BB69DB
:1011EC009A407B681A61BB690133BB61BB69072BF1
:1011FC00C3D97B687A691A603B681B88FF2B46D978
:10120C007B685B687B610023BB613AE0BB69083398
:10121C00012202FA03F3FB603B681B881A46FB6849
:10122C0013403B613A69FB689A4227D1BB699B002A
:10123C00FB600F22FB6802FA03F3BB60BB68DB4365
:10124C007A6913407B61FA69FB6802FA03F37A69E5
:10125C0013437B613B68DB78282B05D1BB690833D2
:10126C0001229A407B685A613B68DB78482B05D198
:10127C00BB69083301229A407B681A61BB69013350
:10128C00BB61BB69072BC1D97B687A695A6000BF07
:10129C002437BD4680BC704780B582B000AF786003
:1012AC007B680E4A93420AD101214FF4001000F0E2
:1012BC0011FB00214FF4001000F00CFB09E00121A0
:1012CC004FF4800000F006FB00214FF4800000F08A
:1012DC0001FB00BF0837BD4680BD00BF0054004075
:1012EC0080B58AB000AF786039600023FB8400239E
:1012FC007B840423BB84574BFB617B689B88FB84FA
:10130C00FB8C23F03F03FB8407F10803184600F025
:10131C00D1F93B69FB61FB694F4AA2FB03239B0C90
:10132C007B84FA8C7B8C1343FB847B68FA8C9A80CD
:10133C007B681B889BB223F001039AB27B681A80EE
:10134C000023FB843B681B68444A934215D83B68D6
:10135C001B685B00FA69B2FBF3F3BB84BB8C032BF9
:10136C0001D80423BB84FA8CBB8C1343FB847B8C89
:10137C0001339AB27B681A8440E03B68DB884BF6F9
:10138C00FF72934209D13B681A6813465B00134401
:10139C00FA69B2FBF3F3BB840EE03B681A681346A0
:1013AC009B0013449A001344FA69B2FBF3F3BB8419
:1013BC00BB8C43F48043BB84BB8CC3F30B03002B6B
:1013CC0003D1BB8C43F00103BB84BA8CFB8C13435D
:1013DC009BB26FEA43436FEA5343FB847B8C4FF41D
:1013EC00967202FB03F31E4A82FB03129211DB1767
:1013FC00D31A9BB201339AB27B681A847B68FA8C3D
:10140C009A837B681B889BB243F001039AB27B687A
:10141C001A807B681B88FB84FB8C23F4816323F08C
:10142C000203FB843B689A883B685B8913439AB23E
:10143C00FB8C1343FB847B68FA8C1A803B689A897B
:10144C003B681B8913439AB27B681A8100BF28370B
:10145C00BD4680BD00127A0083DE1B43A0860100CE
:10146C00D34D621080B483B000AF78600B46FB7034
:10147C00FB78002B08D07B681B889BB243F00103E0
:10148C009AB27B681A8007E07B681B889BB223F0BA
:10149C0001039AB27B681A8000BF0C37BD4680BC32
:1014AC00704780B483B000AF78600B46FB70FB785C
:1014BC00002B08D07B689B889BB243F400639AB2E4
:1014CC007B689A8007E07B689B889BB223F400635F
:1014DC009AB27B689A8000BF0C37BD4680BC7047BF
:1014EC0080B483B000AF78600B46FB70FB78002BA8
:1014FC0008D07B681B889BB243F480739AB27B68DC
:10150C001A8007E07B681B889BB223F480739AB225
:10151C007B681A8000BF0C37BD4680BC704780B416
:10152C0083B000AF78600B46FB70FB78002B08D0C3
:10153C007B681B889BB243F400739AB27B681A8059
:10154C0007E07B681B889BB223F400739AB27B681C
:10155C001A8000BF0C37BD4680BC704780B483B086
:10156C0000AF78600B46FB70FB78002B08D07B68D3
:10157C001B889BB243F480639AB27B681A8007E0A5
:10158C007B681B889BB223F480639AB27B681A80B9
:10159C0000BF0C37BD4680BC704780B483B000AF31
:1015AC0078600B46FB70FB789AB27B681A8200BF9E
:1015BC000C37BD4680BC704780B483B000AF7860F8
:1015CC000B46FB701346BB70BB78002B04D0FB782A
:1015DC0043F00103FB7003E0FB7823F00103FB7085
:1015EC00FB789AB27B681A8200BF0C37BD4680BC70
:1015FC00704780B487B000AF7860396000233B61DE
:10160C000023FB600023BB600023FB757B689B8A77
:10161C009BB2FB607B681B8B9BB2BB60BB681B04E3
:10162C00BB60FA68BB68134323F07F433B613A69A4
:10163C003B6813403A689A4202D10123FB7501E0E2
:10164C000023FB75FB7D18461C37BD4680BC7047DC
:10165C0080B487B000AF786039600023FB7500233D
:10166C003B610023FB607B68FB603B681B0F3B61AD
:10167C003B6823F07F433B603B69002B03D0FB6846
:10168C001433FB6005E03B681B0C3B60FB681833B4
:10169C00FB60FB681A683B681340002B02D00123E7
:1016AC00FB7501E00023FB75FB7D18461C37BD461E
:1016BC0080BC704780B487B000AF786000237B613A
:1016CC0000233B610023FB600023BB604F4B5B6836
:1016DC0003F00C037B617B69082B11D07B69082B11
:1016EC003AD87B69002B03D07B69042B04D033E000
:1016FC007B68474A1A6033E07B68454A1A602FE0E2
:10170C00424B5B6803F470133B61404B5B6803F422
:10171C008033FB603B699B0C02333B61FB68002B05
:10172C0006D13B693B4A03FB02F27B681A6017E067
:10173C00364B5B6803F40033002B06D03B69354A0B
:10174C0003FB02F27B681A600AE03B69304A03FB38
:10175C0002F27B681A6003E07B682D4A1A6000BFB6
:10176C002A4B5B6803F0F0037B617B691B097B618F
:10177C00294A7B6913441B78DBB2BB607B681A680F
:10178C00BB68DA407B685A60204B5B6803F4E0630B
:10179C007B617B691B0A7B611F4A7B6913441B7845
:1017AC00DBB2BB607B685A68BB68DA407B689A60C6
:1017BC00164B5B6803F460537B617B69DB0A7B61CE
:1017CC00154A7B6913441B78DBB2BB607B685A6893
:1017DC00BB68DA407B68DA600C4B5B6803F440430F
:1017EC007B617B699B0B7B610C4A7B6913441B7887
:1017FC00DBB2BB607B68DA68BB68B2FBF3F27B6878
:10180C001A6100BF1C37BD4680BC704700100240F7
:10181C0000127A0000093D0000000020100000209A
:10182C0080B483B000AF78600B46FB70FB78002B64
:10183C0006D0094B5A6908497B6813434B6106E093
:10184C00054B5A697B68DB43034913404B6100BF6E
:10185C000C37BD4680BC70470010024080B483B08A
:10186C0000AF78600B46FB70FB78002B06D0094B61
:10187C009A6908497B6813438B6106E0054B9A69AA
:10188C007B68DB43034913408B6100BF0C37BD46BB
:10189C0080BC70470010024080B483B000AF786009
:1018AC000B46FB70FB78002B06D0094BDA69084914
:1018BC007B681343CB6106E0054BDA697B68DB433D
:1018CC0003491340CB6100BF0C37BD4680BC704749
:1018DC000010024080B483B000AF78600B46FB7000
:1018EC00FB78002B06D0094B1A6908497B68134317
:1018FC000B6106E0054B1A697B68DB430349134017
:10190C000B6100BF0C37BD4680BC70470010024015
:10191C0070B500260C4D0D4C641BA410A64209D1C9
:10192C0000F01AF800260A4D0A4C641BA410A642BB
:10193C0005D170BD55F8043B98470136EEE755F8D4
:10194C00043B98470136F2E7C0190008C01900089B
:10195C00C0190008C4190008F8B500BFF8BC08BCD1
:10196C009E467047F8B500BFF8BC08BC9E46704751
:10197C001060028C00FE02F202FE00F800FF000074
:10198C0004047E018047300F10270047807F000041
:10199C0000E6B58B00000000000000000000000015
:1019AC00000000000000000000000000000000002B
:0419BC000000000027
:0419C00031010008E9
:0419C4000D01000809
:1019C80000000000010203040102030406070809DD
:0419D80002040608F7
:040000050800098165
:00000001FF
