:020000040800F2
:1000000000500020AD0B0008930300089F03000878
:10001000A5030008AB030008B103000800000000BE
:10002000000000000000000000000000B70300080E
:10003000C303000800000000CF030008DB03000832
:10004000F50B0008F50B0008F50B0008F50B000890
:10005000F50B0008F50B0008F50B0008F50B000880
:10006000F50B0008F50B0008F50B0008F50B000870
:10007000F50B0008F50B0008F50B0008F50B000860
:100080006D0D0008F50B0008F50B0008F50B0008D6
:10009000F50B0008F50B0008F50B0008F50B000840
:1000A000F50B0008F50B0008F50B0008F50B000830
:1000B000F50B0008F50B0008F50B0008F50B000820
:1000C000F50B0008F50B0008F50B0008F50B000810
:1000D000F50B0008F50B0008F50B0008F50B000800
:1000E000F50B0008F50B0008F50B000800000000F8
:1000F0000000000000000000000000000000000000
:0C01000000000000000000005FF808F1A3
:10010C0010B5054C237833B9044B13B10448AFF345
:10011C0000800123237010BDA4000020000000000B
:10012C00E826000808B5034B1BB103490348AFF39D
:10013C00008008BD00000000A8000020E826000890
:10014C0010F8012B11F8013B012A28BF9A42F7D075
:10015C00D01A704780F0004002E000BF81F00041EF
:10016C0042001FBF5FEA410392EA030F7FEA226C51
:10017C007FEA236C6AD04FEA1262D2EB1363C1BFE1
:10018C00D218414048404140B8BF5B42192B88BF50
:10019C00704710F0004F40F4000020F07F4018BF73
:1001AC00404211F0004F41F4000121F07F4118BF93
:1001BC00494292EA030F3FD0A2F1010241FA03FC3B
:1001CC0010EB0C00C3F1200301FA03F100F0004323
:1001DC0002D5494260EB4000B0F5000F13D3B0F1EB
:1001EC00807F06D340084FEA310102F10102FE2A5A
:1001FC0051D2B1F1004F40EBC25008BF20F00100CA
:10020C0040EA03007047490040EB0000013A28BF68
:10021C00B0F5000FEDD2B0FA80FCACF1080CB2EBEB
:10022C000C0200FA0CF0AABF00EBC2505242184369
:10023C00BCBFD0401843704792F0000F81F400010E
:10024C0006BF80F400000132013BB5E74FEA4103E1
:10025C007FEA226C18BF7FEA236C21D092EA030F4D
:10026C0004D092F0000F08BF0846704790EA010FC7
:10027C001CBF0020704712F07F4F04D1400028BFF4
:10028C0040F00040704712F100723CBF00F50000D6
:10029C00704700F0004343F0FE4040F4000070470C
:1002AC007FEA226216BF08467FEA236301464202B8
:1002BC0006BF5FEA412390EA010F40F480007047CB
:1002CC004FF0000304E000BF10F0004348BF404271
:1002DC005FEA000C08BF704743F0964301464FF0AD
:1002EC0000001CE050EA010208BF70474FF0000309
:1002FC000AE000BF50EA010208BF704711F000434A
:10030C0002D5404261EB41015FEA010C02BF844619
:10031C000146002043F0B64308BFA3F18053A3F578
:10032C000003BCFA8CF2083AA3EBC25310DB01FABF
:10033C0002FC634400FA02FCC2F12002BCF1004F43
:10034C0020FA02F243EB020008BF20F001007047D4
:10035C0002F1200201FA02FCC2F1200250EA4C0028
:10036C0021FA02F243EB020008BF20EADC7070476E
:10037C0080B500AF00F0B4FC00F034F900F03CFBA9
:10038C0000F048FAFCE780B400AF00BFBD4680BC6B
:10039C00704780B400AFFEE780B400AFFEE780B4D6
:1003AC0000AFFEE780B400AFFEE780B400AF00BF43
:1003BC00BD4680BC704780B400AF00BFBD4680BC5A
:1003CC00704780B400AF00BFBD4680BC704780B49E
:1003DC0000AF00BFBD4680BC7047000080B483B046
:1003EC0000AF0023BB7113E00023FB710AE0BA7964
:1003FC00FB790C49D2010A44134400221A70FB7990
:10040C000133FB71FB79802BF1D9BB790133BB71C3
:10041C00BB79072BE8D900BF00BF0C37BD4680BCA9
:10042C00704700BF4C01002090B484B000AF04466C
:10043C00084611461A462346FB800346BB800B46F2
:10044C00FB701346BB70FB78013B002B00DA0733C3
:10045C00DB10DBB201337B720023FB72B5E00023AF
:10046C00BB72AAE0B7F90620BB7A13447F2B00F3CA
:10047C00A080B7F90620BB7A1344002BC0F29980F8
:10048C00B7F904305A4203F0070302F0070258BFD1
:10049C005342BB81B7F90430002B00DA0733DB1071
:1004AC00FB81B7F90430002B07DAFB89013B9BB2C7
:1004BC00FB81BB8908339BB2BB81B7F90E20FB7A59
:1004CC001344002B34DBB7F90E20FB7A1344072BB3
:1004DC002EDCB7F90E20FB7A1A44B7F90610BB7A5A
:1004EC000B443F49D2010A4413441B785AB2B97ADF
:1004FC00BB78F87A00FB03F30B441946BB690B4439
:10050C001B781946B7F90C3001FA03F35BB21343AD
:10051C0058B2B7F90E20FB7A1A44B7F90610BB7A19
:10052C000B44C0B22E49D2010A44134402461A703D
:10053C00B7F90E20FB7A1344B3F1FF3F3ADBB7F95E
:10054C000E20FB7A1344062B34DCB7F90E20FB7A11
:10055C0013445A1CB7F90610BB7A0B442049D2013C
:10056C000A4413441B785AB2B97ABB78F87A00FB68
:10057C0003F30B441946BB690B441B781946B7F9B6
:10058C000C30C3F1080341FA03F35BB2134358B2C6
:10059C00B7F90E20FB7A13445A1CB7F90610BB7A34
:1005AC000B44C0B20E49D2010A44134402461A70DD
:1005BC0000E000BFBB7A0133BB72BA7ABB789A42B7
:1005CC00FFF450AFFB7A0133FB72FA7A7B7A9A42D2
:1005DC00FFF445AF00BF00BF1037BD4690BC70475D
:1005EC004C01002080B500AF00F0DEFC00F0E6FC12
:1005FC00AE2000F0ABFCD52000F0A8FCF02000F001
:10060C00A5FCD92000F0A2FC112000F09FFC812059
:10061C0000F09CFC7F2000F099FC8D2000F096FCF3
:10062C00142000F093FC202000F090FC002000F03F
:10063C008DFC212000F08AFC002000F087FC7F203C
:10064C0000F084FC222000F081FC002000F07EFCF5
:10065C00072000F07BFCC92000F078FCA12000F002
:10066C0075FCA42000F072FCA62000F06FFCAF20FB
:10067C0000F06CFC562000F069FC00F03BFB00BF66
:10068C0080BD000080B586B002AF78603960002371
:10069C00FB6025E0FA681346DB0013449B00203313
:1006AC00174A134419467868FFF74AFD0346002B96
:1006BC0013D13B681B789BB21B019BB218B2FA6832
:1006CC001346DB0013449B000D4A13440093102384
:1006DC0010220021FFF7A8FE0EE0FB680133FB603F
:1006EC00FA681346DB0013449B002033044A13447E
:1006FC001B78002BCED100BF00BF1037BD4680BD8C
:10070C008827000880B582B000AF786039607B68BC
:10071C001B78002B01D100234EE03B681B781A4656
:10072C007B6813441A78264B1A703B681B7801338C
:10073C00DAB23B681A703B681B781A467B68134424
:10074C001A781F4B5A703B681B780133DAB23B683E
:10075C001A703B681B781A467B6813441A78184B3E
:10076C009A703B681B78023B7A6813441B7803F041
:10077C00F003E02B02D0F02B04D012E0104B00223F
:10078C00DA7012E03B681B780133DAB23B681A70FE
:10079C003B681B781A467B6813441A78084BDA704E
:1007AC0003E0084801F0ACF800BF3B681B7801334C
:1007BC00DAB23B681A70024B18460837BD4680BD4A
:1007CC00400100206427000880B584B000AF786039
:1007DC000023FB720023BB7210E007F10B031946D8
:1007EC007868FFF78FFFF86007F10A031946F8687D
:1007FC00FFF748FFBB7A0133DBB2BB72FB7A1A46B8
:10080C007B6813441B78002BE7D100BF00BF103767
:10081C00BD4680BD80B500AF044B5B681846FFF742
:10082C00D3FFFFF7DBFD00BF80BD00BF0000002041
:10083C0080B584B000AF03460A46FB711346BB710A
:10084C002A23FB732C23BB7312237B73FB79002BA2
:10085C0040F0AD80BB79092B00F2C18001A252F8A7
:10086C0023F000BF99080008EB090008EB09000809
:10087C0099080008EB090008EB090008F7080008C4
:10088C00EB090008EB09000859090008FB7B184626
:10089C00FFF716FD0346554A9361FA7BBB7BD31ACF
:1008AC001846FFF711FD0346504A9360FA7BBB7B59
:1008BC0013441846FFF708FD03464C4A93627B7BB2
:1008CC001846FFF7FDFC0346484AD3617B7B18466C
:1008DC00FFF7F6FC0346454AD3607B7B1846FFF7CF
:1008EC00EFFC0346414AD3627CE0FA7BBB7B1344AA
:1008FC001846FFF7E9FC03463C4A9361FB7B18461C
:10090C00FFF7E2FC0346394A9360FA7BBB7B1A443F
:10091C00BB7B13441846FFF7D7FC0346334A93625C
:10092C007B7B1846FFF7CCFC0346304AD3617B7BBC
:10093C001846FFF7C5FC03462C4AD3607B7B184650
:10094C00FFF7BEFC0346294AD3624BE0FA7BBB7B24
:10095C00D31A1846FFF7B8FC0346244A9361FA7B76
:10096C00BB7BD21ABB7BD31A1846FFF7ADFC0346F0
:10097C001E4A9360FB7B1846FFF7A6FC03461B4AF6
:10098C0093627B7B1846FFF79BFC0346174AD361A7
:10099C007B7B1846FFF794FC0346144AD3607B7BA1
:1009AC001846FFF78DFC0346104AD3621AE0FB7918
:1009BC00032B0ED1BB79033B012B13D80C4B93F9B2
:1009CC0003301B011846FFF77FFC0346094AD3602E
:1009DC0008E0FB79062B04D1BB79072B02E000BFA2
:1009EC0000E000BF00BF1037BD4680BDC000002036
:1009FC00440100202001002080B500AF0A4B0022EA
:100A0C005A70094B00221A70074B0122DA70FFF75B
:100A1C00E5FC054B5B78044A127811461846FFF743
:100A2C0007FF00BF80BD00BF4401002080B500AFB0
:100A3C00154B1B68144A43F001031360124B5A68A0
:100A4C001149124B13404B600F4B1B680E4A23F09D
:100A5C00847323F4803313600B4B1B680A4A23F412
:100A6C0080231360084B5B68074A23F4FE03536032
:100A7C00054B4FF41F029A6000F00CF8044B4FF03A
:100A8C0000629A6000BF80BD001002400000FFF8B9
:100A9C0000ED00E080B500AF00F002F800BF80BDB3
:100AAC0080B483B000AF00237B6000233B603A4BE3
:100ABC001B68394A43F480331360374B1B6803F4CB
:100ACC0000333B607B6801337B603B68002B03D1B8
:100ADC007B68B3F5A06FF0D12F4B1B6803F4003388
:100AEC00002B02D001233B6001E000233B603B68FC
:100AFC00012B4BD1294B1B68284A43F01003136080
:100B0C00264B1B68254A23F003031360234B1B68F9
:100B1C00224A43F0020313601F4B1F4A5B68536069
:100B2C001D4B1D4A5B6853601B4B5B681A4A43F4B0
:100B3C0080635360184B5B68174A23F47C13536033
:100B4C00154B5B68144A43F4E8135360124B1B6853
:100B5C00114A43F08073136000BF0F4B1B6803F006
:100B6C000073002BF9D00C4B5B680B4A23F003038A
:100B7C005360094B5B68084A43F00203536000BFA3
:100B8C00054B5B6803F00C03082BF9D100BF0C3745
:100B9C00BD4680BC704700BF0010024000200240E0
:100BAC00FFF744FF0B480C490C4A002302E0D458D1
:100BBC00C4500433C4188C42F9D3094A094C00239D
:100BCC0001E013600432A242FBD300F0CBFDFFF72F
:100BDC00CFFB704700000020A4000020B8280008BC
:100BEC00A40000206C050020FEE780B400AF00BF1D
:100BFC0000BFBD4680BC704780B483B000AF786046
:100C0C00134BDB6803F08073002B1AD04FF060435A
:100C1C00D3F8803E03F00103002B12D04FF0604359
:100C2C00D3F8003E03F00103002B0AD000BF4FF0B5
:100C3C0060431B68002BFAD04FF060437A68D2B245
:100C4C001A707B6818460C37BD4680BC704700BFD5
:100C5C00F0ED00E080B586B000AFF860B9607A6066
:100C6C0000237B6109E07B69BA6813441B78184642
:100C7C00FFF7C2FF7B6901337B617A697B689A421B
:100C8C00F1DB7B6918461837BD4680BD80B584B052
:100C9C0000AF78607B685B00FB6006E0FB68013BA3
:100CAC00FB60FFF7A2FFFFF7A0FFFB68002BF5D15D
:100CBC0000BF00BF1037BD4680BD80B582B000AF0D
:100CCC00786003E04FF47A70FFF7E0FF7B685A1E00
:100CDC007A60002BF6D100BF00BF0837BD4680BD3F
:100CEC0080B500AF00F08CF800F0FAF800F05AF87C
:100CFC0000BF80BD80B58CB000AF0121012000F099
:100D0C00D5FB144800F064F9134B7B60134BBB60AC
:100D1C001023FB604FF480633B6100237B618023D5
:100D2C00BB610023FB6100233B6220237B624FF4F9
:100D3C008053BB620023FB623B1D1946054800F043
:100D4C0003FA0121034800F03DFA00BF3037BD46DD
:100D5C0080BD00BF300002400C3001404C0100202F
:100D6C0080B500AF4FF4001000F048FA0346002B9A
:100D7C0012D04FF4001000F069FA0A20FFF786FF3A
:100D8C000121064800F054FB0121044800F06FFBE0
:100D9C000021034800F016FA00BF80BD005400404B
:100DAC006C00024080B586B000AF01214FF480404A
:100DBC0000F0B8FB114800F00FFC0023BB804FF48F
:100DCC008273FB8000233B8100237B810023BB814A
:100DDC004FF40073FB8130233B8200237B8207237B
:100DEC00BB823B1D1946054800F030FC012103482D
:100DFC0000F06FFC00BF1837BD4680BD00380040C6
:100E0C0080B500AF0121042000F06EFB0121092008
:100E1C0000F06AFB2D4B1822DA702C4B03229A70CF
:100E2C002A4BA0221A802A4B1022DA70284B03225C
:100E3C009A70274B50221A802449264800F020FA39
:100E4C002349244800F01CFA234B4822DA70224B29
:100E5C0003229A70204B4FF4E0621A801E491D4801
:100E6C0000F00EFA1C4B20221A801B491B4800F084
:100E7C0007FA164B1822DA70144B03229A70134B94
:100E8C004FF420421A80144B4822DA70124B032282
:100E9C009A70114B4FF480421A800D4B1022DA706D
:100EAC000B4B03229A700A4B4FF480521A8008495C
:100EBC000A4800F0E5F90549084800F0E1F906494F
:100ECC00064800F0DDF900BF80BD00BF4C050020D6
:100EDC00500500200008014054050020000C014082
:100EEC0080B586B000AF01214FF4805000F0FCFAC1
:100EFC00154800F071FB4FF44043BB804FF48273F4
:100F0C00FB8000233B8100237B810023BB814FF4BA
:100F1C000073FB8118233B8200237B820723BB8257
:100F2C003B1D1946084800F091FB074B02229A80A2
:100F3C000121054800F0CDFB6420FFF7BEFE00BF89
:100F4C001837BD4680BD00BF0030014080B584B06D
:100F5C0000AF0346FB710023FB734021104800F0E7
:100F6C0059FA05E0FB7B0133FB73FB7BC82B13D8D1
:100F7C0002210C4800F0DAFB0346002BF2D0FB797F
:100F8C009BB21946074800F0C3FB0023FB734021BA
:100F9C00034800F031FA00E000BF1037BD4680BDB9
:100FAC00000801400030014080B500AF102102481C
:100FBC0000F030FA00BF80BD0008014080B500AFE2
:100FCC001021024800F018FA00BF80BD0008014053
:100FDC0080B483B000AF78607B681A684FF6FE73FC
:100FEC0013407A6813607B6800221A607B680022C9
:100FFC005A607B6800229A607B680022DA607B680A
:10100C00434A934206D1434B5B68424A43F00F0379
:10101C00536077E07B68404A934206D13D4B5B6856
:10102C003C4A43F0F00353606CE07B683B4A9342CC
:10103C0006D1384B5B68374A43F47063536061E008
:10104C007B68374A934206D1324B5B68314A43F492
:10105C007043536056E07B68324A934206D12D4B65
:10106C005B682C4A43F4702353604BE07B682E4A38
:10107C00934206D1274B5B68264A43F470035360B6
:10108C0040E07B68294A934206D1224B5B68214A97
:10109C0043F07063536035E07B68254A934206D178
:1010AC00244B5B68234A43F00F0353602AE07B68B0
:1010BC00214A934206D11F4B5B681E4A43F0F00352
:1010CC0053601FE07B681D4A934206D1194B5B6845
:1010DC00184A43F47063536014E07B68184A9342D7
:1010EC0006D1144B5B68134A43F47043536009E018
:1010FC007B68144A934205D10E4B5B680D4A43F44E
:10110C007023536000BF0C37BD4680BC704700BFD6
:10111C0008000240000002401C0002403000024067
:10112C0044000240580002406C0002408000024023
:10113C0008040240000402401C0402403004024037
:10114C00440402405804024080B485B000AF78607B
:10115C0039600023FB607B681B68FB60FB6823F431
:10116C00FF4323F07003FB603B689A683B681B6A83
:10117C001A433B681B691A433B685B691A433B681B
:10118C009B691A433B68DB691A433B685B6A1A43E9
:10119C003B689B6A1343FA681343FB607B68FA68ED
:1011AC001A603B68DA687B685A603B681A687B682F
:1011BC009A603B685A687B68DA6000BF1437BD469A
:1011CC0080BC704780B483B000AF78600B46FB7076
:1011DC00FB78002B06D07B681B6843F001027B6810
:1011EC001A6006E07B681A684FF6FE7313407A6843
:1011FC00136000BF0C37BD4680BC704780B485B00F
:10120C0000AF78600023FB730023BB607B6803F0A6
:10121C008053002B03D00B4B1B68BB6002E00A4BC6
:10122C001B68BB60BA687B681340002B02D001239B
:10123C00FB7301E00023FB73FB7B18461437BD46A0
:10124C0080BC7047000402400000024080B483B0B0
:10125C0000AF78607B6803F08053002B03D0064A04
:10126C007B68536002E0054A7B68536000BF0C3713
:10127C00BD4680BC704700BF000402400000024025
:10128C0080B489B000AF786039600023FB61002323
:10129C003B610023BB610023FB6000237B610023C7
:1012AC00BB603B68DB7803F00F03FB613B68DB78CA
:1012BC0003F01003002B05D03B689B781A46FB69A2
:1012CC001343FB613B681B88DBB2002B44D07B686B
:1012DC001B687B610023BB6138E00122BB6902FA09
:1012EC0003F3FB603B681B881A46FB6813403B61A9
:1012FC003A69FB689A4226D1BB699B00FB600F22BE
:10130C00FB6802FA03F3BB60BB68DB437A691340EA
:10131C007B61FA69FB6802FA03F37A6913437B6118
:10132C003B68DB78282B05D10122BB699A407B688E
:10133C005A6108E03B68DB78482B04D10122BB6979
:10134C009A407B681A61BB690133BB61BB69072B8F
:10135C00C3D97B687A691A603B681B88FF2B46D916
:10136C007B685B687B610023BB613AE0BB69083337
:10137C00012202FA03F3FB603B681B881A46FB68E8
:10138C0013403B613A69FB689A4227D1BB699B00C9
:10139C00FB600F22FB6802FA03F3BB60BB68DB4304
:1013AC007A6913407B61FA69FB6802FA03F37A6984
:1013BC0013437B613B68DB78282B05D1BB69083371
:1013CC0001229A407B685A613B68DB78482B05D137
:1013DC00BB69083301229A407B681A61BB690133EF
:1013EC00BB61BB69072BC1D97B687A695A6000BFA6
:1013FC002437BD4680BC704780B483B000AF7860A2
:10140C000B467B807A887B681A6100BF0C37BD461F
:10141C0080BC704780B483B000AF78600B467B8093
:10142C007A887B685A6100BF0C37BD4680BC704718
:10143C0080B483B000AF78600B46FB70FB78002B58
:10144C0008D07B681B889BB243F400739AB27B680C
:10145C001A8007E07B681B889BB223F400739AB256
:10146C007B681A8000BF0C37BD4680BC704780B4C7
:10147C0083B000AF78600B46FB70FB78002B08D074
:10148C007B681B889BB243F480639AB27B681A809A
:10149C0007E07B681B889BB223F480639AB27B685D
:1014AC001A8000BF0C37BD4680BC704780B483B037
:1014BC0000AF78600B46FB70FB78002B06D0094B15
:1014CC005A6908497B6813434B6106E0054B5A691E
:1014DC007B68DB43034913404B6100BF0C37BD46AF
:1014EC0080BC70470010024080B483B000AF7860BD
:1014FC000B46FB70FB78002B06D0094B9A69084908
:10150C007B6813438B6106E0054B9A697B68DB4370
:10151C00034913408B6100BF0C37BD4680BC70473C
:10152C000010024080B483B000AF78600B46FB70B3
:10153C00FB78002B06D0094BDA6908497B6813430A
:10154C00CB6106E0054BDA697B68DB43034913404A
:10155C00CB6100BF0C37BD4680BC70470010024009
:10156C0080B483B000AF78600B46FB70FB78002B27
:10157C0006D0094BDA6808497B681343CB6006E058
:10158C00054BDA687B68DB4303491340CB6000BF33
:10159C000C37BD4680BC70470010024080B483B04D
:1015AC0000AF78600B46FB70FB78002B06D0094B24
:1015BC001A6908497B6813430B6106E0054B1A69ED
:1015CC007B68DB43034913400B6100BF0C37BD46FE
:1015DC0080BC70470010024080B582B000AF7860CC
:1015EC007B68174A93420AD101214FF48050FFF7D0
:1015FC00B7FF00214FF48050FFF7B2FF1CE07B686F
:10160C00104A93420AD101214FF48040FFF7C6FFE4
:10161C0000214FF48040FFF7C1FF0DE07B680A4AC0
:10162C00934209D101214FF40040FFF7B7FF00218D
:10163C004FF40040FFF7B2FF00BF0837BD4680BD36
:10164C000030014000380040003C004080B485B0C0
:10165C0000AF786039600023FB817B681B88FB81BD
:10166C00FB8903F44153FB813B681A883B685B8818
:10167C0013439AB23B689B8813439AB23B68DB884E
:10168C0013439AB23B681B8913439AB23B685B893C
:10169C0013439AB23B689B8913439AB23B68DB892C
:1016AC0013439AB2FB891343FB817B68FA891A8036
:1016BC007B689B8B9BB223F400639AB27B689A8302
:1016CC003B681A8A7B681A8200BF1437BD4680BCFF
:1016DC00704780B483B000AF78600B46FB70FB782A
:1016EC00002B08D07B681B889BB243F040039AB256
:1016FC007B681A8007E07B681B889BB223F0400351
:10170C009AB27B681A8000BF0C37BD4680BC70470C
:10171C0080B483B000AF78600B467B807B687A889E
:10172C009A8100BF0C37BD4680BC704780B485B031
:10173C0000AF78600B467B800023FB737B681B89B2
:10174C009AB27B8813409BB2002B02D00123FB730F
:10175C0001E00023FB73FB7B18461437BD4680BCAD
:10176C007047000070B500260C4D0D4C641BA41086
:10177C00A64209D100F0B2FF00260A4D0A4C641BA8
:10178C00A410A64205D170BD55F8043B984701360C
:10179C00EEE755F8043B98470136F2E7B02800080D
:1017AC00B0280008B0280008B428000803460244FA
:1017BC00934200D1704703F8011BF9E738B5054691
:1017CC00002940D051F8043C0C1F002BB8BFE41882
:1017DC0000F09AFB1C4A136833B963601460284606
:1017EC00BDE8384000F096BBA34208D92068211808
:1017FC008B4201BF19685B6809182160EDE71A4636
:10180C005B680BB1A342FAD911685018A0420BD1F6
:10181C0020680144501883421160E0D118685B685D
:10182C00014411605360DAE702D90C232B60D6E730
:10183C00206821188B4201BF19685B680918216068
:10184C0063605460CBE738BD58050020F8B5CD1C5B
:10185C0025F0030508350C2D38BF0C25002D064648
:10186C0001DBA94203D90C2333600020F8BD00F042
:10187C004BFB21490A6814469CB9204F3B6823B99D
:10188C002146304600F054F838602946304600F0C6
:10189C004FF8431C23D10C233046336000F03AFB45
:1018AC00E3E723685B1B17D40B2B03D923601C4481
:1018BC00256004E06368A2420CBF0B6053603046A5
:1018CC0000F028FB04F10B00231D20F00700C21AC6
:1018DC00CCD01B1AA350C9E722466468CCE7C41CC1
:1018EC0024F00304A042E3D0211A304600F020F883
:1018FC000130DDD1CFE700BF580500205C0500208A
:10190C000FB40A4B13B51C6824B1A36913B9204654
:10191C0000F0F4F905AB2046049AA168019300F09D
:10192C0027FB02B0BDE8104004B070474000002017
:10193C0038B50023054D044608462B6000F0C0FE68
:10194C00431C02D12B6803B1236038BD6405002011
:10195C00F8B50E461446054618B183690BB900F06C
:10196C00CDF9214B9C422BD16C68A369A360A38950
:10197C001A072FD523696BB323692068F6B2C01AF6
:10198C0063693746834204DC2146284600F022F97D
:10199C0030BBA3680130013BA36023685A1C226052
:1019AC001E706369834204D0A389DB0706D50A2E17
:1019BC0004D12146284600F00DF988B93846F8BD07
:1019CC000A4B9C4201D1AC68CFE7094B9C4208BF43
:1019DC00EC68CAE72146284600F00CF80028CBD06A
:1019EC004FF0FF37EAE700BF3C2800085C280008EE
:1019FC001C280008324B70B51D6806460C4625B1F4
:101A0C00AB6913B9284600F079F92E4B9C420FD1E3
:101A1C006C68A389B4F90C2019072CD4DD0611D4F9
:101A2C000923336042F040034FF0FF30A3813EE0C6
:101A3C00254B9C4201D1AC68EBE7244B9C4208BF80
:101A4C00EC68E6E7580712D5616B41B104F1440329
:101A5C00994202D03046FFF7B1FE00236363A3899D
:101A6C0023F02403A3810023636023692360A389EB
:101A7C0043F00803A38123694BB9A38903F42073B2
:101A8C00B3F5007F03D02146304600F0FDF9A08964
:101A9C00B4F90C2010F001030AD00023A360636991
:101AAC005B42A361236943B910F08000BAD170BDC9
:101ABC00810758BF6369A360F4E70020F7E700BF14
:101ACC00400000203C2800085C2800081C28000866
:101ADC008A89F8B5054610070C4657D44B68002B7D
:101AEC0004DC0B6C002B01DC0020F8BDE66A002E38
:101AFC00FAD0002312F480522F682B6032D0606D24
:101B0C00A3895A0705D56368C01A636B0BB1236CA4
:101B1C00C01A00230246E66A2846216AB047431CD5
:101B2C00A38906D129681D292CD8294ACA40D60771
:101B3C0028D5002262602269D904226004D5421C97
:101B4C0001D12B6803B96065616B2F600029CBD084
:101B5C0004F14403994202D02846FFF72FFE0020DF
:101B6C006063C2E7216A01232846B047411CC7D1F4
:101B7C002B68002BC4D01D2B01D0162B01D12F604C
:101B8C00B2E7A38943F04003A381AEE70F69002FAE
:101B9C00AAD0930718BF00230E6808BF4B69F61B29
:101BAC000F608B60002E9FDD33463A462846216A33
:101BBC00D4F828C0E047002806DCA3894FF0FF309A
:101BCC0043F04003A38190E70744361AEAE700BFCD
:101BDC000100402038B50B6905460C4613B90025A9
:101BEC00284638BD18B183690BB900F087F8144B3F
:101BFC009C421BD16C68B4F90C30002BEFD0626E98
:101C0C00D00704D4990502D4A06D00F015F928462C
:101C1C002146FFF75DFF636E0546DA07E0D4A38922
:101C2C009B05DDD4A06D00F008F9D9E7054B9C426B
:101C3C0001D1AC68DFE7044B9C4208BFEC68DAE7E3
:101C4C003C2800085C2800081C280008002310B55C
:101C5C000446C0E90033C0E90433836081814366E4
:101C6C00C2818361194608225C30FFF79FFD054B4A
:101C7C0024626362044BA362044BE362044B236350
:101C8C0010BD00BF092500082B250008632500089E
:101C9C0087250008014900F0AFB800BFE11B000820
:101CAC00682270B54D1E55430E4605F17401FFF7C1
:101CBC00CDFD044640B10021C0E900160C30A060F7
:101CCC0005F16802FFF772FD204670BD014800F077
:101CDC00B3B800BF61050020014800F0AEB800BFEA
:101CEC0061050020014800F0A7B800BF6205002084
:101CFC00014800F0A2B800BF6205002010B50446F0
:101D0C00FFF7F0FFA3691BB1BDE81040FFF7F0BF70
:101D1C00C4E912332365134B134A1B68A262A34216
:101D2C0008BF0123204608BFA36100F01FF86060C4
:101D3C00204600F01BF8A060204600F017F80022A7
:101D4C000421E0606068FFF781FF01220921A0688F
:101D5C00FFF77CFF02221221E068FFF777FF0123D7
:101D6C00A361D1E718280008A11C0008F8B50746A4
:101D7C00FFF7ACFF1E4B1E68B36913B93046FFF773
:101D8C00BDFF4836D6E90134013B03D533680BB3AC
:101D9C003668F7E7B4F90C50D5B9164B04F1580076
:101DAC00E360656600F047F8FFF796FF08222946C6
:101DBC00C4E90155C4E904552560A56104F15C0032
:101DCC00FFF7F4FCC4E90D55C4E912552046F8BDE3
:101DDC006834D9E704213846FFF762FF04463060C7
:101DEC000028D5D1FFF778FF0C233B60EEE700BF4E
:101DFC00182800080100FFFF2DE9F8430646884625
:101E0C00002700F14804D4E90195B9F1010905D581
:101E1C002468002CF7D13846BDE8F883AB89012B38
:101E2C0007D9B5F90E30013303D029463046C047E7
:101E3C0007436835E9E770477047704770B50E4641
:101E4C00B1F90E10144600291D4696B008DA00228E
:101E5C00B6F90C302A601A0610D44FF480630EE0E9
:101E6C006A4600F0B1FB0028F1DB019A02F47042E3
:101E7C00A2F500535A425A412A60EEE74023002053
:101E8C00236016B070BD00008B8973B59D070646A4
:101E9C000C4607D504F147032360236101236361DA
:101EAC0002B070BD6A4601ABFFF7C8FF009905464A
:101EBC003046FFF7CBFC48B9B4F90C309A05EFD497
:101ECC0023F0030343F00203A381E3E70D4BB3625A
:101EDC00A389206043F08003A381009B2061636190
:101EEC00019B5BB13046B4F90E1000F07FFB28B1BA
:101EFC00A38923F0030343F00103A381A0890543C5
:101F0C00A581CDE7A11C00080148FFF795BF00BFD4
:101F1C00600500200148FFF790BF00BF600500205E
:101F2C00936810B4013B002B936007DA9469A342C9
:101F3C0001DB0A2902D110BCFFF70ABD1368581C3B
:101F4C0010601970084610BC7047F8B506460F466D
:101F5C001446D518AC4201D1002007E03A46304671
:101F6C0014F8011BFFF7DCFF431CF3D1F8BD000094
:101F7C002DE9F04F0D461446984606469DB018B113
:101F8C0083690BB9FFF7BAFE894B9D421BD175686B
:101F9C006B6ED90705D4AB899A0502D4A86DFFF7EF
:101FAC004BFFAB891B0701D52B69EBB92946304692
:101FBC00FFF720FDC0B16B6EDC070ED54FF0FF3084
:101FCC001DB0BDE8F08F7B4B9D4201D1B568DFE7BA
:101FDC00794B9D4208BFF568DAE7AB899805EDD4DB
:101FEC00A86DFFF72AFFE9E70023099320238DF85A
:101FFC00293030234FF00109CDF80C80DFF8BC817B
:10200C008DF82A3023469A4613F8012B0AB1252A5B
:10201C00F9D1BAEB040B0BD05B462246294630466D
:10202C00FFF793FF013000F0AA80099A5A440992F5
:10203C009AF80030002B00F0A28000234FF0FF3202
:10204C00CDE905230AF1010A049307938DF8533067
:10205C001A935446052214F8011B584800F0E8FA6C
:10206C00049AD8B9D10644BF20238DF853301307F6
:10207C0044BF2B238DF853309AF800302A2B15D0FF
:10208C00544600204FF00A0C079A214611F8013BE8
:10209C00303B092B4ED9B0B1079214E0A0EB0803EA
:1020AC0009FA03F31343A2460493D2E7039B191DC9
:1020BC001B680391002BBBBF5B4242F002020793EB
:1020CC000793B8BF049223782E2B0CD163782A2B5C
:1020DC0035D1039B02341A1D1B680392002BB8BF29
:1020EC004FF0FF330593DFF8D8A003225046217838
:1020FC0000F09EFA40B14023A0EB0A0003FA00F076
:10210C00049B01340343049314F8011B06222D484D
:10211C008DF8281000F08CFA00283FD02A4B1BBBFE
:10212C00039B073323F0070308330393099B3B44BA
:10213C00099367E70C4601200CFB0232A5E700234C
:10214C004FF00A0C194601340593204610F8012B68
:10215C00303A092A03D9002BC5D00591C3E70446B0
:10216C0001230CFB0121F0E703AB00932A46304618
:10217C00164B04A9AFF300800746781CD6D16B6EC2
:10218C00D90705D4AB899A0502D4A86DFFF755FE83
:10219C00AB895B063FF512AF099811E703AB0093CF
:1021AC002A463046094B04A900F082F8E4E700BF48
:1021BC003C2800085C2800081C2800087C28000823
:1021CC00822800088628000800000000571F00081D
:1021DC002DE9F047164699468A680B6907469342E3
:1021EC00B8BF1346336091F843200C46DDF82080CD
:1021FC000AB1013333602368990642BF3368023356
:10220C003360256815F0060506D104F1190AE36858
:10221C0032689B1AAB4228DC94F84320131E2268C8
:10222C0018BF012392062DD44946384604F14302C7
:10223C00C047013020D02368E56803F00603042B67
:10224C0018BF002532684FF00006A36808BFAD1A0E
:10225C00226908BF25EAE5759342C4BF9B1AED18A5
:10226C001A34B5421AD1002008E0012352464946DF
:10227C003846C047013003D14FF0FF30BDE8F0873E
:10228C000135C4E73020E11881F843005A1C94F85A
:10229C0045102244023382F84310C5E7012322463D
:1022AC0049463846C0470130E6D00136D9E7000030
:1022BC002DE9FF470F7E9146782F80460C469A46B3
:1022CC000C9D01F1430207D8622F0AD8002F00F0B1
:1022DC00D980582F00F0A48004F1420584F8427094
:1022EC003AE0A7F16303152BF6D801A151F823F0BE
:1022FC005523000869230008E5220008E5220008A0
:10230C00E5220008E522000869230008E522000800
:10231C00E5220008E5220008E522000877240008E1
:10232C009923000859240008E5220008E52200083A
:10233C0099240008E522000899230008E5220008EA
:10234C00E5220008612400082B681A1D1B682A600E
:10235C0004F1420584F842300123A4E02068296886
:10236C00060601F104030AD50E682B60002E03DA71
:10237C002D23764284F843300A235E4819E00E6818
:10238C0010F0400F2B6018BF36B2EFE72B682068B7
:10239C00191D2960010601D51E6802E04606FBD511
:1023AC001E886F2F0CBF08230A235248002184F883
:1023BC0043106568002DA8BF2168A560A4BF21F05B
:1023CC00040121600EB9002D4DD01546B6FBF3F17A
:1023DC0003FB1167C75D05F8017D3746BB420E460E
:1023EC00F4D9082B0BD12368DE0708D52369616863
:1023FC009942DEBF302305F8013C05F1FF35521B35
:10240C0022614B4621464046CDF800A003AAFFF7B7
:10241C00DFFE01304CD14FF0FF3004B0BDE8F08747
:10242C00344881F845702968236851F8046B296099
:10243C001D0614D5DF0744BF43F0200323601EB9EB
:10244C00236823F0200323601023AFE7236843F0B5
:10245C00200323607823284884F84530E3E75906A5
:10246C0048BFB6B2E6E71546BBE72B682668181DD1
:10247C006169286035061B6801D5196002E0700699
:10248C00FBD51980002315462361BAE72B68002180
:10249C001A1D2A601D686268284600F0C9F808B148
:1024AC00401B606063682361002384F84330A8E715
:1024BC002A46494640462369D0470130ABD02368B1
:1024CC009B0713D4E068039B9842B8BF1846A4E757
:1024DC000123324649464046D04701309BD0013556
:1024EC00E36803995B1AAB42F2DCEBE7002504F1DD
:1024FC001906F5E78D2800089E28000810B50C4633
:10250C00B1F90E1000F0A2F80028ABBF636DA389DF
:10251C001B1823F48053ACBF6365A38110BD2DE958
:10252C00F0411F468B890546DB050C46164605D542
:10253C0002230022B1F90E1000F068F8A38932468C
:10254C0023F48053A38128463B46B4F90E10BDE812
:10255C00F04100F017B810B50C46B1F90E1000F0B0
:10256C0055F8431CA38915BF606523F4805343F4CD
:10257C008053A38118BFA38110BDB1F90E1000F0D8
:10258C0013B8000038B50446084611460022054D24
:10259C002A601A46FEF75EFB431C02D12B6803B17E
:1025AC00236038BD6405002038B50023054D044672
:1025BC0008462B6000F05CF8431C02D12B6803B179
:1025CC00236038BD6405002038B50023064D044651
:1025DC00084611462B6000F053F8431C02D12B68BF
:1025EC0003B1236038BD00BF6405002038B500235B
:1025FC00054D044608462B6000F04AF8431C02D1F6
:10260C002B6803B1236038BD6405002038B504463F
:10261C00084611460022054D2A601A4600F040F883
:10262C00431C02D12B6803B1236038BD6405002024
:10263C00034610B5C9B202449342184601D100209A
:10264C0003E0047801338C42F6D110BD38B5044652
:10265C00084611460022054D2A601A4600F028F85B
:10266C00431C02D12B6803B1236038BD64050020E4
:10267C005822024B4FF0FF301A607047640500205F
:10268C005822024B4FF0FF301A607047640500204F
:10269C005822024B00201A60704700BF64050020CE
:1026AC005822024B4FF0FF301A607047640500202F
:1026BC005822024B4FF0FF301A607047640500201F
:1026CC00044A05491368002B08BF0B4618441060D8
:1026DC00184670476805002070050020F8B500BF4B
:1026EC00F8BC08BC9E467047F8B500BFF8BC08BCE7
:0426FC009E4670473F
:10270000E6B58BE8AF95E4BBA3E7A081000000002D
:10271000E6989FE69C9FE4B880000000E6989FE65C
:102720009C9FE4BA8C000000E6989FE69C9FE4B86A
:1027300089000000E6989FE69C9FE59B9B000000B7
:10274000E6989FE69C9FE4BA94000000E6989FE616
:102750009C9FE585AD000000E6989FE69C9FE6976C
:10276000A50000006572726F7220636F646520328D
:1027700035203A206572726F7220666F6E74206623
:102780006F726D61742000001060028C00FE02F216
:1027900002FE00F800FF000004047E018047300FB5
:1027A00010270047807F0000E6B58B00404042CCF8
:1027B000009090909090FF10111610000000003FC4
:1027C0001028603F1010010E3040F000E8AF950077
:1027D000008060F8072020207FA010111610100044
:1027E000010000FF0000000000030C102040F80072
:1027F000E4BBA3000484E45C44C40002F28282824D
:10280000FE80800002017F10103F00080808084881
:1028100088403F00E7A08100440000200000000045
:1028200000000000000000000000000000000000A8
:102830000000000000000000000000000000000098
:102840000000000000000000000000000000000088
:102850000000000000000000000000000000000078
:102860000000000000000000000000000000000068
:10287000000000000000000000000000232D302BAD
:102880002000686C4C006566674546470030313271
:1028900033343536373839414243444546003031C8
:1028A0003233343536373839616263646566000027
:0428B00031010008EA
:0428B4000D0100080A
:1028B80000000000002700080100000010270008A1
:1028C800020000001C270008030000002827000859
:1028D8000400000034270008050000004027000815
:1028E800060000004C2700080700000058270008D1
:1028F80044000020000000003C2800085C28000874
:102908001C28000800000000000000000000000073
:1029180000000000000000000000000000000000AF
:10292800000000000000000000000000000000009F
:10293800000000000000000000000000000000008F
:10294800000000000000000000000000000000007F
:04295800000000007B
:0400000508000BAD37
:00000001FF
