:020000040800F2
:1000000000500020051100086F0600087B0600085C
:1000100081060008870600088D0600080000000021
:10002000000000000000000000000000930600082F
:100030009F06000800000000AB060008B706000895
:100040004D1100084D1100084D1100084D11000818
:100050004D1100084D1100084D1100084D11000808
:100060004D1100084D1100084D1100084D110008F8
:100070004D1100084D1100084D1100084D110008E8
:10008000311200084D1100084D1100084D110008F3
:100090004D1100084D1100084D1100084D110008C8
:1000A0004D1100084D1100084D1100084D110008B8
:1000B0004D1100084D1100084D1100084D110008A8
:1000C0004D1100084D1100084D1100084D11000898
:1000D0004D1100084D1100084D1100084D11000888
:1000E0004D1100084D1100084D11000800000000DE
:1000F0000000000000000000000000000000000000
:0C01000000000000000000005FF808F1A3
:10010C0010B5054C237833B9044B13B10448AFF345
:10011C0000800123237010BD0400002000000000AB
:10012C00501D000808B5034B1BB103490348AFF33E
:10013C00008008BD0000000008000020501D0008D1
:10014C0080F0004002E000BF81F0004142001FBF80
:10015C005FEA410392EA030F7FEA226C7FEA236C89
:10016C006AD04FEA1262D2EB1363C1BFD21841407E
:10017C0048404140B8BF5B42192B88BF704710F014
:10018C00004F40F4000020F07F4018BF404211F0B7
:10019C00004F41F4000121F07F4118BF494292EA1F
:1001AC00030F3FD0A2F1010241FA03FC10EB0C004B
:1001BC00C3F1200301FA03F100F0004302D54942D8
:1001CC0060EB4000B0F5000F13D3B0F1807F06D385
:1001DC0040084FEA310102F10102FE2A51D2B1F17D
:1001EC00004F40EBC25008BF20F0010040EA030072
:1001FC007047490040EB0000013A28BFB0F5000FF2
:10020C00EDD2B0FA80FCACF1080CB2EB0C0200FAA7
:10021C000CF0AABF00EBC25052421843BCBFD040F6
:10022C001843704792F0000F81F4000106BF80F470
:10023C0000000132013BB5E74FEA41037FEA226C33
:10024C0018BF7FEA236C21D092EA030F04D092F0FE
:10025C00000F08BF0846704790EA010F1CBF002032
:10026C00704712F07F4F04D1400028BF40F000408F
:10027C00704712F100723CBF00F50000704700F0AF
:10028C00004343F0FE4040F4000070477FEA2262D6
:10029C0016BF08467FEA23630146420206BF5FEAA7
:1002AC00412390EA010F40F4800070474FF00003A7
:1002BC0004E000BF10F0004348BF40425FEA000C6E
:1002CC0008BF704743F0964301464FF000001CE016
:1002DC0050EA010208BF70474FF000030AE000BF6C
:1002EC0050EA010208BF704711F0004302D54042AA
:1002FC0061EB41015FEA010C02BF8446014600201C
:10030C0043F0B64308BFA3F18053A3F50003BCFA36
:10031C008CF2083AA3EBC25310DB01FA02FC6344E3
:10032C0000FA02FCC2F12002BCF1004F20FA02F2EA
:10033C0043EB020008BF20F00100704702F12002DD
:10034C0001FA02FCC2F1200250EA4C0021FA02F23E
:10035C0043EB020008BF20EADC7070474FF0FF0C43
:10036C001CEAD0521EBF1CEAD15392EA0C0F93EA3E
:10037C000C0F6FD01A4480EA010C400218BF5FEAE0
:10038C0041211ED04FF0006343EA501043EA511153
:10039C00A0FB01310CF00040B1F5000F3EBF49004D
:1003AC0041EAD3715B0040EA010062F17F02FD2A51
:1003BC001DD8B3F1004F40EBC25008BF20F0010034
:1003CC00704790F0000F0CF0004C08BF49024CEA4B
:1003DC00502040EA51207F3AC2BFD2F1FF0340EADD
:1003EC00C250704740F400004FF00003013A5DDC4E
:1003FC0012F1190FDCBF00F000407047C2F100028F
:10040C00410021FA02F1C2F1200200FA02FC5FEA7B
:10041C00310040F1000053EA4C0308BF20EADC70C5
:10042C00704792F0000F00F0004C02BF400010F437
:10043C00000F013AF9D040EA0C0093F0000F01F0E4
:10044C00004C02BF490011F4000F013BF9D041EA06
:10045C000C018FE70CEAD15392EA0C0F18BF93EA08
:10046C000C0F0AD030F0004C18BF31F0004CD8D132
:10047C0080EA010000F00040704790F0000F17BFB9
:10048C0090F0004F084691F0000F91F0004F14D0FF
:10049C0092EA0C0F01D142020FD193EA0C0F03D157
:1004AC004B0218BF084608D180EA010000F000405A
:1004BC0040F0FE4040F40000704740F0FE4040F435
:1004CC00400070474FF0FF0C1CEAD0521EBF1CEAD4
:1004DC00D15392EA0C0F93EA0C0F69D0A2EB0302F2
:1004EC0080EA010C49024FEA402037D04FF080538C
:1004FC0043EA111143EA10130CF000408B4238BF51
:10050C005B0042F17D024FF4000C8B4224BF5B1A5E
:10051C0040EA0C00B3EB510F24BFA3EB510340EAAC
:10052C005C00B3EB910F24BFA3EB910340EA9C005A
:10053C00B3EBD10F24BFA3EBD10340EADC001B01CA
:10054C0018BF5FEA1C1CE0D1FD2A3FF650AF8B426E
:10055C0040EBC25008BF20F0010070470CF0004C7B
:10056C004CEA50207F32C2BFD2F1FF0340EAC250A6
:10057C00704740F400004FF00003013A37E792F067
:10058C00000F00F0004C02BF400010F4000F013AC5
:10059C00F9D040EA0C0093F0000F01F0004C02BFC0
:1005AC00490011F4000F013BF9D041EA0C0195E729
:1005BC000CEAD15392EA0C0F08D142027FF47DAFC2
:1005CC0093EA0C0F7FF470AF084676E793EA0C0FB2
:1005DC0004D14B023FF44CAF08466EE730F0004CB0
:1005EC0018BF31F0004CCAD130F000427FF45CAF40
:1005FC0031F000437FF43CAF5FE700BF4FEA4002AD
:10060C00B2F1FE4F0FD34FF09E03B3EB12620DD934
:10061C004FEA002343F0004310F0004F23FA02F09E
:10062C0018BF404270474FF00000704712F1610F45
:10063C0001D1420205D110F0004008BF6FF000401C
:10064C0070474FF00000704780B500AF00F0AAFD76
:10065C0000F036F900F004FC00F036FB00F06AFC08
:10066C00FAE780B400AF00BFBD4680BC704780B4D1
:10067C0000AFFEE780B400AFFEE780B400AFFEE74A
:10068C0080B400AFFEE780B400AF00BFBD4680BCB5
:10069C00704780B400AF00BFBD4680BC704780B4CB
:1006AC0000AF00BFBD4680BC704780B400AF00BF38
:1006BC00BD4680BC7047000080B483B000AF0023FF
:1006CC00BB7113E00023FB710AE0BA79FB790C498A
:1006DC00D2010A44134400221A70FB790133FB71D6
:1006EC00FB79802BF1D9BB790133BB71BB79072B1B
:1006FC00E8D900BF00BF0C37BD4680BC704700BFB7
:10070C009800002090B484B000AF0446084611460F
:10071C001A462346FB800346BB800B46FB701346F0
:10072C00BB70FB78013B002B00DA0733DB10DBB22C
:10073C0001337B720023FB72B5E00023BB72AAE08D
:10074C00B7F90620BB7A13447F2B00F3A080B7F9CE
:10075C000620BB7A1344002BC0F29980B7F9043001
:10076C005A4203F0070302F0070258BF5342BB8101
:10077C00B7F90430002B00DA0733DB10FB81B7F933
:10078C000430002B07DAFB89013B9BB2FB81BB8950
:10079C0008339BB2BB81B7F90E20FB7A1344002BB4
:1007AC0034DBB7F90E20FB7A1344072B2EDCB7F998
:1007BC000E20FB7A1A44B7F90610BB7A0B443F495A
:1007CC00D2010A4413441B785AB2B97ABB78F87A2E
:1007DC0000FB03F30B441946BB690B441B78194609
:1007EC00B7F90C3001FA03F35BB2134358B2B7F903
:1007FC000E20FB7A1A44B7F90610BB7A0B44C0B230
:10080C002E49D2010A44134402461A70B7F90E203D
:10081C00FB7A1344B3F1FF3F3ADBB7F90E20FB7AB6
:10082C001344062B34DCB7F90E20FB7A13445A1C04
:10083C00B7F90610BB7A0B442049D2010A44134481
:10084C001B785AB2B97ABB78F87A00FB03F30B44E5
:10085C001946BB690B441B781946B7F90C30C3F128
:10086C00080341FA03F35BB2134358B2B7F90E20F5
:10087C00FB7A13445A1CB7F90610BB7A0B44C0B26E
:10088C000E49D2010A44134402461A7000E000BF1C
:10089C00BB7A0133BB72BA7ABB789A42FFF450AF81
:1008AC00FB7A0133FB72FA7A7B7A9A42FFF445AFFA
:1008BC0000BF00BF1037BD4690BC704798000020A9
:1008CC0080B500AF4FF47A7000F059FC00F01EFEBA
:1008DC00642000F054FC00F023FEAE2000F0E4FD98
:1008EC00D52000F0E1FDF02000F0DEFDD92000F075
:1008FC00DBFD112000F0D8FD812000F0D5FD7F201C
:10090C0000F0D2FD8D2000F0CFFD142000F0CCFDC6
:10091C00202000F0C9FD002000F0C6FD212000F0D1
:10092C00C3FD002000F0C0FD7F2000F0BDFD2220A3
:10093C0000F0BAFD002000F0B7FD072000F0B4FD78
:10094C00C92000F0B1FDA12000F0AEFDA42000F004
:10095C00ABFDA62000F0A8FDAF2000F0A5FD5620B1
:10096C0000F0A2FD642000F00AFC00F025FC00BFA2
:10097C0080BD0000B0B582B002AF624B1B69184657
:10098C00FFF798FC0246604B1B6819461046FFF7B0
:10099C00E5FC03461C465C4B1B6819464FF07E5029
:1009AC00FFF7D2FB03461D46564B9B691846FFF7D3
:1009BC0081FC034619462846FFF7D0FC034619462E
:1009CC002046FFF7C3FB03461846FFF717FE034606
:1009DC004C4A13614B4B1B681846FFF76BFC0246E5
:1009EC00494B1B6819461046FFF7B8FC03461C46DA
:1009FC00454B1B6819464FF07E50FFF7A5FB03468D
:100A0C001D46404B9B681846FFF754FC034619469D
:100A1C002846FFF7A3FC034619462046FFF796FB32
:100A2C0003461846FFF7EAFD0346364A1360354B7A
:100A3C001B6A1846FFF73EFC0246334B1B681946EF
:100A4C001046FFF78BFC03461C462F4B1B681946C0
:100A5C004FF07E50FFF778FB03461D46294B9B6AEF
:100A6C001846FFF727FC034619462846FFF776FC85
:100A7C00034619462046FFF769FB03461846FFF765
:100A8C00BDFD03461F4A13621E4BDB691D4A5361B1
:100A9C001C4BDB681B4A53601A4BDB6A194A5362C6
:100AAC00184B1A6A174B9B6A9A4201D0FFF704FE47
:100ABC00144B1B6A18B2134B5B6A19B2134B00939D
:100ACC002C232C22FFF71EFE0E4B1B6918B20D4B6C
:100ADC005B6919B20E4B00932C232C22FFF712FEEC
:100AEC00084B1B6818B2074B5B6819B2094B009393
:100AFC002C232C22FFF706FE022000F040FB00BF47
:100B0C00BD46B0BD3800002000000020681D000864
:100B1C00781F0008701E000880B485B000AF034633
:100B2C000A46FB711346BB712A23FB732C23BB7340
:100B3C0012237B73FB79002B63D1BB79092B62D811
:100B4C0001A252F823F000BF7D0B0008130C000823
:100B5C00130C00087D0B0008130C0008130C000884
:100B6C00AB0B0008130C0008130C0008DD0B00087D
:100B7C00FB7B284A9361FA7BBB7BD31A254A936093
:100B8C00FA7BBB7B1344234A93627B7B214AD36160
:100B9C007B7B204AD3607B7B1E4AD36234E0FA7B9A
:100BAC00BB7B13441B4A9361FB7B1A4A9360FA7B11
:100BBC00BB7B1A44BB7B1344164A93627B7B154A5E
:100BCC00D3617B7B134AD3607B7B124AD3621BE0DD
:100BDC00FA7BBB7BD31A0F4A9361FA7BBB7BD21A8D
:100BEC00BB7BD31A0B4A9360FB7B0A4A93627B7BD9
:100BFC00084AD3617B7B074AD3607B7B054AD3626F
:100C0C0002E000BF00E000BF00BF1437BD4680BC4F
:100C1C00704700BF3800002080B400AF094B5B78F0
:100C2C00C3F30303DBB203F00803002B06D0054B20
:100C3C0040F6B8321A81034B01225A7300BFBD46ED
:100C4C0080BC70472400002080B500AF174B5B7848
:100C5C00C3F30313DBB203F00103002B01D000F04C
:100C6C0027F9124B5B78C3F30313DBB203F00203D7
:100C7C00002B01D000F00EF90C4B5B78C3F303137F
:100C8C00DBB203F00403002B02D0084B00221A73D2
:100C9C00064B5B78C3F30313DBB203F00803002BA2
:100CAC0002D0024B00221A7300BF80BD240000202A
:100CBC0080B400AF034B5B7B022B00BF00BFBD4673
:100CCC0080BC70472400002080B582B000AF0023A8
:100CDC00FB710123BB710023FB7152E0FB791846B9
:100CEC0000F060FB0346002B21D0FB795A4AD35C01
:100CFC00142B40D8FB79584AD25C0132D1B2564AF7
:100D0C00D154554AD35C142B35D9544B1B78C3F3AF
:100D1C000303DBB21A46BB791343DBB203F00F03B8
:100D2C00D9B24E4A137861F30303137023E0FB79B5
:100D3C00494AD35C002B1ED0FB79474AD25C013A5E
:100D4C00D1B2454AD154444AD35C002B13D1434B06
:100D5C001B78C3F30303DBB25AB297F90630DB43BB
:100D6C005BB213405BB203F00F03D9B23B4A13786A
:100D7C0061F303031370BB795B00BB71FB79013327
:100D8C00FB71FB79032BA9D9344B1B78C3F30303F9
:100D9C00DAB2324B1B78C3F30313DBB29A4239D06D
:100DAC002E4B1B78C3F30303DBB25AB22B4B1B78CD
:100DBC00C3F30313DBB2DB43DBB25BB213405BB2B6
:100DCC0003F00F03D9B2254A537861F30303537030
:100DDC00224B1B78C3F30303DBB2DB43DBB25AB207
:100DEC001E4B1B78C3F30313DBB25BB213405BB235
:100DFC0003F00F03D9B2194A537861F307135370F8
:100E0C00164B1B78C3F30303D9B2144A137861F35E
:100E1C0007131370114B5B7803F00F03DBB2002B3D
:100E2C0006D0FFF7F9FE0D4A53786FF303035370A6
:100E3C000A4B5B7823F00F03DBB2002B06D0FFF7D5
:100E4C0003FF064A53786FF307135370FFF730FF15
:100E5C0000BF0837BD4680BD2000002024000020C4
:100E6C0080B500AF0A4B00225A70094B00221A7051
:100E7C00074B01229A70FFF71FFC054B5B78044A65
:100E8C00127811461846FFF747FE00BF80BD00BF21
:100E9C003400002080B400AF044B9B78013BDAB2E5
:100EAC00024B9A7000BFBD4680BC704734000020D6
:100EBC0080B400AF044B9B780133DAB2024B9A70CA
:100ECC0000BFBD4680BC70473400002080B500AF29
:100EDC00164B9B78032B02D9144B01229A70134B9F
:100EEC009B78002B02D1114B03229A700F4B9B78ED
:100EFC001A4652001344DAB20C4B1A700C4B5B7846
:100F0C00C3F30313DBB203F00403002B03D0074B32
:100F1C001A78064B5A70054B5B78044A12781146C6
:100F2C001846FFF7F9FD00BF80BD00BF340000205C
:100F3C002400002080B500AF114B5B78092B1AD828
:100F4C0001A252F823F000BF7D0F0008830F0008A8
:100F5C00830F0008830F0008830F0008830F00081D
:100F6C00830F0008830F0008830F0008830F00080D
:100F7C00FFF7ACFF00E000BFFFF7FCFC00BF80BD3B
:100F8C003400002080B500AF154B1B68144A43F0A9
:100F9C0001031360124B5A681149124B13404B60FA
:100FAC000F4B1B680E4A23F0847323F480331360B9
:100FBC000B4B1B680A4A23F480231360084B5B68B5
:100FCC00074A23F4FE035360054B4FF41F029A604B
:100FDC0000F00CF8044B4FF000629A6000BF80BD2B
:100FEC00001002400000FFF800ED00E080B500AFFB
:100FFC0000F002F800BF80BD80B483B000AF0023C6
:10100C007B6000233B603A4B1B68394A43F48033C6
:10101C001360374B1B6803F400333B607B68013370
:10102C007B603B68002B03D17B68B3F5A06FF0D1DC
:10103C002F4B1B6803F40033002B02D001233B60C1
:10104C0001E000233B603B68012B4BD1294B1B6813
:10105C00284A43F010031360264B1B68254A23F0E3
:10106C0003031360234B1B68224A43F002031360F3
:10107C001F4B1F4A5B6853601D4B1D4A5B685360D6
:10108C001B4B5B681A4A43F480635360184B5B68D4
:10109C00174A23F47C135360154B5B68144A43F4D2
:1010AC00E8135360124B1B68114A43F080731360B2
:1010BC0000BF0F4B1B6803F00073002BF9D00C4BD7
:1010CC005B680B4A23F003035360094B5B68084AC7
:1010DC0043F00203536000BF054B5B6803F00C0345
:1010EC00082BF9D100BF0C37BD4680BC704700BF40
:1010FC000010024000200240FFF744FF0B480C494F
:10110C000C4A002302E0D458C4500433C4188C4257
:10111C00F9D3094A094C002301E013600432A242BE
:10112C00FBD300F0EBFDFFF78FFA704700000020B7
:10113C00040000208820000804000020A4040020E3
:10114C00FEE780B400AF00BF00BFBD4680BC704757
:10115C0080B584B000AF78607B685B00FB6006E014
:10116C00FB68013BFB60FFF7ECFFFFF7EAFFFB6856
:10117C00002BF5D100BF00BF1037BD4680BD80B538
:10118C0082B000AF786003E04FF47A70FFF7E0FFB5
:10119C007B685A1E7A60002BF6D100BF00BF08375F
:1011AC00BD4680BD80B500AF00F08CF800F046F96C
:1011BC0000F05AF800BF80BD80B58CB000AF0121A3
:1011CC00012000F03FFC144800F0B4F9134B7B6095
:1011DC00134BBB601023FB604FF480633B61002317
:1011EC007B618023BB610023FB6100233B622023D6
:1011FC007B624FF48053BB620023FB623B1D19469C
:10120C00054800F053FA0121034800F08DFA00BFA5
:10121C003037BD4680BD00BF300002400C3001406D
:10122C009800002080B500AF4FF4001000F098FA41
:10123C000346002B12D04FF4001000F0B9FA0A202C
:10124C00FFF786FF0121064800F0BDFB0121044891
:10125C0000F0D8FB0021034800F066FA00BF80BD07
:10126C00005400406C00024080B586B000AF0121F4
:10127C004FF4804000F022FC114800F079FC002370
:10128C00BB804FF48273FB8000233B8100237B8166
:10129C000023BB814FF40073FB8130233B8200237E
:1012AC007B820723BB823B1D1946054800F09AFC44
:1012BC000121034800F0D9FC00BF1837BD4680BDA2
:1012CC000038004080B500AF0121042000F0D8FBAD
:1012DC000121092000F0D4FB2D4B1822DA702C4B85
:1012EC0003229A702A4BA0221A802A4B1022DA7001
:1012FC00284B03229A70274B50221A8024492648E7
:10130C0000F070FA2349244800F06CFA234B482271
:10131C00DA70224B03229A70204B4FF4E0621A8051
:10132C001E491D4800F05EFA1C4B20221A801B49F6
:10133C001B4800F057FA164B1822DA70144B032294
:10134C009A70134B4FF420421A80144B4822DA70D7
:10135C00124B03229A70114B4FF480421A800D4BA2
:10136C001022DA700B4B03229A700A4B4FF4805206
:10137C001A8008490A4800F035FA0549084800F077
:10138C0031FA0649064800F02DFA00BF80BD00BFB7
:10139C00980400209C04002000080140A0040020B8
:1013AC00000C014080B582B000AF0346FB71FB79A5
:1013BC00032B3AD801A252F823F000BFD91300082E
:1013CC00F113000809140008211400084FF480716F
:1013DC00184800F0C3FA0346002B0CBF012300236E
:1013EC00DBB223E04FF40071124800F0B7FA034669
:1013FC00002B0CBF01230023DBB217E04FF48061FC
:10140C000C4800F0ABFA0346002B0CBF0123002361
:10141C00DBB20BE02021084800F0A0FA0346002BB9
:10142C000CBF01230023DBB200E000231846083771
:10143C00BD4680BD00080140000C014080B586B05F
:10144C0000AF01214FF4805000F01AFB154800F05A
:10145C008FFB4FF44043BB804FF48273FB8000231F
:10146C003B8100237B810023BB814FF40073FB8104
:10147C0018233B8200237B820723BB823B1D19462A
:10148C00084800F0AFFB074B02229A800121054867
:10149C0000F0EBFB6420FFF772FE00BF1837BD466F
:1014AC0080BD00BF0030014080B584B000AF034662
:1014BC00FB710023FB734021124800F076FA05E023
:1014CC00FB7B0133FB73FB7BC82B16D802210E4828
:1014DC0000F0F8FB0346002BF2D06420FFF74FFE20
:1014EC00FB799BB21946084800F0DEFB0023FB7326
:1014FC004021044800F04BFA00E000BF1037BD4615
:10150C0080BD00BF000801400030014080B500AF35
:10151C001021024800F049FA00BF80BD00080140CC
:10152C0080B500AF1021024800F031FA00BF80BD39
:10153C000008014080B483B000AF78607B681A6803
:10154C004FF6FE7313407A6813607B6800221A60B2
:10155C007B6800225A607B6800229A607B680022BC
:10156C00DA607B68434A934206D1434B5B68424A3C
:10157C0043F00F03536077E07B68404A934206D1F7
:10158C003D4B5B683C4A43F0F00353606CE07B6876
:10159C003B4A934206D1384B5B68374A43F470633D
:1015AC00536061E07B68374A934206D1324B5B68EB
:1015BC00314A43F47043536056E07B68324A93429D
:1015CC0006D12D4B5B682C4A43F4702353604BE0DF
:1015DC007B682E4A934206D1274B5B68264A43F41C
:1015EC007003536040E07B68294A934206D1224B3A
:1015FC005B68214A43F07063536035E07B68254A91
:10160C00934206D1244B5B68234A43F00F0353608B
:10161C002AE07B68214A934206D11F4B5B681E4A25
:10162C0043F0F00353601FE07B681D4A934206D1E0
:10163C00194B5B68184A43F47063536014E07B6881
:10164C00184A934206D1144B5B68134A43F4704317
:10165C00536009E07B68144A934205D10E4B5B68DA
:10166C000D4A43F47023536000BF0C37BD4680BC59
:10167C00704700BF08000240000002401C000240FE
:10168C003000024044000240580002406C0002400E
:10169C008000024008040240000402401C04024086
:1016AC0030040240440402405804024080B485B027
:1016BC0000AF786039600023FB607B681B68FB60BF
:1016CC00FB6823F4FF4323F07003FB603B689A68CC
:1016DC003B681B6A1A433B681B691A433B685B698E
:1016EC001A433B689B691A433B68DB691A433B68A6
:1016FC005B6A1A433B689B6A1343FA681343FB60AB
:10170C007B68FA681A603B68DA687B685A603B68E9
:10171C001A687B689A603B685A687B68DA6000BF1D
:10172C001437BD4680BC704780B483B000AF78607E
:10173C000B46FB70FB78002B06D07B681B6843F0D4
:10174C0001027B681A6006E07B681A684FF6FE732C
:10175C0013407A68136000BF0C37BD4680BC7047DD
:10176C0080B485B000AF78600023FB730023BB60AE
:10177C007B6803F08053002B03D00B4B1B68BB60C2
:10178C0002E00A4B1B68BB60BA687B681340002BF5
:10179C0002D00123FB7301E00023FB73FB7B184693
:1017AC001437BD4680BC7047000402400000024064
:1017BC0080B483B000AF78607B6803F08053002B5B
:1017CC0003D0064A7B68536002E0054A7B6853608D
:1017DC0000BF0C37BD4680BC704700BF0004024000
:1017EC000000024080B489B000AF786039600023FB
:1017FC00FB6100233B610023BB610023FB600023E2
:10180C007B610023BB603B68DB7803F00F03FB615B
:10181C003B68DB7803F01003002B05D03B689B780A
:10182C001A46FB691343FB613B681B88DBB2002B38
:10183C0044D07B681B687B610023BB6138E00122CC
:10184C00BB6902FA03F3FB603B681B881A46FB6812
:10185C0013403B613A69FB689A4226D1BB699B00F5
:10186C00FB600F22FB6802FA03F3BB60BB68DB432F
:10187C007A6913407B61FA69FB6802FA03F37A69AF
:10188C0013437B613B68DB78282B05D10122BB69B4
:10189C009A407B685A6108E03B68DB78482B04D19E
:1018AC000122BB699A407B681A61BB690133BB6139
:1018BC00BB69072BC3D97B687A691A603B681B88A4
:1018CC00FF2B46D97B685B687B610023BB613AE0E8
:1018DC00BB690833012202FA03F3FB603B681B88E7
:1018EC001A46FB6813403B613A69FB689A4227D160
:1018FC00BB699B00FB600F22FB6802FA03F3BB6021
:10190C00BB68DB437A6913407B61FA69FB6802FAB6
:10191C0003F37A6913437B613B68DB78282B05D191
:10192C00BB69083301229A407B685A613B68DB78BB
:10193C00482B05D1BB69083301229A407B681A6198
:10194C00BB690133BB61BB69072BC1D97B687A6961
:10195C005A6000BF2437BD4680BC704780B485B048
:10196C0000AF78600B467B800023FB737B689A6822
:10197C007B881340002B02D00123FB7301E0002372
:10198C00FB73FB7B18461437BD4680BC704780B494
:10199C0083B000AF78600B467B807A887B681A61D5
:1019AC0000BF0C37BD4680BC704780B483B000AF1D
:1019BC0078600B467B807A887B685A6100BF0C3755
:1019CC00BD4680BC704780B483B000AF78600B46D6
:1019DC00FB70FB78002B08D07B681B889BB243F410
:1019EC0000739AB27B681A8007E07B681B889BB2F5
:1019FC0023F400739AB27B681A8000BF0C37BD4683
:101A0C0080BC704780B483B000AF78600B46FB702D
:101A1C00FB78002B08D07B681B889BB243F4806357
:101A2C009AB27B681A8007E07B681B889BB223F410
:101A3C0080639AB27B681A8000BF0C37BD4680BCAD
:101A4C007047000080B483B000AF78600B46FB7029
:101A5C00FB78002B06D0094B5A6908497B68134365
:101A6C004B6106E0054B5A697B68DB430349134025
:101A7C004B6100BF0C37BD4680BC70470010024064
:101A8C0080B483B000AF78600B46FB70FB78002B02
:101A9C0006D0094B9A6908497B6813438B6106E0B1
:101AAC00054B9A697B68DB43034913408B6100BF8C
:101ABC000C37BD4680BC70470010024080B483B028
:101ACC0000AF78600B46FB70FB78002B06D0094BFF
:101ADC00DA6908497B681343CB6106E0054BDA6988
:101AEC007B68DB4303491340CB6100BF0C37BD4619
:101AFC0080BC70470010024080B483B000AF7860A7
:101B0C000B46FB70FB78002B06D0094BDA680849B2
:101B1C007B681343CB6006E0054BDA687B68DB43DC
:101B2C0003491340CB6000BF0C37BD4680BC7047E7
:101B3C000010024080B483B000AF78600B46FB709D
:101B4C00FB78002B06D0094B1A6908497B681343B4
:101B5C000B6106E0054B1A697B68DB4303491340B4
:101B6C000B6100BF0C37BD4680BC704700100240B3
:101B7C0080B582B000AF78607B68174A93420AD177
:101B8C0001214FF48050FFF7B7FF00214FF4805034
:101B9C00FFF7B2FF1CE07B68104A93420AD1012187
:101BAC004FF48040FFF7C6FF00214FF48040FFF751
:101BBC00C1FF0DE07B680A4A934209D101214FF421
:101BCC000040FFF7B7FF00214FF40040FFF7B2FFD2
:101BDC0000BF0837BD4680BD0030014000380040D2
:101BEC00003C004080B485B000AF786039600023C1
:101BFC00FB817B681B88FB81FB8903F44153FB81D0
:101C0C003B681A883B685B8813439AB23B689B8895
:101C1C0013439AB23B68DB8813439AB23B681B8927
:101C2C0013439AB23B685B8913439AB23B689B8916
:101C3C0013439AB23B68DB8913439AB2FB89134373
:101C4C00FB817B68FA891A807B689B8B9BB223F49F
:101C5C0000639AB27B689A833B681A8A7B681A8203
:101C6C0000BF1437BD4680BC704780B483B000AF52
:101C7C0078600B46FB70FB78002B08D07B681B88C8
:101C8C009BB243F040039AB27B681A8007E07B68F2
:101C9C001B889BB223F040039AB27B681A8000BF6A
:101CAC000C37BD4680BC704780B483B000AF786001
:101CBC000B467B807B687A889A8100BF0C37BD46C7
:101CCC0080BC704780B485B000AF78600B467B80D9
:101CDC000023FB737B681B899AB27B8813409BB2F1
:101CEC00002B02D00123FB7301E00023FB73FB7B71
:101CFC0018461437BD4680BC7047000070B50026EE
:101D0C000C4D0D4C641BA410A64209D100F01AF81E
:101D1C0000260A4D0A4C641BA410A64205D170BDC6
:101D2C0055F8043B98470136EEE755F8043B9847C5
:101D3C000136F2E78020000880200008802000088F
:101D4C0084200008F8B500BFF8BC08BC9E4670475C
:0C1D5C00F8B500BFF8BC08BC9E467047FC
:101D680000000000000080C0C0E0F0F8F8FCFCFCB7
:101D7800FEFEFEFEFEFEFEFEFEFEFEFEFCFCFCF887
:101D8800F8F0E0C0C0800000000000000000E0F8AB
:101D9800FCFEFFFFFFFFFFCF87070F1F1F0F0F0777
:101DA80000808000070F0F1F1F0F0787CFFFFFFF5F
:101DB800FFFFFEFCF8E0000000FFFFFFFFFFFF9FB2
:101DC8000F0F0F0701000000F8FEFEFFFFFFFFFFE7
:101DD800FFFEFEF800000001070F0F0F9FFFFFFF37
:101DE800FFFFFF00000F7FFFFFFFFFFFFFFFFF3E2A
:101DF800180000808107070F0F1F1F0F0F070781AB
:101E0800800000183EFFFFFFFFFFFFFFFF7F0F006E
:101E18000000000103071F3F3F7FFFFFFEFEFFFF9B
:101E2800FFFFFFFEF0F0F0F0FEFFFFFFFFFFFEFEFA
:101E3800FFFF7F3F3F1F0703010000000000000075
:101E48000000000000000001010303030707070763
:101E58000707070707070707030303010100000037
:101E680000000000000000000000000080C0E0E06A
:101E7800F0F0F0F0F0F0F0F0F0F0F0F0F0F0F0F05A
:101E8800E00000000000000080C0E0E0E0C080004A
:101E98000000000000000000FFFFFFFFFFFFFF073A
:101EA80007070707070707070707070383C0E0F0C7
:101EB800F8FCFEFFFF7F3F1F0F0703000000000034
:101EC80000000000FFFFFFFFFFFFFF000000000011
:101ED80080C0E0F0F8FCFEFFFF7F3F1F0F07030103
:101EE80000E0F8F8F8F8F8F0000000000000000042
:101EF800FFFFFFFFFFFFFF000000000F1F1F1F1F56
:101F08000F070301000000000000000000FFFFFFB2
:101F1800FFFFFFFF00000000000000001F3F7F7F61
:101F2800FFFFFFFEFEFEFEFEFEFEFEFEFEFEFEFEC6
:101F3800FEFEFEFEFEFEFEFEFEFFFFFF7F7F3F1F52
:101F48000000000000000000000000000000000089
:101F58000000000000000000000000000000000079
:101F68000000000000000000000000000000000069
:101F78000000000000000080E0F0F8FC7E3E1F1F1B
:101F88000F0F8787C7C7C787870F0F1F1F3E7EFCA6
:101F9800F8F0E080000000000000000000000000F1
:101FA8000000FCFFFFFF0F0100000000000EBFBF94
:101FB800FFFFFFBFBF1F0000000000010FFFFFFF72
:101FC800FE000000000000000000000000001F3FAD
:101FD8003F9F80C0C0E0F0F8FCFEFFFFFFFFFFFF5F
:101FE800FF7FFCF8F0E0C0C0809F3F3F1F0000006B
:101FF80000000000000000000000060F0F0F0F0790
:102008000703030100F0FFFFFFFFFFFFFFFF0001D1
:10201800030307070F0F0F0F060000000000000062
:1020280000000000000000000000000000000000A8
:10203800000F3F3F3FFFFFFFFFFF000000000000D1
:102048000000000000000000000000000000000088
:102058000000000000000000000000000000000078
:10206800000F0F0F0F070000000000000000000025
:08207800000000000000000060
:042080003101000822
:042084000D01000842
:042088003333333F7C
:0400000508001105D9
:00000001FF
