:020000040800F2
:1000000000500020E90600085F0100086B010008AD
:1000100071010008770100087D0100080000000060
:100020000000000000000000000000008301000844
:100030008F010008000000009B010008A7010008D4
:1000400031070008310700083107000831070008B0
:1000500031070008310700083107000831070008A0
:100060003107000831070008310700083107000890
:100070003107000831070008310700083107000880
:100080001D08000831070008310700083107000883
:100090003107000831070008310700083107000860
:1000A0003107000831070008310700083107000850
:1000B0003107000831070008310700083107000840
:1000C0003107000831070008310700083107000830
:1000D0003107000831070008310700083107000820
:1000E0003107000831070008310700080000000050
:1000F0000000000000000000000000000000000000
:0C01000000000000000000005FF808F1A3
:10010C0010B5054C237833B9044B13B10448AFF345
:10011C0000800123237010BD0000002000000000AF
:10012C004812000808B5034B1BB103490348AFF351
:10013C00008008BD000000000400002048120008E8
:10014C0080B500AF00F025FB00F054F800F010F97A
:10015C00FCE780B400AF00BFBD4680BC704780B4E4
:10016C0000AFFEE780B400AFFEE780B400AFFEE75F
:10017C0080B400AFFEE780B400AF00BFBD4680BCCA
:10018C00704780B400AF00BFBD4680BC704780B4E0
:10019C0000AF00BFBD4680BC704780B400AF00BF4D
:1001AC00BD4680BC7047000080B483B000AF002314
:1001BC00BB7113E00023FB710AE0BA79FB790C499F
:1001CC00D2010A44134400221A70FB790133FB71EB
:1001DC00FB79802BF1D9BB790133BB71BB79072B30
:1001EC00E8D900BF00BF0C37BD4680BC704700BFCC
:1001FC002400002080B500AF0A2000F0B7FA00F010
:10020C001FFC0A2000F0B2FA00F024FCAE2000F033
:10021C00E5FBD52000F0E2FB802000F0DFFB812025
:10022C0000F0DCFB7F2000F0D9FB8D2000F0D6FB2A
:10023C00142000F0D3FB202000F0D0FB002000F0B5
:10024C00CDFB212000F0CAFB002000F0C7FB7F2073
:10025C0000F0C4FB222000F0C1FB002000F0BEFB2C
:10026C00072000F0BBFBC92000F0B8FBA12000F078
:10027C00B5FBA42000F0B2FBA62000F0AFFBAF2032
:10028C0000F0ACFB562000F0A9FB00F08BFA00BF8D
:10029C0080BD000090B484B000AF3A601A460346AB
:1002AC00FB710B46BB7113467B710023FB73002360
:1002BC00BB733B681B787B737B79002B1FD10023AE
:1002CC00FB7318E07B7BA3F1200213465B00134405
:1002DC005B005A1CFB7BD118FA79B879FB7B034481
:1002EC002048405C2049D2010A44134402461A704B
:1002FC00FB7B0133FB73FB7B052BE3D92DE07B7977
:10030C00012B2AD10023BB7324E00023FB731BE0D9
:10031C007B7B203BDB005A1CFB7BD018BB7BD900C2
:10032C00FA79BB7B1A44BC79FB7B23440F4C00014C
:10033C002044014408780C49D2010A441344024673
:10034C001A70FB7B0133FB73FB7B072BE0D9BB7B68
:10035C000133BB73BB7B012BD7D900BF1037BD4614
:10036C0090BC70477C12000824000020A4140008E4
:10037C0080B582B000AF0023FB710123BB71002359
:10038C00FB7140E0FB79184600F0AAFA0346002BFB
:10039C0017D0FB796B4AD35C142B2ED8FB79694AA6
:1003AC00D25C0132D1B2674AD154664AD35C142B69
:1003BC0023D9654B1A78BB791343DAB2624B1A70A6
:1003CC001BE0FB795F4AD35C002B16D0FB795D4AAE
:1003DC00D25C013AD1B25B4AD1545A4AD35C002B5D
:1003EC000BD1594B1B785AB297F90630DB435BB2F1
:1003FC0013405BB2DAB2544B1A70BB795B00BB7121
:10040C00FB790133FB71FB79032BBBD94E4B1A786B
:10041C004D4B5B789A421DD04B4B1B785AB24A4BD2
:10042C005B785BB2DB435BB213405BB2DAB2464B38
:10043C009A70454B1B785BB2DB435AB2424B5B78EC
:10044C005BB213405BB2DAB23F4BDA703E4B1A78B8
:10045C003D4B5A703C4B9B78002B33D03A4B9B78DE
:10046C00013B072B2AD801A252F823F0C304000841
:10047C00B5040008C9040008A7040008C904000852
:10048C00C9040008C90400089904000800232F4A75
:10049C0002210120FFF7FEFE11E000232C4A04216B
:1004AC000120FFF7F7FE0AE000232A4A062101206B
:1004BC00FFF7F0FE03E0FFF777FE00E000BF224BF2
:1004CC0000229A70204BDB78002B37D01E4BDB7848
:1004DC00013B072B2ED801A252F823F0330500085C
:1004EC00250500084105000817050008410500080E
:1004FC004105000841050008090500080023164ABB
:10050C0002210520FFF7C6FE15E00023134A032144
:10051C000520FFF7BFFE0EE00023114A0421052041
:10052C00FFF7B8FE07E000230E4A05210520FFF770
:10053C00B1FE00E000BF044B0022DA7000BF0837A8
:10054C00BD4680BD1C000020200000206012000869
:10055C0064120008681200086C120008701200087F
:10056C00741200087812000880B500AF154B1B6898
:10057C00144A43F001031360124B5A681149124B91
:10058C0013404B600F4B1B680E4A23F0847323F40B
:10059C00803313600B4B1B680A4A23F480231360CF
:1005AC00084B5B68074A23F4FE035360054B4FF47A
:1005BC001F029A6000F00CF8044B4FF000629A6036
:1005CC0000BF80BD001002400000FFF800ED00E00D
:1005DC0080B500AF00F002F800BF80BD80B483B0DE
:1005EC0000AF00237B6000233B603A4B1B68394A09
:1005FC0043F480331360374B1B6803F400333B60C8
:10060C007B6801337B603B68002B03D17B68B3F5BF
:10061C00A06FF0D12F4B1B6803F40033002B02D0DA
:10062C0001233B6001E000233B603B68012B4BD175
:10063C00294B1B68284A43F010031360264B1B6898
:10064C00254A23F003031360234B1B68224A43F013
:10065C00020313601F4B1F4A5B6853601D4B1D4AFE
:10066C005B6853601B4B5B681A4A43F480635360AE
:10067C00184B5B68174A23F47C135360154B5B686B
:10068C00144A43F4E8135360124B1B68114A43F0AD
:10069C008073136000BF0F4B1B6803F00073002BBB
:1006AC00F9D00C4B5B680B4A23F003035360094BE6
:1006BC005B68084A43F00203536000BF054B5B685C
:1006CC0003F00C03082BF9D100BF0C37BD4680BCDE
:1006DC00704700BF0010024000200240FFF744FFAB
:1006EC000B480C490C4A002302E0D458C450043384
:1006FC00C4188C42F9D3094A094C002301E0136059
:10070C000432A242FBD300F075FDFFF719FD7047D0
:10071C0000000020000000209C1A000800000020AF
:10072C0030040020FEE7000080B483B000AF786096
:10073C000D497A681346DB001344DB004B600A4B0F
:10074C0000229A60084B05221A6000BF064B1B68FA
:10075C0003F48033002BF9D0034B04221A6000BF42
:10076C000C37BD4680BC704710E000E080B582B00D
:10077C0000AF786003E04FF47A70FFF7D5FF7B6829
:10078C005A1E7A60002BF6D100BF00BF0837BD4659
:10079C0080BD80B500AF00F05DF800F0EDF800BF53
:1007AC0080BD000080B58CB000AF0121012000F0AD
:1007BC00E3FB144800F058F9134B7B60134BBB6000
:1007CC001023FB604FF480633B6100237B6180232B
:1007DC00BB610023FB6100233B6220237B624FF44F
:1007EC008053BB620023FB623B1D1946054800F099
:1007FC00F7F90121034800F031FA00BF3037BD464C
:10080C0080BD00BF300002400C30014024000020AD
:10081C0080B500AF4FF4001000F03CFA0346002BFB
:10082C0012D04FF4001000F05DFA0A20FFF77CFFA5
:10083C000121064800F061FB0121044800F07CFB1B
:10084C000021034800F00AFA00BF80BD00540040AC
:10085C006C00024080B500AF0121042000F0AAFB1F
:10086C000121092000F0A6FB184B1822DA70174B57
:10087C0003229A70154BA0221A80154B1022DA70A5
:10088C00134B03229A70124B50221A800F491148B5
:10089C0000F042FA0E490F4800F03EFA0E4B482287
:1008AC00DA700D4B03229A700B4B4FF4E0621A80F6
:1008BC000949084800F030FA074B20221A800649F3
:1008CC00064800F029FA00BF80BD00BF24040020B8
:1008DC0028040020000801402C040020000C0140DA
:1008EC0080B582B000AF0346FB71FB79032B3AD87D
:1008FC0001A252F823F000BF150900082D090008C9
:10090C00450900085D0900084FF48071184800F093
:10091C00BFFA0346002B0CBF01230023DBB223E0FC
:10092C004FF40071124800F0B3FA0346002B0CBFD1
:10093C0001230023DBB217E04FF480610C4800F078
:10094C00A7FA0346002B0CBF01230023DBB20BE0FC
:10095C002021084800F09CFA0346002B0CBF012311
:10096C000023DBB200E0002318460837BD4680BDEB
:10097C0000080140000C014080B586B000AF012199
:10098C004FF4805000F016FB134800F06DFB4FF451
:10099C004043BB804FF48273FB8000233B810023D8
:1009AC007B810023BB814FF40073FB8138233B8296
:1009BC0000237B820723BB823B1D1946064800F0AF
:1009CC008DFB054B02229A800121034800F0C9FBE4
:1009DC0000BF1837BD4680BD0030014080B584B0E3
:1009EC0000AF0346FB710023FB734021124800F05B
:1009FC0076FA05E0FB7B0133FB73FB7BC82B16D827
:100A0C0002210E4800F0DAFB0346002BF2D06420E2
:100A1C00FFF7ACFEFB799BB21946084800F0C0FB0F
:100A2C000023FB734021044800F04BFA00E000BFA8
:100A3C001037BD4680BD00BF0008014000300140AA
:100A4C0080B500AF1021024800F049FA00BF80BD0C
:100A5C000008014080B500AF1021024800F031FAC7
:100A6C0000BF80BD0008014080B483B000AF786047
:100A7C007B681A684FF6FE7313407A6813607B68C4
:100A8C0000221A607B6800225A607B6800229A6000
:100A9C007B680022DA607B68434A934206D1434B61
:100AAC005B68424A43F00F03536077E07B68404A2F
:100ABC00934206D13D4B5B683C4A43F0F0035360D4
:100ACC006CE07B683B4A934206D1384B5B68374AF3
:100ADC0043F47063536061E07B68374A934206D1FC
:100AEC00324B5B68314A43F47043536056E07B6889
:100AFC00324A934206D12D4B5B682C4A43F4702347
:100B0C0053604BE07B682E4A934206D1274B5B68BF
:100B1C00264A43F47003536040E07B68294A9342B1
:100B2C0006D1224B5B68214A43F07063536035E079
:100B3C007B68254A934206D1244B5B68234A43F0D9
:100B4C000F0353602AE07B68214A934206D11F4B66
:100B5C005B681E4A43F0F00353601FE07B681D4A3C
:100B6C00934206D1194B5B68184A43F47063536087
:100B7C0014E07B68184A934206D1144B5B68134A05
:100B8C0043F47043536009E07B68144A934205D1E7
:100B9C000E4B5B680D4A43F47023536000BF0C3757
:100BAC00BD4680BC704700BF0800024000000240F8
:100BBC001C00024030000240440002405800024039
:100BCC006C00024080000240080402400004024015
:100BDC001C04024030040240440402405804024009
:100BEC0080B485B000AF786039600023FB607B680F
:100BFC001B68FB60FB6823F4FF4323F07003FB606E
:100C0C003B689A683B681B6A1A433B681B691A432A
:100C1C003B685B691A433B689B691A433B68DB6919
:100C2C001A433B685B6A1A433B689B6A1343FA6836
:100C3C001343FB607B68FA681A603B68DA687B6870
:100C4C005A603B681A687B689A603B685A687B6894
:100C5C00DA6000BF1437BD4680BC704780B483B0E7
:100C6C0000AF78600B46FB70FB78002B06D07B68DE
:100C7C001B6843F001027B681A6006E07B681A6807
:100C8C004FF6FE7313407A68136000BF0C37BD46F5
:100C9C0080BC704780B485B000AF78600023FB73D4
:100CAC000023BB607B6803F08053002B03D00B4BFD
:100CBC001B68BB6002E00A4B1B68BB60BA687B68B0
:100CCC001340002B02D00123FB7301E00023FB73C4
:100CDC00FB7B18461437BD4680BC704700040240AD
:100CEC000000024080B483B000AF78607B6803F0F2
:100CFC008053002B03D0064A7B68536002E0054A00
:100D0C007B68536000BF0C37BD4680BC704700BF8A
:100D1C00000402400000024080B489B000AF78604B
:100D2C0039600023FB6100233B610023BB6100237E
:100D3C00FB6000237B610023BB603B68DB7803F026
:100D4C000F03FB613B68DB7803F01003002B05D02D
:100D5C003B689B781A46FB691343FB613B681B8815
:100D6C00DBB2002B44D07B681B687B610023BB612A
:100D7C0038E00122BB6902FA03F3FB603B681B8875
:100D8C001A46FB6813403B613A69FB689A4226D1CC
:100D9C00BB699B00FB600F22FB6802FA03F3BB608C
:100DAC00BB68DB437A6913407B61FA69FB6802FA22
:100DBC0003F37A6913437B613B68DB78282B05D1FD
:100DCC000122BB699A407B685A6108E03B68DB787A
:100DDC00482B04D10122BB699A407B681A61BB691C
:100DEC000133BB61BB69072BC3D97B687A691A6075
:100DFC003B681B88FF2B46D97B685B687B610023B3
:100E0C00BB613AE0BB690833012202FA03F3FB60D1
:100E1C003B681B881A46FB6813403B613A69FB68C8
:100E2C009A4227D1BB699B00FB600F22FB6802FA38
:100E3C0003F3BB60BB68DB437A6913407B61FA69DF
:100E4C00FB6802FA03F37A6913437B613B68DB7836
:100E5C00282B05D1BB69083301229A407B685A6163
:100E6C003B68DB78482B05D1BB69083301229A40DB
:100E7C007B681A61BB690133BB61BB69072BC1D9A4
:100E8C007B687A695A6000BF2437BD4680BC7047C6
:100E9C0080B485B000AF78600B467B800023FB7379
:100EAC007B689A687B881340002B02D00123FB736C
:100EBC0001E00023FB73FB7B18461437BD4680BC56
:100ECC00704780B483B000AF78600B467B807A8823
:100EDC007B681A6100BF0C37BD4680BC704780B47C
:100EEC0083B000AF78600B467B807A887B685A6150
:100EFC0000BF0C37BD4680BC704780B483B000AFD8
:100F0C0078600B46FB70FB78002B08D07B681B8845
:100F1C009BB243F400739AB27B681A8007E07B683B
:100F2C001B889BB223F400739AB27B681A8000BFB3
:100F3C000C37BD4680BC704780B483B000AF78607E
:100F4C000B46FB70FB78002B08D07B681B889BB290
:100F5C0043F480639AB27B681A8007E07B681B8835
:100F6C009BB223F480639AB27B681A8000BF0C3763
:100F7C00BD4680BC7047000080B483B000AF786081
:100F8C000B46FB70FB78002B06D0094B5A690849BD
:100F9C007B6813434B6106E0054B5A697B68DB4366
:100FAC00034913404B6100BF0C37BD4680BC7047F2
:100FBC000010024080B483B000AF78600B46FB7029
:100FCC00FB78002B06D0094B9A6908497B681343C0
:100FDC008B6106E0054B9A697B68DB430349134040
:100FEC008B6100BF0C37BD4680BC704700100240BF
:100FFC0080B483B000AF78600B46FB70FB78002B9D
:10100C0006D0094BDA6808497B681343CB6006E0CD
:10101C00054BDA687B68DB4303491340CB6000BFA8
:10102C000C37BD4680BC70470010024080B483B0C2
:10103C0000AF78600B46FB70FB78002B06D0094B99
:10104C001A6908497B6813430B6106E0054B1A6962
:10105C007B68DB43034913400B6100BF0C37BD4673
:10106C0080BC70470010024080B582B000AF786041
:10107C007B68174A93420AD101214FF48050FFF745
:10108C00B7FF00214FF48050FFF7B2FF1CE07B68E4
:10109C00104A93420AD101214FF48040FFF7C6FF5A
:1010AC0000214FF48040FFF7C1FF0DE07B680A4A36
:1010BC00934209D101214FF40040FFF7B7FF002103
:1010CC004FF40040FFF7B2FF00BF0837BD4680BDAC
:1010DC000030014000380040003C004080B485B036
:1010EC0000AF786039600023FB817B681B88FB8133
:1010FC00FB8903F44153FB813B681A883B685B888E
:10110C0013439AB23B689B8813439AB23B68DB88C3
:10111C0013439AB23B681B8913439AB23B685B89B1
:10112C0013439AB23B689B8913439AB23B68DB89A1
:10113C0013439AB2FB891343FB817B68FA891A80AB
:10114C007B689B8B9BB223F400639AB27B689A8377
:10115C003B681A8A7B681A8200BF1437BD4680BC74
:10116C00704780B483B000AF78600B46FB70FB789F
:10117C00002B08D07B681B889BB243F040039AB2CB
:10118C007B681A8007E07B681B889BB223F04003C6
:10119C009AB27B681A8000BF0C37BD4680BC704782
:1011AC0080B483B000AF78600B467B807B687A8814
:1011BC009A8100BF0C37BD4680BC704780B485B0A7
:1011CC0000AF78600B467B800023FB737B681B8928
:1011DC009AB27B8813409BB2002B02D00123FB7385
:1011EC0001E00023FB73FB7B18461437BD4680BC23
:1011FC007047000070B500260C4D0D4C641BA410FC
:10120C00A64209D100F01AF800260A4D0A4C641BBC
:10121C00A410A64205D170BD55F8043B9847013681
:10122C00EEE755F8043B98470136F2E7941A0008AC
:10123C00941A0008941A0008981A0008F8B500BF10
:10124C00F8BC08BC9E467047F8B500BFF8BC08BC9B
:04125C009E467047F3
:101260004100000042000000430000004500000073
:101270004600000047000000480000000000000099
:1012800000000000002F000000000700070000140D
:101290007F147F1400242A7F2A120062640813231B
:1012A00000364955225000000503000000001C22B2
:1012B0004100000041221C000014083E08140008F0
:1012C000083E0808000000A06000000808080808A0
:1012D000000060600000002010080402003E514938
:1012E000453E0000427F40000042615149460021D6
:1012F00041454B31001814127F10002745454539F0
:10130000003C4A494930000171090503003649494A
:10131000493600064949291E000036360000000003
:10132000563600000008142241000014141414144E
:1013300000004122140800020151090600324959F7
:10134000513E007C1211127C007F49494936003E13
:1013500041414122007F4141221C007F49494941CE
:10136000007F09090901003E4149497A007F0808C8
:10137000087F0000417F4100002040413F01007F85
:1013800008142241007F40404040007F020C027F51
:10139000007F0408107F003E4141413E007F090963
:1013A0000906003E4151215E007F09192946004689
:1013B000494949310001017F0101003F4040403F60
:1013C000001F2040201F003F4038403F00631408AA
:1013D0001463000708700807006151494543000085
:1013E0007F41410000552A552A55000041417F00A8
:1013F000000402010204004040404040000001029D
:101400000400002054545478007F48444438003885
:101410004444442000384444487F0038545454180D
:1014200000087E0901020018A4A4A47C007F08041F
:1014300004780000447D4000004080847D00007FEF
:10144000102844000000417F4000007C041804780C
:10145000007C0804047800384444443800FC242408
:1014600024180018242418FC007C080404080048F0
:101470005454542000043F444020003C4040207C11
:10148000001C2040201C003C4030403C0044281000
:101490002844001CA0A0A07C004464544C441414B4
:1014A00014141414000000000000000000000000EC
:1014B00000000000000000F8000000000000003301
:1014C0003000000000100C06100C060000000000A8
:1014D0000000000040C07840C0784000043F040491
:1014E0003F040400007088FC08300000001820FF52
:1014F000211E0000F008F000E018000000211C038D
:101500001E211E0000F00888700000001E21232408
:101510001927211010160E00000000000000000026
:1015200000000000000000E01804020000000007B6
:101530001820400000020418E000000000402018BD
:1015400007000000404080F0804040000202010F90
:1015500001020200000000F0000000000101011F74
:1015600001010100000000000000000080B07000D8
:101570000000000000000000000000000001010168
:1015800001010101000000000000000000303000F7
:1015900000000000000000008060180400601806D1
:1015A0000100000000E010080810E000000F10200B
:1015B00020100F00001010F8000000000020203F55
:1015C00020200000007008080888700000302824DF
:1015D0002221300000300888884830000018202080
:1015E00020110E000000C02010F8000000070424A5
:1015F000243F240000F808888808080000192120EA
:1016000020110E0000E0108888180000000F112043
:1016100020110E0000380808C83808000000003FFC
:10162000000000000070880808887000001C22215B
:1016300021221C0000E010080810E0000000312208
:1016400022110F00000000C0C000000000000030A8
:1016500030000000000000800000000000008060FA
:10166000000000000000804020100800000102047B
:101670000810200040404040404040000404040462
:10168000040404000008102040800000002010081E
:1016900004020100007048080808F0000000003053
:1016A00036010000C030C828E810E00007182724E1
:1016B00023140B000000C038E0000000203C23028F
:1016C0000227382008F8888888700000203F2020F2
:1016D00020110E00C0300808080838000718202024
:1016E0002010080008F808080810E000203F20201B
:1016F00020100F0008F88888E8081000203F2020FC
:101700002320180008F88888E8081000203F2000EF
:1017100003000000C0300808083800000718202027
:10172000221E020008F808000008F808203F2101E6
:1017300001213F20000808F8080800000020203F91
:101740002020000000000808F8080800C080808001
:101750007F00000008F888C028180800203F2001FA
:101760002638200008F8080000000000203F202054
:101770002020300008F8F800F8F80800203F003F6B
:10178000003F200008F830C00008F808203F200083
:1017900007183F00E01008080810E0000F10202094
:1017A00020100F0008F808080808F000203F210169
:1017B00001010000E01008080810E0000F182424C0
:1017C00038504F0008F8888888887000203F200033
:1017D000030C3020007088080808380000382021E9
:1017E00021221C00180808F8080818000000203FF3
:1017F0002000000008F808000008F808001F20205A
:1018000020201F000878880000C83808000007382A
:101810000E010000F80800F80008F800033C07007B
:10182000073C0300081868808068180820302C03E3
:10183000032C30200838C800C83808000000203FBA
:101840002000000010080808C838080020382621A9
:1018500020201800000000FE020202000000007FAD
:1018600040404000000C30C00000000000000001BB
:101870000638C00000020202FE00000000404040A6
:101880007F000000000004020202040000000000CB
:101890000000000000000000000000008080808048
:1018A0008080808000020204000000000000000030
:1018B00000000000000080808080000000192422C9
:1018C00022223F2008F8008080000000003F112005
:1018D00020110E000000008080800000000E11200A
:1018E00020201100000000808088F800000E1120E8
:1018F00020103F200000808080800000001F2222F6
:1019000022221300008080F0888888180020203F61
:10191000202000000000808080808000006B949474
:101920009493600008F8008080800000203F210030
:1019300000203F2000809898000000000020203FF9
:1019400020200000000000809898000000C08080E7
:10195000807F000008F8000080808000203F240283
:101960002D302000000808F8000000000020203F73
:10197000202000008080808080808000203F200028
:101980003F20003F8080008080800000203F2100B9
:1019900000203F200000808080800000001F202069
:1019A00020201F00808000808000000080FFA12098
:1019B00020110E000000008080808000000E1120A9
:1019C00020A0FF80808080008080800020203F2138
:1019D00020000100000080808080800000332424EB
:1019E00024241900008080E0808000000000001F97
:1019F000202000008080000000808000001F202048
:101A000020103F20808080000080808000010E3008
:101A10000806010080800080008080800F300C0369
:101A20000C300F0000808000808080000020312E6C
:101A30000E312000808080000080808080818E7048
:101A40001806010000808080808080000021302CFA
:101A50002221300000000000807C02020000000013
:101A6000003F404000000000FF00000000000000B8
:101A7000FF0000000002027C800000000040403FA8
:101A80000000000000060101020204040000000042
:041A90000000000052
:041A94003101000814
:041A98000D01000834
:04000005080006E900
:00000001FF
