:020000040800F2
:1000000000500020CD070008C5010008D1010008FC
:10001000D7010008DD010008E3010008000000002E
:10002000000000000000000000000000E9010008DE
:10003000F501000800000000010200080D020008A0
:10004000150800081508000815080008150800081C
:10005000150800081508000815080008150800080C
:1000600015080008150800081508000815080008FC
:1000700015080008150800081508000815080008EC
:10008000C10900081508000815080008150800082F
:1000900015080008150800081508000815080008CC
:1000A00015080008150800081508000815080008BC
:1000B00015080008150800081508000815080008AC
:1000C000150800081508000815080008150800089C
:1000D000150800081508000815080008150800088C
:1000E00015080008150800081508000800000000A1
:1000F0000000000000000000000000000000000000
:0C01000000000000000000005FF808F1A3
:10010C0010B5054C237833B9044B13B10448AFF345
:10011C0000800123237010BD6C0000200000000043
:10012C00101B000808B5034B1BB103490348AFF380
:10013C00008008BD0000000070000020101B0008AB
:10014C0080B500AF00F02CFC144B1B780422144932
:10015C00184600F039FA04221249134800F0B6F997
:10016C00104B1B781946114800F0A0FB0D4B5B7827
:10017C0019460F4800F09AFB0A4B9B7819460D481C
:10018C0000F094FB074BDB781946094800F08EFB16
:10019C0000F0B6F800F05AF9FAE700BF880000202A
:1001AC0000000020040000208C000020281B000808
:1001BC00341B0008381B000880B400AF00BFBD46DC
:1001CC0080BC704780B400AFFEE780B400AFFEE7A0
:1001DC0080B400AFFEE780B400AFFEE780B400AFA0
:1001EC0000BFBD4680BC704780B400AF00BFBD46A9
:1001FC0080BC704780B400AF00BFBD4680BC704768
:10020C0080B400AF00BFBD4680BC704780B400AF67
:10021C0000BFBD4680BC704780B582B000AF00F017
:10022C00FBF80346FB711A4BDB7803F00103002B40
:10023C0008D0FB79032B03D8FB790233FB7101E067
:10024C000023FB71124BDB7803F00203002B08D068
:10025C00FB79002B03D0FB79023BFB7101E00423FB
:10026C00FB710B4B9B7803F00403002B08D0FB793C
:10027C0003F00103DBB2002B02D1FB790133FB71DC
:10028C00FB79184600F0D2F800BF0837BD4680BD98
:10029C009400002080B400AF00BFBD4680BC704706
:1002AC0080B400AF00BFBD4680BC704780B400AFC7
:1002BC0000BFBD4680BC704780B500AF0F4B1B78AC
:1002CC00032B17D801A252F823F000BFE902000853
:1002DC00EF020008F5020008FB020008FFF79CFF84
:1002EC0009E0FFF7D7FF06E0FFF7DAFF03E0FFF7BF
:1002FC00DDFF00E000BF00BF80BD00BF9800002004
:10030C0080B582B000AF0023FB710123BB710023C9
:10031C00FB7140E0FB79184600F030FC0346002BE3
:10032C0017D0FB793A4AD35C142B2ED8FB79384A78
:10033C00D25C0132D1B2364AD154354AD35C142B3B
:10034C0023D9344B1A78BB791343DAB2314B1A7078
:10035C001BE0FB792E4AD35C002B16D0FB792C4A80
:10036C00D25C013AD1B22A4AD154294AD35C002B2F
:10037C000BD1284B1B785AB297F90630DB435BB292
:10038C0013405BB2DAB2234B1A70BB795B00BB71C2
:10039C00FB790133FB71FB79032BBBD91D4B1A780D
:1003AC001C4B5B789A421DD01A4B1B785AB2194BD6
:1003BC005B785BB2DB435BB213405BB2DAB2154BDA
:1003CC009A70144B1B785BB2DB435AB2114B5B78BF
:1003DC005BB213405BB2DAB20E4BDA700D4B1A788B
:1003EC000C4B5A700B4B9B78002B04D0FFF70EFF75
:1003FC00084B00229A70074BDB78002B04D0FFF7D8
:10040C005BFF044B0022DA7000BF0837BD4680BD8D
:10041C00900000209400002080B400AF024B5B7869
:10042C001846BD4680BC70479800002080B483B04D
:10043C0000AF0346FB71044AFB79537000BF0C37C5
:10044C00BD4680BC704700BF9800002080B400AF50
:10045C00134B1B78032B1BD801A252F823F000BFBF
:10046C007D0400089D0400089D0400089D040008FC
:10047C000B4B5B7803F00103DBB2002B0AD0084B6B
:10048C005B785B08DBB20133DAB2054B1A7001E022
:10049C0000BF00E000BF00BFBD4680BC704700BF7E
:1004AC009800002080B500AF4FF48051064800F052
:1004BC0024FD062000F0CEFA4FF48051024800F0E3
:1004CC000EFD00BF80BD00BF000C014090B587B091
:1004DC0000AFF860B9601346FB714FF480511848B7
:1004EC0000F00BFD032000F0B5FA0023FB7509E0CA
:1004FC00FB7DFA6813441B78184600F0ABFAFB7DC1
:10050C000133FB75FB7D022BF2D90023BB750AE08E
:10051C00BB7DBA68D418FC2000F09CFA034623700B
:10052C00BB7D0133BB75BA7DFB799A42F0D34FF496
:10053C008051034800F0D3FC00BF1C37BD4690BD72
:10054C00000C014080B584B000AF0346FB71FB7911
:10055C00032B0CD0032B0DDC012B02D0022B03D070
:10056C0008E00523FB7306E03523FB7303E015233A
:10057C00FB7300E000BF4FF48051124800F0BDFC4B
:10058C00FB7B184600F066FA4FF47A73BB6005E00B
:10059C00BB68013BBB60BB68002B08D0FF2000F0A0
:1005AC0059FA034603F00103012BF1D000E000BF20
:1005BC004FF48051034800F092FC00BF1037BD4649
:1005CC0080BD00BF000C014080B584B000AF034675
:1005DC003960FB711346BB71FFF764FF4FF4805118
:1005EC00194800F08AFC022000F034FAFB791B1445
:1005FC00DBB2184600F02EFAFB791B12DBB2184660
:10060C0000F028FAFB79184600F024FA0023FB735B
:10061C0009E0FB7B3A6813441B78184600F01AFA81
:10062C00FB7B0133FB73FA7BBB799A42F1D34FF41A
:10063C008051054800F053FC0120FFF783FF00BFF9
:10064C001037BD4680BD00BF000C014080B500AF27
:10065C00154B1B68144A43F001031360124B5A6884
:10066C001149124B13404B600F4B1B680E4A23F081
:10067C00847323F4803313600B4B1B680A4A23F4F6
:10068C0080231360084B5B68074A23F4FE03536016
:10069C00054B4FF41F029A6000F00CF8044B4FF01E
:1006AC0000629A6000BF80BD001002400000FFF89D
:1006BC0000ED00E080B500AF00F002F800BF80BD97
:1006CC0080B483B000AF00237B6000233B603A4BC7
:1006DC001B68394A43F480331360374B1B6803F4AF
:1006EC0000333B607B6801337B603B68002B03D19C
:1006FC007B68B3F5A06FF0D12F4B1B6803F400336C
:10070C00002B02D001233B6001E000233B603B68DF
:10071C00012B4BD1294B1B68284A43F01003136063
:10072C00264B1B68254A23F003031360234B1B68DD
:10073C00224A43F0020313601F4B1F4A5B6853604D
:10074C001D4B1D4A5B6853601B4B5B681A4A43F494
:10075C0080635360184B5B68174A23F47C13536017
:10076C00154B5B68144A43F4E8135360124B1B6837
:10077C00114A43F08073136000BF0F4B1B6803F0EA
:10078C000073002BF9D00C4B5B680B4A23F003036E
:10079C005360094B5B68084A43F00203536000BF87
:1007AC00054B5B6803F00C03082BF9D100BF0C3729
:1007BC00BD4680BC704700BF0010024000200240C4
:1007CC00FFF744FF0B480C490C4A002302E0D458B5
:1007DC00C4500433C4188C42F9D3094A094C002381
:1007EC0001E013600432A242FBD300F00FFDFFF7CF
:1007FC00A7FC7047000000206C000020DC1B0008E8
:10080C006C000020BC000020FEE7000080B483B028
:10081C0000AF7860134BDB6803F08073002B1AD0A9
:10082C004FF06043D3F8803E03F00103002B12D04D
:10083C004FF06043D3F8003E03F00103002B0AD0C5
:10084C0000BF4FF060431B68002BFAD04FF06043A1
:10085C007A68D2B21A707B6818460C37BD4680BCD9
:10086C00704700BFF0ED00E080B582B000AF78605B
:10087C007B681846FFF7CAFF7B6818460837BD46E9
:10088C0080BD80B582B000AF786006E07B685A1CF2
:10089C007A601B781846FFF7E7FF7B681B78002B04
:1008AC00F4D100BF00BF0837BD4680BD0FB480B582
:1008BC008CB000AF07F13C033B6240E0BB6B1B7894
:1008CC00252B32D1BB6B0133BB63BB6B1B78732BFA
:1008DC0006D0732B2FDC632B1BD0642B09D02AE0A2
:1008EC003B6A1A1D3A621B68FB62F86AFFF7C9FF84
:1008FC0022E03B6A1A1D3A621B68BB623846BB6A2F
:10090C00154A202100F0A6FC3B461846FFF7B9FF1C
:10091C0012E03B6A1A1D3A621B6887F8273097F879
:10092C0027301846FFF7A0FF06E0BB6B1B78184674
:10093C00FFF79AFF00E000BFBB6B0133BB63BB6BDF
:10094C001B78002BBAD100BF00BF3037BD46BDE8C5
:10095C00804004B0704700BF3C1B000880B483B0DB
:10096C0000AF78600D497A681346DB001344DB0056
:10097C004B600A4B00229A60084B05221A6000BF9C
:10098C00064B1B6803F48033002BF9D0034B042275
:10099C001A6000BF0C37BD4680BC704710E000E009
:1009AC0080B500AF00F07AF800F034F900F024F8CC
:1009BC0000BF80BD80B500AF4FF4001000F078F997
:1009CC000346002B12D04FF4001000F099F90A20C6
:1009DC00FFF7C4FF0121064800F09DFA01210448ED
:1009EC0000F0B8FA0021034800F046F900BF80BDC2
:1009FC00005400406C00024080B586B000AF01216D
:100A0C004FF4804000F0E4FA114800F03BFB002367
:100A1C00BB804FF48273FB8000233B8100237B81DE
:100A2C000023BB814FF40073FB8130233B820023F6
:100A3C007B820723BB823B1D1946054800F05CFBFB
:100A4C000121034800F09BFB00BF1837BD4680BD59
:100A5C000038004080B582B000AF0346FB7100BF88
:100A6C0002210D4800F0B6FB0346012BF8D10A4BCE
:100A7C00FA7992B29A8100BF0121074800F0AAFBD3
:100A8C000346012BF8D1044800F098FB0346DBB277
:100A9C0018460837BD4680BD0038004080B500AF11
:100AAC000121042000F076FA0121092000F072FAED
:100ABC002D4B1822DA702C4B03229A702A4BA02251
:100ACC001A802A4B1022DA70284B03229A70274B7B
:100ADC0050221A802449264800F02CF92349244836
:100AEC0000F028F9234B4822DA70224B03229A702B
:100AFC00204B4FF4E0621A801E491D4800F01AF991
:100B0C001C4B20221A801B491B4800F013F9164B72
:100B1C001822DA70144B03229A70134B4FF42042B4
:100B2C001A80144B4822DA70124B03229A70114B24
:100B3C004FF480421A800D4B1022DA700B4B0322BB
:100B4C009A700A4B4FF480521A8008490A4800F0F8
:100B5C00F1F80549084800F0EDF80649064800F0A0
:100B6C00E9F800BF80BD00BF9C000020A000002061
:100B7C0000080140A4000020000C014080B582B0A8
:100B8C0000AF0346FB71FB79032B3AD801A252F854
:100B9C0023F000BFB10B0008C90B0008E10B0008E3
:100BAC00F90B00084FF48071184800F07FF90346E8
:100BBC00002B0CBF01230023DBB223E04FF40071A8
:100BCC00124800F073F90346002B0CBF01230023DD
:100BDC00DBB217E04FF480610C4800F067F9034674
:100BEC00002B0CBF01230023DBB20BE020210848B3
:100BFC0000F05CF90346002B0CBF01230023DBB291
:100C0C0000E0002318460837BD4680BD00080140AF
:100C1C00000C014080B586B000AF01214FF480502C
:100C2C0000F0B8F9134800F02DFA4FF44043BB80A4
:100C3C004FF48273FB8000233B8100237B810023D4
:100C4C00BB814FF40073FB8138233B8200237B82F2
:100C5C000723BB823B1D1946064800F04DFA054B95
:100C6C0002229A800121034800F089FA00BF18374C
:100C7C00BD4680BD0030014080B483B000AF7860C9
:100C8C000B46FB70FB78002B06D07B681B6843F08F
:100C9C0001027B681A6006E07B681A684FF6FE73E7
:100CAC0013407A68136000BF0C37BD4680BC704798
:100CBC0080B485B000AF78600023FB730023BB6069
:100CCC007B6803F08053002B03D00B4B1B68BB607D
:100CDC0002E00A4B1B68BB60BA687B681340002BB0
:100CEC0002D00123FB7301E00023FB73FB7B18464E
:100CFC001437BD4680BC704700040240000002401F
:100D0C0080B483B000AF78607B6803F08053002B15
:100D1C0003D0064A7B68536002E0054A7B68536047
:100D2C0000BF0C37BD4680BC704700BF00040240BA
:100D3C000000024080B489B000AF786039600023B5
:100D4C00FB6100233B610023BB610023FB6000239C
:100D5C007B610023BB603B68DB7803F00F03FB6116
:100D6C003B68DB7803F01003002B05D03B689B78C5
:100D7C001A46FB691343FB613B681B88DBB2002BF3
:100D8C0044D07B681B687B610023BB6138E0012287
:100D9C00BB6902FA03F3FB603B681B881A46FB68CD
:100DAC0013403B613A69FB689A4226D1BB699B00B0
:100DBC00FB600F22FB6802FA03F3BB60BB68DB43EA
:100DCC007A6913407B61FA69FB6802FA03F37A696A
:100DDC0013437B613B68DB78282B05D10122BB696F
:100DEC009A407B685A6108E03B68DB78482B04D159
:100DFC000122BB699A407B681A61BB690133BB61F4
:100E0C00BB69072BC3D97B687A691A603B681B885E
:100E1C00FF2B46D97B685B687B610023BB613AE0A2
:100E2C00BB690833012202FA03F3FB603B681B88A1
:100E3C001A46FB6813403B613A69FB689A4227D11A
:100E4C00BB699B00FB600F22FB6802FA03F3BB60DB
:100E5C00BB68DB437A6913407B61FA69FB6802FA71
:100E6C0003F37A6913437B613B68DB78282B05D14C
:100E7C00BB69083301229A407B685A613B68DB7876
:100E8C00482B05D1BB69083301229A407B681A6153
:100E9C00BB690133BB61BB69072BC1D97B687A691C
:100EAC005A6000BF2437BD4680BC704780B485B003
:100EBC0000AF78600B467B800023FB737B689A68DD
:100ECC007B881340002B02D00123FB7301E000232D
:100EDC00FB73FB7B18461437BD4680BC704780B44F
:100EEC0083B000AF78600B467B807A887B681A6190
:100EFC0000BF0C37BD4680BC704780B483B000AFD8
:100F0C0078600B467B807A887B685A6100BF0C370F
:100F1C00BD4680BC704780B483B000AF78600B4690
:100F2C00FB70FB78002B08D07B681B889BB243F4CA
:100F3C0000739AB27B681A8007E07B681B889BB2AF
:100F4C0023F400739AB27B681A8000BF0C37BD463D
:100F5C0080BC704780B483B000AF78600B46FB70E8
:100F6C00FB78002B08D07B681B889BB243F4806312
:100F7C009AB27B681A8007E07B681B889BB223F4CB
:100F8C0080639AB27B681A8000BF0C37BD4680BC68
:100F9C007047000080B483B000AF78600B46FB70E4
:100FAC00FB78002B06D0094B9A6908497B681343E0
:100FBC008B6106E0054B9A697B68DB430349134060
:100FCC008B6100BF0C37BD4680BC704700100240DF
:100FDC0080B483B000AF78600B46FB70FB78002BBD
:100FEC0006D0094BDA6908497B681343CB6106E0EC
:100FFC00054BDA697B68DB4303491340CB6100BFC7
:10100C000C37BD4680BC70470010024080B483B0E2
:10101C0000AF78600B46FB70FB78002B06D0094BB9
:10102C00DA6808497B681343CB6006E0054BDA6845
:10103C007B68DB4303491340CB6000BF0C37BD46D4
:10104C0080BC70470010024080B483B000AF786061
:10105C000B46FB70FB78002B06D0094B1A6908492C
:10106C007B6813430B6106E0054B1A697B68DB4315
:10107C00034913400B6100BF0C37BD4680BC704761
:10108C000010024080B582B000AF78607B68174AD0
:10109C0093420AD101214FF48050FFF7B7FF002192
:1010AC004FF48050FFF7B2FF1CE07B68104A93426C
:1010BC000AD101214FF48040FFF7C6FF00214FF405
:1010CC008040FFF7C1FF0DE07B680A4A934209D1CB
:1010DC0001214FF40040FFF7B7FF00214FF400400F
:1010EC00FFF7B2FF00BF0837BD4680BD003001409E
:1010FC0000380040003C004080B485B000AF786000
:10110C0039600023FB817B681B88FB81FB8903F41E
:10111C004153FB813B681A883B685B8813439AB246
:10112C003B689B8813439AB23B68DB8813439AB2A3
:10113C003B681B8913439AB23B685B8913439AB291
:10114C003B689B8913439AB23B68DB8913439AB281
:10115C00FB891343FB817B68FA891A807B689B8B24
:10116C009BB223F400639AB27B689A833B681A8A19
:10117C007B681A8200BF1437BD4680BC704780B4B0
:10118C0083B000AF78600B46FB70FB78002B08D067
:10119C007B681B889BB243F040039AB27B681A8031
:1011AC0007E07B681B889BB223F040039AB27B68F4
:1011BC001A8000BF0C37BD4680BC704780B483B02A
:1011CC0000AF78607B689B899BB218460C37BD4694
:1011DC0080BC704780B485B000AF78600B467B80D4
:1011EC000023FB737B681B899AB27B8813409BB2EC
:1011FC00002B02D00123FB7301E00023FB73FB7B6C
:10120C0018461437BD4680BC7047000070B50026E8
:10121C000C4D0D4C641BA410A64209D100F072FCBD
:10122C0000260A4D0A4C641BA410A64205D170BDC1
:10123C0055F8043B98470136EEE755F8043B9847C0
:10124C000136F2E7D41B0008D41B0008D41B00089D
:10125C00D81B00080CB430B5174B0C1E1D689DB084
:10126C0008DA8B234FF0FF302B601DB0BDE8304007
:10127C0002B070474FF40273ADF814300CBF234624
:10128C0004F1FF33049307934FF6FF73029006901B
:10129C00ADF81630284621AB209A02A9019300F034
:1012AC00C5F8431CBCBF8B232B60002CDDD0002267
:1012BC00029B1A70D9E700BF0800002070477047E6
:1012CC00F8B5CD1C25F0030508350C2D38BF0C25C1
:1012DC00002D064601DBA94203D90C233360002004
:1012EC00F8BD00F07FFB21490A6814469CB9204FD9
:1012FC003B6823B92146304600F02EFB3860294666
:10130C00304600F029FB431C23D10C2330463360BC
:10131C0000F06EFBE3E723685B1B17D40B2B03D9A0
:10132C0023601C44256004E06368A2420CBF0B6080
:10133C005360304600F05CFB04F10B00231D20F0E1
:10134C000700C21ACCD01B1AA350C9E72246646806
:10135C00CCE7C41C24F00304A042E3D0211A30468D
:10136C0000F0FAFA0130DDD1CFE700BFAC0000206D
:10137C00B00000202DE9F0478E6882469E420C4654
:10138C0090461F4638D88A8912F4906F32D025685F
:10139C0009690133A5EB010965694B4405EB45056A
:1013AC0005EBD5756D109D4238BF1D46530531D5E3
:1013BC002946FFF785FF064650B90C234FF0FF3046
:1013CC00CAF80030A38943F04003A381BDE8F0873D
:1013DC004A46216900F0DEFAA38923F4906343F0B6
:1013EC008003A38126614E4426603E466561A5EBD1
:1013FC000905A560BE4200D93E46324641462068EA
:10140C0000F0D6FAA36800209B1BA360236833442A
:10141C002360DBE72A4600F039FB06460028E1D1C1
:10142C005046216900F0EAFAC7E700002DE9F04FB9
:10143C0098468B8907461B060D4614469DB00ED563
:10144C000B6963B94021FFF73BFF2860286120B985
:10145C000C233B604FF0FF30D1E040236B61002345
:10146C00099320238DF8293030234FF00109CDF852
:10147C000C80DFF8A4818DF82A3023469A4613F8A5
:10148C00012B0AB1252AF9D1BAEB040B0BD05B4620
:10149C00224629463846FFF76DFF013000F0AA803E
:1014AC00099A5A4409929AF80030002B00F0A28055
:1014BC0000234FF0FF32CDE905230AF1010A049312
:1014CC0007938DF853301A935446052214F8011BD8
:1014DC00514800F051FA049AD8B9D00644BF2023E1
:1014EC008DF85330110744BF2B238DF853309AF8E5
:1014FC0000302A2B15D0544600204FF00A0C079AC6
:10150C00214611F8013B303B092B4ED9B0B1079263
:10151C0014E0A0EB080309FA03F31343A246049367
:10152C00D2E7039B191D1B680391002BBBBF5B42C9
:10153C0042F0020207930793B8BF049223782E2B34
:10154C000CD163782A2B35D1039B02341A1D1B68EE
:10155C000392002BB8BF4FF0FF330593DFF8BCA00C
:10156C0003225046217800F007FA40B14023A0EB4B
:10157C000A0003FA00F0049B01340343049314F8AB
:10158C00011B062226488DF8281000F0F5F90028DA
:10159C0038D0244B1BBB039B073323F007030833C2
:1015AC000393099B3344099367E70C4601200CFB1A
:1015BC000232A5E700234FF00A0C194601340593BB
:1015CC00204610F8012B303A092A03D9002BC5D03C
:1015DC000591C3E7044601230CFB0121F0E703ABA3
:1015EC0000932A463846104B04A9AFF30080421CE6
:1015FC000646D6D1AB895B063FF52CAF09981DB0DA
:10160C00BDE8F08F03AB00932A463846064B04A97D
:10161C0000F07CF8EBE700BFA01B0008A61B00083D
:10162C00AA1B000800000000811300082DE9F047F8
:10163C00164699468A680B6907469342B8BF13460B
:10164C00336091F843200C46DDF820800AB1013359
:10165C0033602368990642BF3368023333602568D0
:10166C0015F0060506D104F1190AE36832689B1AD5
:10167C00AB4228DC94F84320131E226818BF0123C8
:10168C0092062DD44946384604F14302C047013036
:10169C0020D02368E56803F00603042B18BF00254F
:1016AC0032684FF00006A36808BFAD1A226908BF64
:1016BC0025EAE5759342C4BF9B1AED181A34B5425E
:1016CC001AD1002008E00123524649463846C0474B
:1016DC00013003D14FF0FF30BDE8F0870135C4E78E
:1016EC003020E11881F843005A1C94F8451022442C
:1016FC00023382F84310C5E7012322464946384697
:10170C00C0470130E6D00136D9E700002DE9FF478C
:10171C000F7E9146782F80460C469A460C9D01F11F
:10172C00430207D8622F0AD8002F00F0D980582F17
:10173C0000F0A48004F1420584F842703AE0A7F16D
:10174C006303152BF6D801A151F823F0B11700084B
:10175C00C517000841170008411700084117000879
:10176C0041170008C5170008411700084117000869
:10177C004117000841170008D3180008F517000896
:10178C00B51800084117000841170008F5180008A3
:10179C0041170008F5170008411700084117000809
:1017AC00BD1800082B681A1D1B682A6004F142053D
:1017BC0084F842300123A4E020682968060601F170
:1017CC0004030AD50E682B60002E03DA2D23764213
:1017DC0084F843300A235E4819E00E6810F0400F7D
:1017EC002B6018BF36B2EFE72B682068191D2960F3
:1017FC00010601D51E6802E04606FBD51E886F2F38
:10180C000CBF08230A235248002184F84310656852
:10181C00002DA8BF2168A560A4BF21F004012160A0
:10182C000EB9002D4DD01546B6FBF3F103FB116735
:10183C00C75D05F8017D3746BB420E46F4D9082B2F
:10184C000BD12368DE0708D5236961689942DEBF96
:10185C00302305F8013C05F1FF35521B22614B4644
:10186C0021464046CDF800A003AAFFF7DFFE013069
:10187C004CD14FF0FF3004B0BDE8F087344881F80C
:10188C0045702968236851F8046B29601D0614D52E
:10189C00DF0744BF43F0200323601EB9236823F005
:1018AC00200323601023AFE7236843F02003236059
:1018BC007823284884F84530E3E7590648BFB6B288
:1018CC00E6E71546BBE72B682668181D616928609A
:1018DC0035061B6801D5196002E07006FBD519802E
:1018EC00002315462361BAE72B6800211A1D2A60D4
:1018FC001D686268284600F03FF808B1401B606024
:10190C0063682361002384F84330A8E72A464946DC
:10191C0040462369D0470130ABD023689B0713D4D2
:10192C00E068039B9842B8BF1846A4E701233246EF
:10193C0049464046D04701309BD00135E3680399B6
:10194C005B1AAB42F2DCEBE7002504F11906F5E774
:10195C00B11B0008C21B000838B50023054D044616
:10196C0008462B6000F0C0F8431C02D12B6803B171
:10197C00236038BDB4000020034610B5C9B2024440
:10198C009342184601D1002003E0047801338C42C5
:10199C00F6D110BD0A44914200F1FF3300D17047DB
:1019AC0010B511F8014B914203F8014FF9D110BD5C
:1019BC00884210B501EB020402D98442234607D8B1
:1019CC00431EA14208D011F8012B03F8012FF8E7B0
:1019DC00014602448A4200D110BD13F8014D02F8B1
:1019EC00014DF7E70148FFF769BC00BFA8000020D4
:1019FC000148FFF764BC00BFA800002038B50546BD
:101A0C00002940D051F8043C0C1F002BB8BFE4183F
:101A1C00FFF7E8FF1C4A136833B96360146028466B
:101A2C00BDE83840FFF7E4BFA34208D9206821186D
:101A3C008B4201BF19685B6809182160EDE71A46F3
:101A4C005B680BB1A342FAD911685018A0420BD1B4
:101A5C0020680144501883421160E0D118685B681B
:101A6C00014411605360DAE702D90C232B60D6E7EE
:101A7C00206821188B4201BF19685B680918216026
:101A8C0063605460CBE738BDAC000020F8B5074666
:101A9C0014460E4621B91146BDE8F840FFF710BCBC
:101AAC0022B9FFF7ABFF25462846F8BD00F014F825
:101ABC00A0420FD221463846FFF702FC054600280B
:101ACC00F2D031462246FFF765FF31463846FFF724
:101ADC0095FFE9E73546E7E751F8043C181F002B62
:101AEC00BCBF0B58C0187047044A05491368002B3B
:101AFC0008BF0B461844106018467047B800002009
:101B0C00C0000020F8B500BFF8BC08BC9E4670476A
:0C1B1C00F8B500BFF8BC08BC9E4670473E
:101B28007A686573686920256420000025640000D0
:101B3800256420002564000000000000000000006B
:101B4800000000000000000000000000000000008D
:101B5800000000000000000000000000000000007D
:101B6800000000000000000000000000000000006D
:101B7800000000000000000000000000000000005D
:101B8800000000000000000000000000000000004D
:101B98000000000000000000232D302B2000686C9E
:101BA8004C00656667454647003031323334353678
:101BB80037383941424344454600303132333435B1
:0C1BC800363738396162636465660000DE
:041BD40031010008D3
:041BD8000D010008F3
:101BDC0001020304080706050C00002000000000A9
:101BEC00601B0008801B0008401B00080000000060
:101BFC0000000000000000000000000000000000D9
:101C0C0000000000000000000000000000000000C8
:101C1C0000000000000000000000000000000000B8
:101C2C0000000000000000000000000000000000A8
:0C1C3C000000000000000000000000009C
:04000005080007CD1B
:00000001FF
