:020000040800F2
:10000000005000205D080008F1010008FD01000813
:1000100003020008090200080F02000800000000A7
:1000200000000000000000000000000015020008B1
:1000300021020008000000002D020008390200081B
:10004000A5080008A5080008A5080008A5080008DC
:10005000A5080008A5080008A5080008A5080008CC
:10006000A5080008A5080008A5080008A5080008BC
:10007000A5080008A5080008A5080008A5080008AC
:1000800095090008A5080008A5080008A5080008AB
:10009000A5080008A5080008A5080008A50800088C
:1000A000A5080008A5080008A5080008A50800087C
:1000B000A5080008A5080008A5080008A50800086C
:1000C000A5080008A5080008A5080008A50800085C
:1000D000A5080008A5080008A5080008A50800084C
:1000E000A5080008A5080008A508000800000000F1
:1000F0000000000000000000000000000000000000
:0C01000000000000000000005FF808F1A3
:10010C0010B5054C237833B9044B13B10448AFF345
:10011C0000800123237010BD0000002000000000AF
:10012C00E813000808B5034B1BB103490348AFF3B0
:10013C00008008BD0000000004000020E813000847
:10014C0080B584B000AF00F0DEFB00F09BF800F04F
:10015C00B5FA0023FB600023BB6000F03DFAFB689E
:10016C000133FB600A237B600123FB7005E07A6896
:10017C0013469B0013445B007B60FB687A68B3FBFF
:10018C00F2F2796801FB02F29B1AFA689A42EED1FC
:10019C00FB68BB601FE0FB780833FB707B68104A80
:1001AC00A2FB0323DB087B60FB785033D9B2BA681F
:1001BC007B68B2FBF3F3DBB23033DAB200230020FE
:1001CC0000F0BAF8BB687A68B3FBF2F2796801FB0D
:1001DC0002F29B1ABB607B68092BDCD8BDE700BF21
:1001EC00CDCCCCCC80B400AF00BFBD4680BC70473A
:1001FC0080B400AFFEE780B400AFFEE780B400AF80
:10020C00FEE780B400AFFEE780B400AF00BFBD4690
:10021C0080BC704780B400AF00BFBD4680BC704747
:10022C0080B400AF00BFBD4680BC704780B400AF47
:10023C0000BFBD4680BC704780B483B000AF0023C4
:10024C00BB7113E00023FB710AE0BA79FB790C490E
:10025C00D2010A44134400221A70FB790133FB715A
:10026C00FB79802BF1D9BB790133BB71BB79072B9F
:10027C00E8D900BF00BF0C37BD4680BC704700BF3B
:10028C008000002080B500AF4FF47A7000F028FB9E
:10029C0000F0A2FC642000F023FB00F0A7FCAE20D1
:1002AC0000F068FCD52000F065FCF02000F062FC4A
:1002BC00D92000F05FFC112000F05CFC812000F0E4
:1002CC0059FC7F2000F056FC8D2000F053FC1420CC
:1002DC0000F050FC202000F04DFC002000F04AFC07
:1002EC00212000F047FC002000F044FC7F2000F0AF
:1002FC0041FC222000F03EFC002000F03BFC0720DB
:10030C0000F038FCC92000F035FCA12000F032FCD4
:10031C00A42000F02FFCA62000F02CFCAF2000F055
:10032C0029FC562000F026FC642000F0D9FA00F0DD
:10033C00F5FA00BF80BD000090B484B000AF044655
:10034C00084611461A462346FB710346BB710B4601
:10035C007B7113463B710023FB730023BB737B79CA
:10036C007B733B79002B1FD10023FB7318E07B7B45
:10037C00A3F1200213465B0013445B005A1CFB7B69
:10038C00D118FA79B879FB7B03442148405C2149A8
:10039C00D2010A44134402461A70FB7B0133FB73EF
:1003AC00FB7B052BE3D92DE03B79012B2AD10023D4
:1003BC00BB7324E00023FB731BE07B7B203BDB0047
:1003CC005A1CFB7BD018BB7BD900FA79BB7B1A4437
:1003DC00BC79FB7B2344104C000120440144087879
:1003EC000C49D2010A44134402461A70FB7B0133B8
:1003FC00FB73FB7B072BE0D9BB7B0133BB73BB7B54
:10040C00012BD7D900BF1037BD4690BC704700BF39
:10041C0000140008800000202816000890B484B056
:10042C0000AF0446084611461A462346FB80034695
:10043C00BB800B46FB701346BB700023FB73002381
:10044C00BB730023BB73B3E00023FB73A8E0B7F9C5
:10045C000620FB7B1344002BC0F29F80B7F90620CB
:10046C00FB7B13447F2B00F39880B7F90430002BEF
:10047C0000DA0733DB10BB81B7F904305A4203F0C2
:10048C00070302F0070258BF53427B81B7F90430CF
:10049C00002B07DABB89013B9BB2BB817B890833FC
:1004AC009BB27B81B7F90C20BB7B1344002B34DB54
:1004BC00B7F90C20BB7B1344072B2EDCB7F90C20AF
:1004CC00BB7B1A44B7F90610FB7B0B444149D201A4
:1004DC000A4413441B785AB2BB7BB97803FB01F175
:1004EC00FB7B0B441946BB690B441B781946B7F9C7
:1004FC000A3001FA03F35BB2134358B2B7F90C207C
:10050C00BB7B1A44B7F90610FB7B0B44C0B23149D4
:10051C00D2010A44134402461A70B7F90C20BB7B73
:10052C001344B3F1FF3F38DBB7F90C20BB7B13440A
:10053C00062B32DCB7F90C20BB7B13445A1CB7F9E1
:10054C000610FB7B0B442349D2010A4413441B784D
:10055C005AB2BB7BB97803FB01F1FB7B0B44194608
:10056C00BB690B441B781946B7F90A30C3F1080371
:10057C0041FA03F35BB2134358B2B7F90C20BB7BBF
:10058C0013445A1CB7F90610FB7B0B44C0B211493B
:10059C00D2010A44134402461A70FB7B0133FB73ED
:1005AC00FA7BBB789A42FFF452AFBB7B0133BB732F
:1005BC00FB78013B002B00DA0733DB101A46BB7BC0
:1005CC009A42BFF641AF00BF00BF1037BD4690BC8A
:1005DC00704700BF8000002080B582B002AF054B91
:1005EC0000932C232C220A212C20FFF717FF00BF8D
:1005FC00BD4680BD181C000880B485B000AF034612
:10060C00FB712A23FB732C23BB7312237B73FB79A3
:10061C00002B15D1FB7B284A9361FA7BBB7BD31A49
:10062C00254A9360FA7BBB7B1344234A93627B7B02
:10063C00214AD3617B7B204AD3607B7B1E4AD362E9
:10064C00FB79022B17D1FA7BBB7B13441A4A9361BB
:10065C00FB7B194A9360FA7BBB7B1A44BB7B13442C
:10066C00154A93627B7B144AD3617B7B124AD3601D
:10067C007B7B114AD362FB79042B17D1FA7BBB7BB2
:10068C00D31A0D4A9361FA7BBB7BD21ABB7BD31A6C
:10069C00094A9360FB7B084A93627B7B064AD361D1
:1006AC007B7B054AD3607B7B034AD36200BF143744
:1006BC00BD4680BC704700BF2000002080B500AF55
:1006CC00054B00225A70FFF7B7FD034B5B781846B9
:1006DC00FFF792FF00BF80BD1C00002080B500AF6B
:1006EC00154B1B68144A43F001031360124B5A68F4
:1006FC001149124B13404B600F4B1B680E4A23F0F1
:10070C00847323F4803313600B4B1B680A4A23F465
:10071C0080231360084B5B68074A23F4FE03536085
:10072C00054B4FF41F029A6000F00CF8044B4FF08D
:10073C0000629A6000BF80BD001002400000FFF80C
:10074C0000ED00E080B500AF00F002F800BF80BD06
:10075C0080B483B000AF00237B6000233B603A4B36
:10076C001B68394A43F480331360374B1B6803F41E
:10077C0000333B607B6801337B603B68002B03D10B
:10078C007B68B3F5A06FF0D12F4B1B6803F40033DB
:10079C00002B02D001233B6001E000233B603B684F
:1007AC00012B4BD1294B1B68284A43F010031360D3
:1007BC00264B1B68254A23F003031360234B1B684D
:1007CC00224A43F0020313601F4B1F4A5B685360BD
:1007DC001D4B1D4A5B6853601B4B5B681A4A43F404
:1007EC0080635360184B5B68174A23F47C13536087
:1007FC00154B5B68144A43F4E8135360124B1B68A7
:10080C00114A43F08073136000BF0F4B1B6803F059
:10081C000073002BF9D00C4B5B680B4A23F00303DD
:10082C005360094B5B68084A43F00203536000BFF6
:10083C00054B5B6803F00C03082BF9D100BF0C3798
:10084C00BD4680BC704700BF001002400020024033
:10085C00FFF744FF0B480C490C4A002302E0D45824
:10086C00C4500433C4188C42F9D3094A094C0023F0
:10087C0001E013600432A242FBD300F08BFDFFF7C2
:10088C005FFC70470000002000000020281D0008BD
:10089C00000000208C040020FEE7000080B483B030
:1008AC0000AF78600D497A681346DB001344DB0017
:1008BC004B600A4B00229A60084B05221A6000BF5D
:1008CC00064B1B6803F48033002BF9D0034B042236
:1008DC001A6000BF0C37BD4680BC704710E000E0CA
:1008EC0080B582B000AF786003E04FF47A70FFF708
:1008FC00D5FF7B685A1E7A60002BF6D100BF00BF73
:10090C000837BD4680BD80B500AF00F08DF800F013
:10091C00FBF800F05BF800BF80BD000080B58CB028
:10092C0000AF0121012000F0D9FB144800F068F958
:10093C00134B7B60134BBB601023FB604FF4806345
:10094C003B6100237B618023BB610023FB6100239F
:10095C003B6220237B624FF48053BB620023FB621B
:10096C003B1D1946054800F007FA0121034800F029
:10097C0041FA00BF3037BD4680BD00BF3000024099
:10098C000C3001408000002080B500AF4FF4001007
:10099C0000F04CFA0346002B12D04FF4001000F07C
:1009AC006DFA0A20FFF77AFF0121064800F058FB88
:1009BC000121044800F073FB0021034800F01AFAEF
:1009CC0000BF80BD005400406C00024080B586B072
:1009DC0000AF01214FF4804000F0BCFB114800F047
:1009EC0013FC0023BB804FF48273FB8000233B81FC
:1009FC0000237B810023BB814FF40073FB813023E8
:100A0C003B8200237B820723BB823B1D1946054892
:100A1C0000F034FC0121034800F073FC00BF1837D0
:100A2C00BD4680BD0038004080B500AF01210420D8
:100A3C0000F072FB0121092000F06EFB2D4B1822F7
:100A4C00DA702C4B03229A702A4BA0221A802A4B64
:100A5C001022DA70284B03229A70274B50221A80EE
:100A6C002449264800F024FA2349244800F020FAAF
:100A7C00234B4822DA70224B03229A70204B4FF4FE
:100A8C00E0621A801E491D4800F012FA1C4B20220D
:100A9C001A801B491B4800F00BFA164B1822DA700F
:100AAC00144B03229A70134B4FF420421A80144BB0
:100ABC004822DA70124B03229A70114B4FF4804289
:100ACC001A800D4B1022DA700B4B03229A700A4BD2
:100ADC004FF480521A8008490A4800F0E9F9054998
:100AEC00084800F0E5F90649064800F0E1F900BFB6
:100AFC0080BD00BF80040020840400200008014059
:100B0C0088040020000C014080B586B000AF0121A4
:100B1C004FF4805000F000FB154800F075FB4FF4CB
:100B2C004043BB804FF48273FB8000233B81002346
:100B3C007B810023BB814FF40073FB8100233B823C
:100B4C0000237B820723BB823B1D1946084800F01B
:100B5C0095FB074B02229A800121054800F0D1FB3E
:100B6C006420FFF7BDFE00BF1837BD4680BD00BF37
:100B7C000030014080B584B000AF0346FB71002308
:100B8C00FB734021124800F05DFA05E0FB7B01335A
:100B9C00FB73FB7BC82B16D802210E4800F0DEFB42
:100BAC000346002BF2D06420FFF79AFEFB799BB230
:100BBC001946084800F0C4FB0023FB73402104488D
:100BCC0000F032FA00E000BF1037BD4680BD00BF18
:100BDC00000801400030014080B500AF10210248F0
:100BEC0000F030FA00BF80BD0008014080B500AFB6
:100BFC001021024800F018FA00BF80BD0008014027
:100C0C0080B483B000AF78607B681A684FF6FE73CF
:100C1C0013407A6813607B6800221A607B6800229C
:100C2C005A607B6800229A607B680022DA607B68DD
:100C3C00434A934206D1434B5B68424A43F00F034D
:100C4C00536077E07B68404A934206D13D4B5B682A
:100C5C003C4A43F0F00353606CE07B683B4A9342A0
:100C6C0006D1384B5B68374A43F47063536061E0DC
:100C7C007B68374A934206D1324B5B68314A43F466
:100C8C007043536056E07B68324A934206D12D4B39
:100C9C005B682C4A43F4702353604BE07B682E4A0C
:100CAC00934206D1274B5B68264A43F4700353608A
:100CBC0040E07B68294A934206D1224B5B68214A6B
:100CCC0043F07063536035E07B68254A934206D14C
:100CDC00244B5B68234A43F00F0353602AE07B6884
:100CEC00214A934206D11F4B5B681E4A43F0F00326
:100CFC0053601FE07B681D4A934206D1194B5B6819
:100D0C00184A43F47063536014E07B68184A9342AA
:100D1C0006D1144B5B68134A43F47043536009E0EB
:100D2C007B68144A934205D10E4B5B680D4A43F421
:100D3C007023536000BF0C37BD4680BC704700BFAA
:100D4C0008000240000002401C000240300002403B
:100D5C0044000240580002406C00024080000240F7
:100D6C0008040240000402401C040240300402400B
:100D7C00440402405804024080B485B000AF78604F
:100D8C0039600023FB607B681B68FB60FB6823F405
:100D9C00FF4323F07003FB603B689A683B681B6A57
:100DAC001A433B681B691A433B685B691A433B68EF
:100DBC009B691A433B68DB691A433B685B6A1A43BD
:100DCC003B689B6A1343FA681343FB607B68FA68C1
:100DDC001A603B68DA687B685A603B681A687B6803
:100DEC009A603B685A687B68DA6000BF1437BD466E
:100DFC0080BC704780B483B000AF78600B46FB704A
:100E0C00FB78002B06D07B681B6843F001027B68E3
:100E1C001A6006E07B681A684FF6FE7313407A6816
:100E2C00136000BF0C37BD4680BC704780B485B0E2
:100E3C0000AF78600023FB730023BB607B6803F07A
:100E4C008053002B03D00B4B1B68BB6002E00A4B9A
:100E5C001B68BB60BA687B681340002B02D001236F
:100E6C00FB7301E00023FB73FB7B18461437BD4674
:100E7C0080BC7047000402400000024080B483B084
:100E8C0000AF78607B6803F08053002B03D0064AD8
:100E9C007B68536002E0054A7B68536000BF0C37E7
:100EAC00BD4680BC704700BF0004024000000240F9
:100EBC0080B489B000AF786039600023FB610023F7
:100ECC003B610023BB610023FB6000237B6100239B
:100EDC00BB603B68DB7803F00F03FB613B68DB789E
:100EEC0003F01003002B05D03B689B781A46FB6976
:100EFC001343FB613B681B88DBB2002B44D07B683F
:100F0C001B687B610023BB6138E00122BB6902FADC
:100F1C0003F3FB603B681B881A46FB6813403B617C
:100F2C003A69FB689A4226D1BB699B00FB600F2291
:100F3C00FB6802FA03F3BB60BB68DB437A691340BE
:100F4C007B61FA69FB6802FA03F37A6913437B61EC
:100F5C003B68DB78282B05D10122BB699A407B6862
:100F6C005A6108E03B68DB78482B04D10122BB694D
:100F7C009A407B681A61BB690133BB61BB69072B63
:100F8C00C3D97B687A691A603B681B88FF2B46D9EA
:100F9C007B685B687B610023BB613AE0BB6908330B
:100FAC00012202FA03F3FB603B681B881A46FB68BC
:100FBC0013403B613A69FB689A4227D1BB699B009D
:100FCC00FB600F22FB6802FA03F3BB60BB68DB43D8
:100FDC007A6913407B61FA69FB6802FA03F37A6958
:100FEC0013437B613B68DB78282B05D1BB69083345
:100FFC0001229A407B685A613B68DB78482B05D10B
:10100C00BB69083301229A407B681A61BB690133C2
:10101C00BB61BB69072BC1D97B687A695A6000BF79
:10102C002437BD4680BC704780B483B000AF786075
:10103C000B467B807A887B681A6100BF0C37BD46F3
:10104C0080BC704780B483B000AF78600B467B8067
:10105C007A887B685A6100BF0C37BD4680BC7047EC
:10106C0080B483B000AF78600B46FB70FB78002B2C
:10107C0008D07B681B889BB243F400739AB27B68E0
:10108C001A8007E07B681B889BB223F400739AB22A
:10109C007B681A8000BF0C37BD4680BC704780B49B
:1010AC0083B000AF78600B46FB70FB78002B08D048
:1010BC007B681B889BB243F480639AB27B681A806E
:1010CC0007E07B681B889BB223F480639AB27B6831
:1010DC001A8000BF0C37BD4680BC704780B483B00B
:1010EC0000AF78600B46FB70FB78002B06D0094BE9
:1010FC005A6908497B6813434B6106E0054B5A69F2
:10110C007B68DB43034913404B6100BF0C37BD4682
:10111C0080BC70470010024080B483B000AF786090
:10112C000B46FB70FB78002B06D0094B9A690849DB
:10113C007B6813438B6106E0054B9A697B68DB4344
:10114C00034913408B6100BF0C37BD4680BC704710
:10115C000010024080B483B000AF78600B46FB7087
:10116C00FB78002B06D0094BDA6908497B681343DE
:10117C00CB6106E0054BDA697B68DB43034913401E
:10118C00CB6100BF0C37BD4680BC704700100240DD
:10119C0080B483B000AF78600B46FB70FB78002BFB
:1011AC0006D0094BDA6808497B681343CB6006E02C
:1011BC00054BDA687B68DB4303491340CB6000BF07
:1011CC000C37BD4680BC70470010024080B483B021
:1011DC0000AF78600B46FB70FB78002B06D0094BF8
:1011EC001A6908497B6813430B6106E0054B1A69C1
:1011FC007B68DB43034913400B6100BF0C37BD46D2
:10120C0080BC70470010024080B582B000AF78609F
:10121C007B68174A93420AD101214FF48050FFF7A3
:10122C00B7FF00214FF48050FFF7B2FF1CE07B6842
:10123C00104A93420AD101214FF48040FFF7C6FFB8
:10124C0000214FF48040FFF7C1FF0DE07B680A4A94
:10125C00934209D101214FF40040FFF7B7FF002161
:10126C004FF40040FFF7B2FF00BF0837BD4680BD0A
:10127C000030014000380040003C004080B485B094
:10128C0000AF786039600023FB817B681B88FB8191
:10129C00FB8903F44153FB813B681A883B685B88EC
:1012AC0013439AB23B689B8813439AB23B68DB8822
:1012BC0013439AB23B681B8913439AB23B685B8910
:1012CC0013439AB23B689B8913439AB23B68DB8900
:1012DC0013439AB2FB891343FB817B68FA891A800A
:1012EC007B689B8B9BB223F400639AB27B689A83D6
:1012FC003B681A8A7B681A8200BF1437BD4680BCD3
:10130C00704780B483B000AF78600B46FB70FB78FD
:10131C00002B08D07B681B889BB243F040039AB229
:10132C007B681A8007E07B681B889BB223F0400324
:10133C009AB27B681A8000BF0C37BD4680BC7047E0
:10134C0080B483B000AF78600B467B807B687A8872
:10135C009A8100BF0C37BD4680BC704780B485B005
:10136C0000AF78600B467B800023FB737B681B8986
:10137C009AB27B8813409BB2002B02D00123FB73E3
:10138C0001E00023FB73FB7B18461437BD4680BC81
:10139C007047000070B500260C4D0D4C641BA4105A
:1013AC00A64209D100F01AF800260A4D0A4C641B1B
:1013BC00A410A64205D170BD55F8043B98470136E0
:1013CC00EEE755F8043B98470136F2E7201D00087C
:1013DC00201D0008201D0008241D0008F8B500BFC2
:1013EC00F8BC08BC9E467047F8B500BFF8BC08BCFA
:0413FC009E46704752
:101400000000000000000000002F000000000700A6
:10141000070000147F147F1400242A7F2A12006220
:1014200064081323003649552250000005030000CC
:1014300000001C224100000041221C000014083E54
:1014400008140008083E0808000000A0600000081A
:10145000080808080000606000000020100804026E
:10146000003E5149453E0000427F4000004261512C
:101470004946002141454B31001814127F100027C6
:1014800045454539003C4A49493000017109050389
:1014900000364949493600064949291E00003636BA
:1014A000000000005636000000081422410000141D
:1014B00014141414000041221408000201510906FA
:1014C00000324959513E007C1211127C007F49497B
:1014D0004936003E41414122007F4141221C007FAC
:1014E00049494941007F09090901003E4149497ABA
:1014F000007F0808087F0000417F41000020404134
:101500003F01007F08142241007F40404040007F9F
:10151000020C027F007F0408107F003E4141413EE3
:10152000007F09090906003E4151215E007F09192B
:1015300029460046494949310001017F0101003F28
:101540004040403F001F2040201F003F4038403FA8
:10155000006314081463000708700807006151490C
:10156000454300007F41410000552A552A5500009F
:1015700041417F000004020102040040404040401D
:10158000000001020400002054545478007F4844B5
:10159000443800384444442000384444487F0038EC
:1015A0005454541800087E0901020018A4A4A47C15
:1015B000007F080404780000447D400000408084DF
:1015C0007D00007F102844000000417F4000007C27
:1015D00004180478007C0804047800384444443833
:1015E00000FC242424180018242418FC007C08047F
:1015F000040800485454542000043F444020003C58
:101600004040207C001C2040201C003C4030403CDE
:10161000004428102844001CA0A0A07C004464546E
:101620004C441414141414140000000000000000B2
:101630000000000000000000000000F800000000B2
:10164000000000333000000000100C06100C0600F3
:10165000000000000000000040C07840C07840005A
:10166000043F04043F040400007088FC08300000BC
:10167000001820FF211E0000F008F000E018000014
:1016800000211C031E211E0000F0088870000000CD
:101690001E2123241927211010160E00000000001F
:1016A0000000000000000000000000E0180402003C
:1016B000000000071820400000020418E0000000AD
:1016C0000040201807000000404080F080404000AB
:1016D0000202010F01020200000000F00000000001
:1016E0000101011F010101000000000000000000D5
:1016F00080B070000000000000000000000000004A
:1017000000010101010101010000000000000000D2
:10171000003030000000000000000000806018046D
:10172000006018060100000000E010080810E0004A
:10173000000F102020100F00001010F80000000013
:101740000020203F2020000000700808088870005A
:1017500000302824222130000030088888483000DA
:101760000018202020110E000000C02010F80000FA
:1017700000070424243F240000F808888808080093
:101780000019212020110E0000E0108888180000A8
:10179000000F112020110E0000380808C83808007A
:1017A0000000003F000000000070880808887000FA
:1017B000001C222121221C0000E010080810E0007B
:1017C0000000312222110F00000000C0C000000004
:1017D0000000003030000000000000800000000029
:1017E0000000806000000000000080402010080021
:1017F00000010204081020004040404040404000EA
:1018000004040404040404000008102040800000C4
:101810000020100804020100007048080808F000C9
:101820000000003036010000C030C828E810E00099
:101830000718272423140B000000C038E000000024
:10184000203C23020227382008F88888887000008E
:10185000203F202020110E00C03008080808380062
:10186000071820202010080008F808080810E000D9
:10187000203F202020100F0008F88888E80810007A
:10188000203F20202320180008F88888E80810004E
:10189000203F200003000000C03008080838000086
:1018A00007182020221E020008F808000008F80887
:1018B000203F210101213F20000808F8080800000E
:1018C0000020203F2020000000000808F808080041
:1018D000C08080807F00000008F888C028180800B9
:1018E000203F20012638200008F8080000000000F2
:1018F000203F20202020300008F8F800F8F80800E9
:10190000203F003F003F200008F830C00008F808E2
:10191000203F200007183F00E01008080810E000F2
:101920000F10202020100F0008F808080808F00009
:10193000203F210101010000E01008080810E0002C
:101940000F18242438504F0008F8888888887000C1
:10195000203F2000030C3020007088080808380061
:101960000038202121221C00180808F80808180057
:101970000000203F2000000008F808000008F808D8
:10198000001F202020201F000878880000C8380889
:10199000000007380E010000F80800F80008F80001
:1019A000033C0700073C030008186880806818089B
:1019B00020302C03032C30200838C800C838080019
:1019C0000000203F2000000010080808C838080068
:1019D0002038262120201800000000FE020202000C
:1019E0000000007F40404000000C30C000000000BC
:1019F000000000010638C00000020202FE000000E4
:101A0000004040407F000000000004020202040089
:101A100000000000000000000000000000000000C6
:101A200080808080808080800002020400000000AE
:101A300000000000000000000000808080800000A6
:101A40000019242222223F2008F800808000000094
:101A5000003F112020110E00000000808080000057
:101A6000000E112020201100000000808088F80066
:101A7000000E112020103F20000080808080000098
:101A8000001F222222221300008080F088888818FC
:101A90000020203F20200000000080808080800007
:101AA000006B94949493600008F80080808000009C
:101AB000203F210000203F20008098980000000077
:101AC0000020203F202000000000008098980000A7
:101AD00000C08080807F000008F8000080808000C7
:101AE000203F24022D302000000808F800000000EC
:101AF0000020203F202000008080808080808000A7
:101B0000203F20003F20003F808000808080000038
:101B1000203F210000203F200000808080800000C6
:101B2000001F202020201F008080008080000000F7
:101B300080FFA12020110E00000000808080800026
:101B4000000E112020A0FF80808080008080800017
:101B500020203F2120000100000080808080800044
:101B60000033242424241900008080E080800000B9
:101B70000000001F20200000808000000080800006
:101B8000001F202020103F20808080000080808067
:101B900000010E30080601008080008000808080F7
:101BA0000F300C030C300F0000808000808080001C
:101BB0000020312E0E312000808080000080808047
:101BC00080818E70180601000080808080808000F7
:101BD0000021302C2221300000000000807C020215
:101BE00000000000003F404000000000FF00000037
:101BF00000000000FF0000000002027C80000000E6
:101C00000040403F00000000000601010202040401
:101C100000000000000000000000000080C0E0E0C4
:101C2000F0F0F0F0F0F0F0F0F0F0F0F0F0F0F0F0B4
:101C3000E00000000000000080C0E0E0E0C08000A4
:101C40000000000000000000FFFFFFFFFFFFFF0794
:101C500007070707070707070707070383C0E0F021
:101C6000F8FCFEFFFF7F3F1F0F070300000000008E
:101C700000000000FFFFFFFFFFFFFF00000000006B
:101C800080C0E0F0F8FCFEFFFF7F3F1F0F0703015D
:101C900000E0F8F8F8F8F8F000000000000000009C
:101CA000FFFFFFFFFFFFFF000000000F1F1F1F1FB0
:101CB0000F070301000000000000000000FFFFFF0D
:101CC000FFFFFFFF00000000000000001F3F7F7FBC
:101CD000FFFFFFFEFEFEFEFEFEFEFEFEFEFEFEFE21
:101CE000FEFEFEFEFEFEFEFEFEFFFFFF7F7F3F1FAD
:101CF00000000000000000000000000000000000E4
:101D000000000000000000000000000000000000D3
:101D100000000000000000000000000000000000C3
:041D20003101000885
:041D24000D010008A5
:040000050800085D8A
:00000001FF
