:020000040800F2
:1000000000500020A10B0008110800081D0800087E
:1000100023080008290800082F0800080000000035
:10002000000000000000000000000000350800088B
:1000300041080008000000004D08000859080008A9
:10004000E90B0008E90B0008E90B0008E90B0008C0
:10005000E90B0008E90B0008E90B0008E90B0008B0
:10006000E90B0008E90B0008E90B0008E90B0008A0
:10007000E90B0008E90B0008E90B0008E90B000890
:10008000D50C0008E90B0008E90B0008E90B000893
:10009000E90B0008E90B0008E90B0008E90B000870
:1000A000E90B0008E90B0008E90B0008E90B000860
:1000B000E90B0008E90B0008E90B0008E90B000850
:1000C000E90B0008E90B0008E90B0008E90B000840
:1000D000E90B0008E90B0008E90B0008E90B000830
:1000E000E90B0008E90B0008E90B0008000000001C
:1000F0000000000000000000000000000000000000
:0C01000000000000000000005FF808F1A3
:1001100010B5054C237833B9044B13B10448AFF341
:1001200000800123237010BD0000002000000000AB
:100130000016000808B5034B1BB103490348AFF391
:10014000008008BD00000000040000200016000828
:1001500070B54FF0FF0C4CF4E06C1CEA11541DBF5D
:100160001CEA135594EA0C0F95EA0C0F00F0DEF828
:100170002C4481EA030621EA4C5123EA4C5350EA0D
:10018000013518BF52EA033541F4801143F480135E
:1001900038D0A0FB02CE4FF00005E1FB02E506F0EF
:1001A0000042E0FB03E54FF00006E1FB03569CF044
:1001B000000F18BF4EF0010EA4F1FF04B6F5007F4A
:1001C00064F5407404D25FEA4E0E6D4146EB0606BC
:1001D00042EAC62141EA55514FEAC52040EA5E5045
:1001E0004FEACE2EB4F1FD0C88BFBCF5E06F1ED8EF
:1001F000BEF1004F08BF5FEA500E50F1000041EB26
:10020000045170BD06F0004646EA010140EA0200D2
:1002100081EA0301B4EB5C04C2BFD4EB0C0541EAF4
:10022000045170BD41F480114FF0000E013C00F309
:10023000AB8014F1360FDEBF002001F0004170BD2D
:10024000C4F10004203C35DA0C341BDC04F1140446
:10025000C4F1200500FA05F320FA04F001FA05F2D2
:1002600040EA020001F0004221F0004110EBD3709F
:1002700021FA04F642EB06015EEA430E08BF20EACB
:10028000D37070BDC4F10C04C4F1200500FA04F36E
:1002900020FA05F001FA04F240EA020001F0004100
:1002A00010EBD37041F100015EEA430E08BF20EA73
:1002B000D37070BDC4F1200500FA05F24EEA020EBB
:1002C00020FA04F301FA05F243EA020321FA04F0EA
:1002D00001F0004121FA04F220EA020000EBD370A1
:1002E0005EEA430E08BF20EAD37070BD94F0000FA1
:1002F0000FD101F00046400041EB010111F4801FD5
:1003000008BF013CF7D041EA060195F0000F18BF85
:10031000704703F00046520043EB030313F4801FC1
:1003200008BF013DF7D043EA0603704794EA0C0F7B
:100330000CEA135518BF95EA0C0F0CD050EA410691
:1003400018BF52EA4306D1D181EA030101F000410E
:100350004FF0000070BD50EA410606BF1046194636
:1003600052EA430619D094EA0C0F02D150EA013642
:1003700013D195EA0C0F05D152EA03361CBF104683
:1003800019460AD181EA030101F0004141F0FE4122
:1003900041F470014FF0000070BD41F0FE4141F4A6
:1003A000780170BD81F0004102E000BF83F000439E
:1003B00030B54FEA41044FEA430594EA050F08BF00
:1003C00090EA020F1FBF54EA000C55EA020C7FEAC4
:1003D000645C7FEA655C00F0E2804FEA5454D4EB41
:1003E0005555B8BF6D420CDD2C4480EA020281EA0B
:1003F000030382EA000083EA010180EA020281EA43
:100400000303362D88BF30BD11F0004F4FEA013194
:100410004FF4801C4CEA113102D0404261EB4101A3
:1004200013F0004F4FEA03334CEA133302D0524229
:1004300063EB430394EA050F00F0A780A4F10104E5
:10044000D5F1200E0DDB02FA0EFC22FA05F280181F
:1004500041F1000103FA0EF2801843FA05F3594105
:100460000EE0A5F120050EF1200E012A03FA0EFC84
:1004700028BF4CF0020C43FA05F3C01851EBE371AE
:1004800001F0004507D54FF0000EDCF1000C7EEBCB
:1004900000006EEB0101B1F5801F1BD3B1F5001F09
:1004A0000CD349085FEA30004FEA3C0C04F1010428
:1004B0004FEA445212F5800F80F09A80BCF1004F51
:1004C00008BF5FEA500C50F1000041EB045141EAD3
:1004D000050130BD5FEA4C0C404141EB0101013C9C
:1004E00028BFB1F5801FE9D291F0000F04BF01468B
:1004F0000020B1FA81F308BF2033A3F10B03B3F15D
:1005000020020CDA0C3208DD02F1140CC2F10C02EC
:1005100001FA0CF021FA02F10CE002F11402D8BF4A
:10052000C2F1200C01FA02F120FA0CFCDCBF41EA16
:100530000C019040E41AA2BF01EB0451294330BDE5
:100540006FEA04041F3C1CDA0C340EDC04F11404C2
:10055000C4F1200220FA04F001FA02F340EA030099
:1005600021FA04F345EA030130BDC4F10C04C4F1DF
:10057000200220FA02F001FA04F340EA03002946BF
:1005800030BD21FA04F0294630BD94F0000F83F409
:10059000801306BF81F480110134013D4EE77FEAEC
:1005A000645C18BF7FEA655C29D094EA050F08BF38
:1005B00090EA020F05D054EA000C04BF1946104619
:1005C00030BD91EA030F1EBF0021002030BD5FEA5D
:1005D000545C05D14000494128BF41F0004130BD85
:1005E00014F580043CBF01F5801130BD01F00045D9
:1005F00045F0FE4141F470014FF0000030BD7FEA4C
:10060000645C1ABF194610467FEA655C1CBF0B4646
:10061000024650EA013406BF52EA033591EA030F5D
:1006200041F4002130BD00BF90F0000F04BF002155
:10063000704730B54FF4806404F132044FF0000588
:100640004FF0000150E700BF90F0000F04BF002101
:10065000704730B54FF4806404F1320410F0004567
:1006600048BF40424FF000013EE700BF42004FEA62
:10067000E2014FEA31014FEA02701FBF12F07F43DF
:1006800093F07F4F81F06051704732F07F4208BF96
:10069000704793F07F4F04BF41F40021704730B59D
:1006A0004FF4607401F0004521F000411CE700BFE9
:1006B00050EA010208BF704730B54FF000050AE06C
:1006C00050EA010208BF704730B511F0004502D56D
:1006D000404261EB41014FF4806404F132045FEA6F
:1006E000915C3FF4D8AE4FF003025FEADC0C18BF18
:1006F00003325FEADC0C18BF033202EBDC02C2F10A
:10070000200300FA03FC20FA02F001FA03FE40EA9B
:100710000E0021FA02F11444BDE600BF4A0011D2D6
:1007200012F5001211D20DD56FF47873B3EB62524B
:100730000ED44FEAC12343F0004343EA505323FA57
:1007400002F070474FF00000704750EA013002D1CC
:100750004FF0FF3070474FF000007047000000007E
:10076000B0B582B000AF00F076FA00F0E9F80023EF
:10077000FB713223BB7100F075F8FB79002B08D1B7
:10078000FB790A21184600F093F8FB790133FB71DD
:1007900031E0FB79013B1846FFF756FF18A3D3E978
:1007A0000023FFF7D5FC02460B4614461D46BB79D5
:1007B0001846FFF749FF14A3D3E90023FFF7C8FC4D
:1007C00002460B4620462946FFF7F2FD02460B463D
:1007D00010461946FFF7A2FF0346FB71FB790A2179
:1007E000184600F065F8782000F022FAFB79322BE9
:1007F00001D90023FB7100F0F3F8BCE7AFF30080F0
:100800009A9999999999E93F9A9999999999C93F8A
:1008100080B400AF00BFBD4680BC704780B400AF5D
:10082000FEE780B400AFFEE780B400AFFEE780B41F
:1008300000AFFEE780B400AF00BFBD4680BC70478C
:1008400080B400AF00BFBD4680BC704780B400AF2D
:1008500000BFBD4680BC704780B400AF00BFBD463E
:1008600080BC704780B483B000AF0023BB7113E03D
:100870000023FB710AE0BA79FB790C49D2010A44E2
:10088000134400221A70FB790133FB71FB79802B32
:10089000F1D9BB790133BB71BB79072BE8D900BF14
:1008A00000BF0C37BD4680BC704700BF1C00002055
:1008B00080B485B000AF03460A46FB711346BB7196
:1008C000FA79BB7913447B73FB79FB732BE0FB7BD9
:1008D000DB083B73FB7B03F00703FB720023BB7356
:1008E0001AE03A7BBB7B1549D2010A4413441B78BA
:1008F0005AB2FB7A012101FA03F35BB2534059B2B9
:100900003A7BBB7BC8B20D49D2010A44134402466C
:100910001A70BB7B0133BB7397F90E30002BE0DA02
:10092000FB7B0133FB73FA7B7B7B9A42CFD300BF07
:1009300000BF1437BD4680BC704700BF1C000020BC
:1009400080B500AF0A2000F073F900F075FA0A20B4
:1009500000F06EF900F07AFAAE2000F03BFAD520F4
:1009600000F038FA802000F035FA812000F032FAE9
:100970007F2000F02FFA8D2000F02CFA142000F0D8
:1009800029FA202000F026FA002000F023FA212086
:1009900000F020FA002000F01DFA7F2000F01AFA83
:1009A000222000F017FA002000F014FA072000F0CF
:1009B00011FAC92000F00EFAA12000F00BFAA420D1
:1009C00000F008FAA62000F005FAAF2000F002FAC5
:1009D000562000F0FFF900F047F900BF80BD00008D
:1009E00080B483B000AF0023BB7113E00023FB7120
:1009F0000AE0BA79FB790C49D2010A441344002277
:100A00001A70FB790133FB71FB79802BF1D9BB792B
:100A10000133BB71BB79072BE8D900BF00BF0C378E
:100A2000BD4680BC704700BF1C00002080B500AFF1
:100A3000154B1B68144A43F001031360124B5A68AC
:100A40001149124B13404B600F4B1B680E4A23F0A9
:100A5000847323F4803313600B4B1B680A4A23F41E
:100A600080231360084B5B68074A23F4FE0353603E
:100A7000054B4FF41F029A6000F00CF8044B4FF046
:100A800000629A6000BF80BD001002400000FFF8C5
:100A900000ED00E080B500AF00F002F800BF80BDBF
:100AA00080B483B000AF00237B6000233B603A4BEF
:100AB0001B68394A43F480331360374B1B6803F4D7
:100AC00000333B607B6801337B603B68002B03D1C4
:100AD0007B68B3F5A06FF0D12F4B1B6803F4003394
:100AE000002B02D001233B6001E000233B603B6808
:100AF000012B4BD1294B1B68284A43F0100313608C
:100B0000264B1B68254A23F003031360234B1B6805
:100B1000224A43F0020313601F4B1F4A5B68536075
:100B20001D4B1D4A5B6853601B4B5B681A4A43F4BC
:100B300080635360184B5B68174A23F47C1353603F
:100B4000154B5B68144A43F4E8135360124B1B685F
:100B5000114A43F08073136000BF0F4B1B6803F012
:100B60000073002BF9D00C4B5B680B4A23F0030396
:100B70005360094B5B68084A43F00203536000BFAF
:100B8000054B5B6803F00C03082BF9D100BF0C3751
:100B9000BD4680BC704700BF0010024000200240EC
:100BA000FFF744FF0B480C490C4A002302E0D458DD
:100BB000C4500433C4188C42F9D3094A094C0023A9
:100BC00001E013600432A242FBD300F0F5FCFFF712
:100BD000C7FD70470000002000000020201600081C
:100BE0000000002024040020FEE7000080B483B051
:100BF00000AF78600D497A681346DB001344DB00D0
:100C00004B600A4B00229A60084B05221A6000BF15
:100C1000064B1B6803F48033002BF9D0034B0422EE
:100C20001A6000BF0C37BD4680BC704710E000E082
:100C300080B582B000AF786003E04FF47A70FFF7C0
:100C4000D5FF7B685A1E7A60002BF6D100BF00BF2B
:100C50000837BD4680BD80B500AF00F05DF800F0FC
:100C600087F800BF80BD000080B58CB000AF0121C7
:100C7000012000F063FB144800F0F2F8134B7B6096
:100C8000134BBB601023FB604FF480633B61002378
:100C90007B618023BB610023FB6100233B62202337
:100CA0007B624FF48053BB620023FB623B1D1946FD
:100CB000054800F091F90121034800F0CBF900BF8D
:100CC0003037BD4680BD00BF300002400C300140CF
:100CD0001C00002080B500AF4FF4001000F0D6F9E2
:100CE0000346002B12D04FF4001000F0F7F90A2051
:100CF000FFF77CFF0121064800F0E2FA01210448D9
:100D000000F0FDFA0021034800F0A4F900BF80BD07
:100D1000005400406C00024080B500AF0121042067
:100D200000F02AFB0121092000F026FB0D4B1822C0
:100D3000DA700C4B03229A700A4BA0221A800A4BDD
:100D40001022DA70084B03229A70074B50221A8047
:100D50000449064800F0DCF90349044800F0D8F9DA
:100D600000BF80BD1C0400202004002000080140BA
:100D700080B586B000AF01214FF4805000F0FCFA3E
:100D8000134800F053FB4FF44043BB804FF4827391
:100D9000FB8000233B8100237B810023BB814FF438
:100DA0000073FB8138233B8200237B820723BB82B5
:100DB0003B1D1946064800F073FB054B02229A8042
:100DC0000121034800F0AFFB00BF1837BD4680BDCE
:100DD0000030014080B584B000AF0346FB710023B2
:100DE000FB734021124800F05DFA05E0FB7B013304
:100DF000FB73FB7BC82B16D802210E4800F0C0FB0A
:100E00000346002BF2D06420FFF712FFFB799BB260
:100E10001946084800F0A6FB0023FB734021044854
:100E200000F032FA00E000BF1037BD4680BD00BFC1
:100E3000000801400030014080B500AF1021024899
:100E400000F030FA00BF80BD0008014080B500AF5F
:100E50001021024800F018FA00BF80BD00080140D0
:100E600080B483B000AF78607B681A684FF6FE7379
:100E700013407A6813607B6800221A607B68002246
:100E80005A607B6800229A607B680022DA607B6887
:100E9000434A934206D1434B5B68424A43F00F03F7
:100EA000536077E07B68404A934206D13D4B5B68D4
:100EB0003C4A43F0F00353606CE07B683B4A93424A
:100EC00006D1384B5B68374A43F47063536061E086
:100ED0007B68374A934206D1324B5B68314A43F410
:100EE0007043536056E07B68324A934206D12D4BE3
:100EF0005B682C4A43F4702353604BE07B682E4AB6
:100F0000934206D1274B5B68264A43F47003536033
:100F100040E07B68294A934206D1224B5B68214A14
:100F200043F07063536035E07B68254A934206D1F5
:100F3000244B5B68234A43F00F0353602AE07B682D
:100F4000214A934206D11F4B5B681E4A43F0F003CF
:100F500053601FE07B681D4A934206D1194B5B68C2
:100F6000184A43F47063536014E07B68184A934254
:100F700006D1144B5B68134A43F47043536009E095
:100F80007B68144A934205D10E4B5B680D4A43F4CB
:100F90007023536000BF0C37BD4680BC704700BF54
:100FA00008000240000002401C00024030000240E5
:100FB00044000240580002406C00024080000240A1
:100FC00008040240000402401C04024030040240B5
:100FD000440402405804024080B485B000AF7860F9
:100FE00039600023FB607B681B68FB60FB6823F4AF
:100FF000FF4323F07003FB603B689A683B681B6A01
:101000001A433B681B691A433B685B691A433B6898
:101010009B691A433B68DB691A433B685B6A1A4366
:101020003B689B6A1343FA681343FB607B68FA686A
:101030001A603B68DA687B685A603B681A687B68AC
:101040009A603B685A687B68DA6000BF1437BD4617
:1010500080BC704780B483B000AF78600B46FB70F3
:10106000FB78002B06D07B681B6843F001027B688D
:101070001A6006E07B681A684FF6FE7313407A68C0
:10108000136000BF0C37BD4680BC704780B485B08C
:1010900000AF78600023FB730023BB607B6803F024
:1010A0008053002B03D00B4B1B68BB6002E00A4B44
:1010B0001B68BB60BA687B681340002B02D0012319
:1010C000FB7301E00023FB73FB7B18461437BD461E
:1010D00080BC7047000402400000024080B483B02E
:1010E00000AF78607B6803F08053002B03D0064A82
:1010F0007B68536002E0054A7B68536000BF0C3791
:10110000BD4680BC704700BF0004024000000240A2
:1011100080B489B000AF786039600023FB610023A0
:101120003B610023BB610023FB6000237B61002344
:10113000BB603B68DB7803F00F03FB613B68DB7847
:1011400003F01003002B05D03B689B781A46FB691F
:101150001343FB613B681B88DBB2002B44D07B68E8
:101160001B687B610023BB6138E00122BB6902FA86
:1011700003F3FB603B681B881A46FB6813403B6126
:101180003A69FB689A4226D1BB699B00FB600F223B
:10119000FB6802FA03F3BB60BB68DB437A69134068
:1011A0007B61FA69FB6802FA03F37A6913437B6196
:1011B0003B68DB78282B05D10122BB699A407B680C
:1011C0005A6108E03B68DB78482B04D10122BB69F7
:1011D0009A407B681A61BB690133BB61BB69072B0D
:1011E000C3D97B687A691A603B681B88FF2B46D994
:1011F0007B685B687B610023BB613AE0BB690833B5
:10120000012202FA03F3FB603B681B881A46FB6865
:1012100013403B613A69FB689A4227D1BB699B0046
:10122000FB600F22FB6802FA03F3BB60BB68DB4381
:101230007A6913407B61FA69FB6802FA03F37A6901
:1012400013437B613B68DB78282B05D1BB690833EE
:1012500001229A407B685A613B68DB78482B05D1B4
:10126000BB69083301229A407B681A61BB6901336C
:10127000BB61BB69072BC1D97B687A695A6000BF23
:101280002437BD4680BC704780B483B000AF78601F
:101290000B467B807A887B681A6100BF0C37BD469D
:1012A00080BC704780B483B000AF78600B467B8011
:1012B0007A887B685A6100BF0C37BD4680BC704796
:1012C00080B483B000AF78600B46FB70FB78002BD6
:1012D00008D07B681B889BB243F400739AB27B688A
:1012E0001A8007E07B681B889BB223F400739AB2D4
:1012F0007B681A8000BF0C37BD4680BC704780B445
:1013000083B000AF78600B46FB70FB78002B08D0F1
:101310007B681B889BB243F480639AB27B681A8017
:1013200007E07B681B889BB223F480639AB27B68DA
:101330001A8000BF0C37BD4680BC704780B483B0B4
:1013400000AF78600B46FB70FB78002B06D0094B92
:101350005A6908497B6813434B6106E0054B5A699B
:101360007B68DB43034913404B6100BF0C37BD462C
:1013700080BC70470010024080B483B000AF78603A
:101380000B46FB70FB78002B06D0094B9A69084985
:101390007B6813438B6106E0054B9A697B68DB43EE
:1013A000034913408B6100BF0C37BD4680BC7047BA
:1013B0000010024080B483B000AF78600B46FB7031
:1013C000FB78002B06D0094BDA6808497B68134389
:1013D000CB6006E0054BDA687B68DB4303491340CA
:1013E000CB6000BF0C37BD4680BC70470010024088
:1013F00080B483B000AF78600B46FB70FB78002BA5
:1014000006D0094B1A6908497B6813430B6106E053
:10141000054B1A697B68DB43034913400B6100BF2E
:101420000C37BD4680BC70470010024080B582B0CA
:1014300000AF78607B68174A93420AD101214FF4CC
:101440008050FFF7B7FF00214FF48050FFF7B2FF45
:101450001CE07B68104A93420AD101214FF480407E
:10146000FFF7C6FF00214FF48040FFF7C1FF0DE0FA
:101470007B680A4A934209D101214FF40040FFF7EB
:10148000B7FF00214FF40040FFF7B2FF00BF08375D
:10149000BD4680BD0030014000380040003C0040A7
:1014A00080B485B000AF786039600023FB817B6831
:1014B0001B88FB81FB8903F44153FB813B681A883D
:1014C0003B685B8813439AB23B689B8813439AB28C
:1014D0003B68DB8813439AB23B681B8913439AB27B
:1014E0003B685B8913439AB23B689B8913439AB26A
:1014F0003B68DB8913439AB2FB891343FB817B680A
:10150000FA891A807B689B8B9BB223F400639AB2A2
:101510007B689A833B681A8A7B681A8200BF1437FB
:10152000BD4680BC704780B483B000AF78600B4686
:10153000FB70FB78002B08D07B681B889BB243F0C4
:1015400040039AB27B681A8007E07B681B889BB2D5
:1015500023F040039AB27B681A8000BF0C37BD4667
:1015600080BC704780B483B000AF78600B467B804E
:101570007B687A889A8100BF0C37BD4680BC704773
:1015800080B485B000AF78600B467B800023FB738E
:101590007B681B899AB27B8813409BB2002B02D0D8
:1015A0000123FB7301E00023FB73FB7B1846143718
:1015B000BD4680BC7047000070B500260C4D0D4C38
:1015C000641BA410A64209D100F01AF800260A4DA7
:1015D0000A4C641BA410A64205D170BD55F8043B0B
:1015E00098470136EEE755F8043B98470136F2E795
:1015F0001816000818160008181600081C1600080F
:10160000F8B500BFF8BC08BC9E467047F8B500BFEF
:08161000F8BC08BC9E467047BF
:041618003501000890
:04161C0011010008B0
:0400000508000BA143
:00000001FF
