:020000040800F2
:100000000050002021030008570100086301000888
:10001000690100086F010008750100080000000078
:100020000000000000000000000000007B0100084C
:100030008701000800000000930100089F010008EC
:1000400069030008690300086903000869030008E0
:1000500069030008690300086903000869030008D0
:1000600069030008690300086903000869030008C0
:1000700069030008690300086903000869030008B0
:10008000B903000869030008690300086903000850
:100090006903000869030008690300086903000890
:1000A0006903000869030008690300086903000880
:1000B0006903000869030008690300086903000870
:1000C0006903000869030008690300086903000860
:1000D0006903000855050008690300086903000862
:1000E00069030008690300086903000800000000B4
:1000F0000000000000000000000000000000000000
:0C01000000000000000000005FF808F1A3
:10010C0010B5054C237833B9044B13B10448AFF345
:10011C0000800123237010BD14000020000000009B
:10012C00AC0E000808B5034B1BB103490348AFF3F1
:10013C00008008BD0000000018000020AC0E000874
:10014C0080B500AF00F029F9FEE780B400AF00BF26
:10015C00BD4680BC704780B400AFFEE780B400AFF2
:10016C00FEE780B400AFFEE780B400AFFEE780B4DA
:10017C0000AF00BFBD4680BC704780B400AF00BF6D
:10018C00BD4680BC704780B400AF00BFBD4680BC8C
:10019C00704780B400AF00BFBD4680BC7047000004
:1001AC0080B500AF154B1B68144A43F00103136074
:1001BC00124B5A681149124B13404B600F4B1B6882
:1001CC000E4A23F0847323F4803313600B4B1B68AB
:1001DC000A4A23F480231360084B5B68074A23F414
:1001EC00FE035360054B4FF41F029A6000F00CF8AD
:1001FC00044B4FF000629A6000BF80BD00100240BB
:10020C000000FFF800ED00E080B500AF00F002F850
:10021C0000BF80BD80B483B000AF00237B6000239F
:10022C003B603A4B1B68394A43F480331360374BBD
:10023C001B6803F400333B607B6801337B603B68D5
:10024C00002B03D17B68B3F5A06FF0D12F4B1B684B
:10025C0003F40033002B02D001233B6001E00023A8
:10026C003B603B68012B4BD1294B1B68284A43F060
:10027C0010031360264B1B68254A23F003031360FD
:10028C00234B1B68224A43F0020313601F4B1F4A87
:10029C005B6853601D4B1D4A5B6853601B4B5B686E
:1002AC001A4A43F480635360184B5B68174A23F473
:1002BC007C135360154B5B68144A43F4E81353608A
:1002CC00124B1B68114A43F08073136000BF0F4B35
:1002DC001B6803F00073002BF9D00C4B5B680B4AC6
:1002EC0023F003035360094B5B68084A43F0020395
:1002FC00536000BF054B5B6803F00C03082BF9D16E
:10030C0000BF0C37BD4680BC704700BF00100240D8
:10031C0000200240FFF744FF0B480C490C4A002315
:10032C0002E0D458C4500433C4188C42F9D3094A9F
:10033C00094C002301E013600432A242FBD300F00D
:10034C008BFDFFF7FDFE704700000020140000201D
:10035C00CC0E00081400002074000020FEE780B4CE
:10036C0000AF00BF00BFBD4680BC704780B584B0F5
:10037C0000AF78607B685B00FB6006E0FB68013BCC
:10038C00FB60FFF7ECFFFFF7EAFFFB68002BF5D1F2
:10039C0000BF00BF1037BD4680BD80B500AF00F078
:1003AC0027F800F081F800BF80BD000080B500AFD9
:1003BC004FF4001000F08AF90346002B12D04FF4D2
:1003CC00001000F0ABF90A20FFF7D0FF012106481E
:1003DC0000F07AFA0121044800F095FA0021034854
:1003EC0000F058F900BF80BD005400406C00024082
:1003FC0080B500AF012144F2040000F059FB01214B
:10040C00092000F055FB224B1822DA70204B0322F6
:10041C009A701F4B4FF420421A801E4B4822DA7000
:10042C001C4B03229A701B4B4FF480421A801A4BC0
:10043C001022DA70184B03229A70174B4FF480522B
:10044C001A801549154800F083F91149134800F03A
:10045C007FF91049114800F07BF9114B4FF40072F1
:10046C001A800F4B03229A700D4B1822DA700C492C
:10047C000C4800F06DF90A4B4FF480621A80084B5F
:10048C000422DA700649074800F062F900BF80BD0B
:10049C00300000203800002034000020000C014007
:1004AC003C0000200008014080B586B000AF4FF43E
:1004BC00E133BB600023BB810023FB8100233B8223
:1004CC000023BB820C237B8207F1080319461048DA
:1004DC0000F00CFB012240F225510D4800F0DFFB2F
:1004EC004FF4A06000F062F825233B7101237B716F
:1004FC000123BB710123FB713B1D184600F068F80A
:10050C000121034800F0ACFB00BF1837BD4680BD8D
:10051C000038014080B582B000AF0346FB71FB7917
:10052C009BB21946074800F001FC00BF802105482A
:10053C0000F01CFC0346002BF8D000BF00BF0837AE
:10054C00BD4680BD0038014080B582B000AF40F29E
:10055C002551134800F025FC0346002B1BD01048F6
:10056C0000F0F5FB0346FB710E4B1B7819460E4A47
:10057C00FB7953540B4B1B780133DAB2094B1A70CD
:10058C00084B1B78312B02D1064B00221A70FB79D9
:10059C001846FFF7BFFF00BF0837BD4680BD00BF40
:1005AC0000380140720000204000002080B483B06D
:1005BC0000AF7860054A7B6843F0BF6343F40033B7
:1005CC00D36000BF0C37BD4680BC704700ED00E027
:1005DC0080B487B000AF786000237B6100233B615F
:1005EC000F23FB607B68DB78002B3AD0274BDB6852
:1005FC00DB431B0A03F007037B617B69C3F1040334
:10060C003B61FA687B6922FA03F3FB607B685B78D9
:10061C001A463B6902FA03F37B617B689B781A46A6
:10062C00FB6813407A6913437B617B691B017B6117
:10063C00174A7B681B787969C9B213440A4683F858
:10064C0000237B681B7803F01F0311497A6812782A
:10065C005209D2B21046012202FA03F341F82030BB
:10066C000FE07B681B7803F01F0309497A68127846
:10067C005209D2B2104601229A4000F1200341F8EF
:10068C00232000BF1C37BD4680BC704700ED00E046
:10069C0000E100E080B483B000AF78600B46FB70E3
:1006AC00FB78002B06D07B681B6843F001027B684B
:1006BC001A6006E07B681A684FF6FE7313407A687E
:1006CC00136000BF0C37BD4680BC704780B485B04A
:1006DC0000AF78600023FB730023BB607B6803F0E2
:1006EC008053002B03D00B4B1B68BB6002E00A4B02
:1006FC001B68BB60BA687B681340002B02D00123D7
:10070C00FB7301E00023FB73FB7B18461437BD46DB
:10071C0080BC7047000402400000024080B483B0EB
:10072C0000AF78607B6803F08053002B03D0064A3F
:10073C007B68536002E0054A7B68536000BF0C374E
:10074C00BD4680BC704700BF000402400000024060
:10075C0080B489B000AF786039600023FB6100235E
:10076C003B610023BB610023FB6000237B61002302
:10077C00BB603B68DB7803F00F03FB613B68DB7805
:10078C0003F01003002B05D03B689B781A46FB69DD
:10079C001343FB613B681B88DBB2002B44D07B68A6
:1007AC001B687B610023BB6138E00122BB6902FA44
:1007BC0003F3FB603B681B881A46FB6813403B61E4
:1007CC003A69FB689A4226D1BB699B00FB600F22F9
:1007DC00FB6802FA03F3BB60BB68DB437A69134026
:1007EC007B61FA69FB6802FA03F37A6913437B6154
:1007FC003B68DB78282B05D10122BB699A407B68CA
:10080C005A6108E03B68DB78482B04D10122BB69B4
:10081C009A407B681A61BB690133BB61BB69072BCA
:10082C00C3D97B687A691A603B681B88FF2B46D951
:10083C007B685B687B610023BB613AE0BB69083372
:10084C00012202FA03F3FB603B681B881A46FB6823
:10085C0013403B613A69FB689A4227D1BB699B0004
:10086C00FB600F22FB6802FA03F3BB60BB68DB433F
:10087C007A6913407B61FA69FB6802FA03F37A69BF
:10088C0013437B613B68DB78282B05D1BB690833AC
:10089C0001229A407B685A613B68DB78482B05D172
:1008AC00BB69083301229A407B681A61BB6901332A
:1008BC00BB61BB69072BC1D97B687A695A6000BFE1
:1008CC002437BD4680BC704780B483B000AF7860DD
:1008DC000B46FB70FB78002B08D07B681B889BB207
:1008EC0043F400739AB27B681A8007E07B681B881C
:1008FC009BB223F400739AB27B681A8000BF0C374A
:10090C00BD4680BC704780B483B000AF78600B46A6
:10091C00FB70FB78002B08D07B681B889BB243F4E0
:10092C0080639AB27B681A8007E07B681B889BB255
:10093C0023F480639AB27B681A8000BF0C37BD46E3
:10094C0080BC704780B487B000AF786000237B61B7
:10095C0000233B610023FB600023BB604F4B5B68B3
:10096C0003F00C037B617B69082B11D07B69082B8E
:10097C003AD87B69002B03D07B69042B04D033E07D
:10098C007B68474A1A6033E07B68454A1A602FE05F
:10099C00424B5B6803F470133B61404B5B6803F4A0
:1009AC008033FB603B699B0C02333B61FB68002B83
:1009BC0006D13B693B4A03FB02F27B681A6017E0E5
:1009CC00364B5B6803F40033002B06D03B69354A89
:1009DC0003FB02F27B681A600AE03B69304A03FBB6
:1009EC0002F27B681A6003E07B682D4A1A6000BF34
:1009FC002A4B5B6803F0F0037B617B691B097B610D
:100A0C00294A7B6913441B78DBB2BB607B681A688C
:100A1C00BB68DA407B685A60204B5B6803F4E06388
:100A2C007B617B691B0A7B611F4A7B6913441B78C2
:100A3C00DBB2BB607B685A68BB68DA407B689A6043
:100A4C00164B5B6803F460537B617B69DB0A7B614B
:100A5C00154A7B6913441B78DBB2BB607B685A6810
:100A6C00BB68DA407B68DA600C4B5B6803F440438C
:100A7C007B617B699B0B7B610C4A7B6913441B7804
:100A8C00DBB2BB607B68DA68BB68B2FBF3F27B68F5
:100A9C001A6100BF1C37BD4680BC70470010024075
:100AAC0000127A0000093D00000000201000002018
:100ABC0080B483B000AF78600B46FB70FB78002BE2
:100ACC0006D0094B9A6908497B6813438B6106E091
:100ADC00054B9A697B68DB43034913408B6100BF6C
:100AEC000C37BD4680BC70470010024080B58CB0FE
:100AFC0000AF786039600023FB620023BB620023E7
:100B0C007B6200233B620023FB617B68FB617B689B
:100B1C001B8A9BB2FB62FA6A4CF6FF731340FB62B2
:100B2C003B68DB881A46FB6A1343FB62FB6A9AB28A
:100B3C007B681A827B689B899BB2FB62FA6A4EF6D1
:100B4C00F3131340FB623B689A883B681B89134381
:100B5C009AB23B685B8913439BB21A46FB6A1343F8
:100B6C00FB62FB6A9AB27B689A817B689B8A9BB218
:100B7C00FB62FA6A4FF6FF431340FB623B689B89AA
:100B8C001A46FB6A1343FB62FB6A9AB27B689A8231
:100B9C0007F108031846FFF7D5FEFB692E4A93426E
:100BAC0002D17B69BB6201E03B69BB627B689B89BC
:100BBC009BB21BB2002B0CDABA6A13469B0013448F
:100BCC009A001A443B681B685B00B2FBF3F37B6230
:100BDC000BE0BA6A13469B0013449A001A443B6814
:100BEC001B689B00B2FBF3F37B627B6A1B4AA2FB84
:100BFC0003235B091B01FB62FB6A1B09642202FBDA
:100C0C0003F37A6AD31A3B627B689B899BB21BB253
:100C1C00002B0CDA3B6ADB003233104AA2FB0323B5
:100C2C005B0903F00703FA6A1343FB620BE03B6AB0
:100C3C001B013233094AA2FB03235B0903F00F03A8
:100C4C00FA6A1343FB62FB6A9AB27B681A8100BF93
:100C5C003037BD4680BD00BF003801401F85EB51C9
:100C6C0080B483B000AF78600B46FB70FB78002B30
:100C7C0008D07B689B899BB243F400539AB27B6883
:100C8C009A8107E07B689B899BB223F400539AB24C
:100C9C007B689A8100BF0C37BD4680BC704780B41E
:100CAC0087B000AF78600B467B8013467B700023C7
:100CBC003B610023FB600023BB6000237B617B68EE
:100CCC007B617B88DBB25B09DBB23B617B8803F029
:100CDC001F03FB600122FB6802FA03F3BB603B6954
:100CEC00012B03D17B690C337B6109E03B69022B3F
:100CFC0003D17B6910337B6102E07B6914337B6128
:100D0C007B78002B06D07B6919687B69BA680A432B
:100D1C001A6006E07B691968BB68DA437B690A4094
:100D2C001A6000BF1C37BD4680BC704780B483B0CE
:100D3C0000AF78600B467B807B88C3F308039AB2C4
:100D4C007B689A8000BF0C37BD4680BC704780B46E
:100D5C0083B000AF78607B689B889BB2C3F30803B9
:100D6C009BB218460C37BD4680BC704780B485B02A
:100D7C0000AF78600B467B800023FB737B681B887D
:100D8C009AB27B8813409BB2002B02D00123FB73D9
:100D9C0001E00023FB73FB7B18461437BD4680BC77
:100DAC00704780B487B000AF78600B467B8000231F
:100DBC00FB6000237B610023BB600023FB747B88FA
:100DCC00DBB25B09DBB2BB607B8803F01F037B618A
:100DDC0001227B6902FA03F37B61BB68012B07D10B
:100DEC007B689B899BB21A467B6913407B6111E03F
:100DFC00BB68022B07D17B681B8A9BB21A467B69A6
:100E0C0013407B6106E07B689B8A9BB21A467B6928
:100E1C0013407B617B881B0A9BB2FB600122FB6841
:100E2C0002FA03F3FB607B681B889BB21A46FB68D3
:100E3C001340FB607B69002B05D0FB68002B02D0B4
:100E4C000123FB7401E00023FB74FB7C18461C3768
:100E5C00BD4680BC7047000070B500260C4D0D4C93
:100E6C00641BA410A64209D100F01AF800260A4D02
:100E7C000A4C641BA410A64205D170BD55F8043B66
:100E8C0098470136EEE755F8043B98470136F2E7F0
:100E9C00C40E0008C40E0008C40E0008C80E0008DA
:100EAC00F8B500BFF8BC08BC9E467047F8B500BF4B
:080EBC00F8BC08BC9E4670471B
:040EC40031010008F0
:040EC8000D01000810
:100ECC0000000000010203040102030406070809E4
:040EDC0002040608FE
:0400000508000321CB
:00000001FF
