:020000040800F2
:10000000005000205D090008910100089D010008D2
:10001000A3010008A9010008AF01000800000000CA
:10002000000000000000000000000000B501000812
:10003000C101000800000000CD010008D90100083E
:10004000A5090008A5090008A5090008A5090008D8
:10005000A5090008A5090008A5090008A5090008C8
:10006000A5090008A5090008A5090008A5090008B8
:10007000A5090008A5090008A5090008A5090008A8
:10008000950A0008A5090008A5090008A5090008A7
:10009000A5090008A5090008A5090008A509000888
:1000A000A5090008A5090008A5090008A509000878
:1000B000A5090008A5090008A5090008A509000868
:1000C000A5090008A5090008A5090008A509000858
:1000D000A5090008A5090008A5090008A509000848
:1000E000A5090008A5090008A509000800000000EE
:1000F0000000000000000000000000000000000000
:0C01000000000000000000005FF808F1A3
:10010C0010B5054C237833B9044B13B10448AFF345
:10011C0000800123237010BD0000002000000000AF
:10012C007815000808B5034B1BB103490348AFF31E
:10013C00008008BD000000000400002078150008B5
:10014C0080B5C0B000AF00F05EFC00F06BF800F0C2
:10015C0049FA0B4BC7F8FC30002000F0D7FA07F136
:10016C00FC0304221946002000F090FA3B46FA22C8
:10017C001946002000F046FA00F08CF9ECE700BFBD
:10018C000607080580B400AF00BFBD4680BC7047B1
:10019C0080B400AFFEE780B400AFFEE780B400AFE0
:1001AC00FEE780B400AFFEE780B400AF00BFBD46F1
:1001BC0080BC704780B400AF00BFBD4680BC7047A8
:1001CC0080B400AF00BFBD4680BC704780B400AFA8
:1001DC0000BFBD4680BC704780B483B000AF002325
:1001EC00BB7113E00023FB710AE0BA79FB790C496F
:1001FC00D2010A44134400221A70FB790133FB71BB
:10020C00FB79802BF1D9BB790133BB71BB79072BFF
:10021C00E8D900BF00BF0C37BD4680BC704700BF9B
:10022C008000002080B500AF4FF47A7000F0D8FB4E
:10023C0000F08EFD642000F0D3FB00F093FDAE20A7
:10024C0000F054FDD52000F051FDF02000F04EFDE3
:10025C00D92000F04BFD112000F048FD812000F06A
:10026C0045FD7F2000F042FD8D2000F03FFD142065
:10027C0000F03CFD202000F039FD002000F036FDA0
:10028C00212000F033FD002000F030FD7F2000F035
:10029C002DFD222000F02AFD002000F027FD072074
:1002AC0000F024FDC92000F021FDA12000F01EFD6E
:1002BC00A42000F01BFDA62000F018FDAF2000F0DC
:1002CC0015FD562000F012FD642000F089FB00F0B3
:1002DC00A5FB00BF80BD000090B484B000AF044605
:1002EC00084611461A462346FB800346BB800B4644
:1002FC00FB701346BB700023FB730023BB730023FE
:10030C00BB73B3E00023FB73A8E0B7F90620FB7BBB
:10031C001344002BC0F29F80B7F90620FB7B1344DB
:10032C007F2B00F39880B7F90430002B00DA0733E9
:10033C00DB10BB81B7F904305A4203F0070302F01B
:10034C00070258BF53427B81B7F90430002B07DA00
:10035C00BB89013B9BB2BB817B8908339BB27B8100
:10036C00B7F90C20BB7B1344002B34DBB7F90C2002
:10037C00BB7B1344072B2EDCB7F90C20BB7B1A4438
:10038C00B7F90610FB7B0B444149D2010A441344D4
:10039C001B785AB2BB7BB97803FB01F1FB7B0B4496
:1003AC001946BB690B441B781946B7F90A3001FA98
:1003BC0003F35BB2134358B2B7F90C20BB7B1A445E
:1003CC00B7F90610FB7B0B44C0B23149D2010A4489
:1003DC00134402461A70B7F90C20BB7B1344B3F1DB
:1003EC00FF3F38DBB7F90C20BB7B1344062B32DC08
:1003FC00B7F90C20BB7B13445A1CB7F90610FB7BD6
:10040C000B442349D2010A4413441B785AB2BB7BD8
:10041C00B97803FB01F1FB7B0B441946BB690B4418
:10042C001B781946B7F90A30C3F1080341FA03F3F4
:10043C005BB2134358B2B7F90C20BB7B13445A1C64
:10044C00B7F90610FB7B0B44C0B21149D2010A4428
:10045C00134402461A70FB7B0133FB73FA7BBB78A7
:10046C009A42FFF452AFBB7B0133BB73FB78013B69
:10047C00002B00DA0733DB101A46BB7B9A42BFF61F
:10048C0041AF00BF00BF1037BD4690BC704700BFE6
:10049C008000002080B582B002AF054B00932C2366
:1004AC002C220A212C20FFF717FF00BFBD4680BD70
:1004BC009015000880B485B000AF0346FB712A2369
:1004CC00FB732C23BB7312237B7307233B73FB79C6
:1004DC0003F00103DBB2002B52D1FB79042B36D095
:1004EC00042B70DC002B02D0022B17D06BE0FB7BB3
:1004FC003B4A9361FA7BBB7BD31A394A9360FA7BF4
:10050C00BB7B1344364A93627B7B354AD3617B7B3E
:10051C00334AD3607B7B324AD3625BE0FA7BBB7B92
:10052C0013442F4A9361FB7B2D4A9360FA7BBB7B70
:10053C001A44BB7B13442A4A93627B7B284AD361BF
:10054C007B7B274AD3607B7B254AD36242E0FA7BD4
:10055C00BB7BD31A224A9361FA7BBB7BD21ABB7B3F
:10056C00D31A1F4A9360FB7B1D4A93627B7B1C4A08
:10057C00D3617B7B1A4AD3607B7B194AD36229E017
:10058C00FB79052B21D0052B21DC012B02D0032B71
:10059C001FD01CE0FA7BBB7B1344114A9361FA7B9E
:1005AC00BB7BD21ABB7BD31A0D4A9360FA7BBB7B05
:1005BC001A44BB7B13440A4A93627A7B3B7B1344F9
:1005CC00074AD36106E000BF04E000BF02E000BFB1
:1005DC0000E000BF00BF1437BD4680BC704700BFB1
:1005EC002000002080B500AF054B00225A70FFF7A9
:1005FC00F3FD034B5B781846FFF75CFF00BF80BD33
:10060C001C00002080B586B000AFF860B9601346BE
:10061C00FB80FB88002B33D04FF480511A4800F03C
:10062C00CDFD032000F080FAFB681B0CDBB21846F2
:10063C0000F07AFAFB681B0ADBB2184600F074FA79
:10064C00FB68DBB2184600F06FFA0023FB750CE078
:10065C00FF2000F069FA03461A46BB681A70BB68A3
:10066C000133BB60FB7D0133FB75FB7D9BB2FA88CC
:10067C009A42EDD84FF48051034800F091FD00E010
:10068C0000BF1837BD4680BD000C014080B584B05A
:10069C0000AFF860B9601346FB8000F06DFA4FF4C0
:1006AC008051194800F08AFD022000F03DFAFB68E9
:1006BC001B0CDBB2184600F037FAFB681B0ADBB2E6
:1006CC00184600F031FAFB68DBB2184600F02CFA41
:1006DC0007E0BB681B78184600F026FABB680133AC
:1006EC00BB60FB88013BFB80FB88002BF1D14FF4F6
:1006FC008051054800F054FD0121052000F034F82C
:10070C0000BF1037BD4680BD000C014080B582B0E3
:10071C0000AF786000F030FA4FF48051114800F0CF
:10072C004DFD202000F000FA7B681B0CDBB2184654
:10073C0000F0FAF97B681B0ADBB2184600F0F4F9FA
:10074C007B68DBB2184600F0EFF94FF48051054896
:10075C0000F026FD0121052000F006F800BF083747
:10076C00BD4680BD000C014080B584B000AF03468F
:10077C000A46FB711346BB714FF48051164800F0CA
:10078C001DFDFB79184600F0CFF94FF47A73FB602E
:10079C00FF2000F0C9F90346FB7205E0FB68013B42
:1007AC00FB60FB68002B0BD0FF2000F0BDF903466B
:1007BC001A46BB791340DBB2BA799A42EED000E00C
:1007CC0000BF4FF48051044800F0EAFCFB7A184655
:1007DC001037BD4680BD00BF000C014080B500AF96
:1007EC00154B1B68144A43F001031360124B5A68F3
:1007FC001149124B13404B600F4B1B680E4A23F0F0
:10080C00847323F4803313600B4B1B680A4A23F464
:10081C0080231360084B5B68074A23F4FE03536084
:10082C00054B4FF41F029A6000F00CF8044B4FF08C
:10083C0000629A6000BF80BD001002400000FFF80B
:10084C0000ED00E080B500AF00F002F800BF80BD05
:10085C0080B483B000AF00237B6000233B603A4B35
:10086C001B68394A43F480331360374B1B6803F41D
:10087C0000333B607B6801337B603B68002B03D10A
:10088C007B68B3F5A06FF0D12F4B1B6803F40033DA
:10089C00002B02D001233B6001E000233B603B684E
:1008AC00012B4BD1294B1B68284A43F010031360D2
:1008BC00264B1B68254A23F003031360234B1B684C
:1008CC00224A43F0020313601F4B1F4A5B685360BC
:1008DC001D4B1D4A5B6853601B4B5B681A4A43F403
:1008EC0080635360184B5B68174A23F47C13536086
:1008FC00154B5B68144A43F4E8135360124B1B68A6
:10090C00114A43F08073136000BF0F4B1B6803F058
:10091C000073002BF9D00C4B5B680B4A23F00303DC
:10092C005360094B5B68084A43F00203536000BFF5
:10093C00054B5B6803F00C03082BF9D100BF0C3797
:10094C00BD4680BC704700BF001002400020024032
:10095C00FFF744FF0B480C490C4A002302E0D45823
:10096C00C4500433C4188C42F9D3094A094C0023EF
:10097C0001E013600432A242FBD300F0D3FDFFF779
:10098C00DFFB70470000002000000020A0160008CC
:10099C00000000208C040020FEE7000080B483B02F
:1009AC0000AF78600D497A681346DB001344DB0016
:1009BC004B600A4B00229A60084B05221A6000BF5C
:1009CC00064B1B6803F48033002BF9D0034B042235
:1009DC001A6000BF0C37BD4680BC704710E000E0C9
:1009EC0080B582B000AF786003E04FF47A70FFF707
:1009FC00D5FF7B685A1E7A60002BF6D100BF00BF72
:100A0C000837BD4680BD80B500AF00F0C9F800F0D6
:100A1C0037F900F05BF800BF80BD000080B58CB0EA
:100A2C0000AF0121012000F015FC144800F0A4F9DE
:100A3C00134B7B60134BBB601023FB604FF4806344
:100A4C003B6100237B618023BB610023FB6100239E
:100A5C003B6220237B624FF48053BB620023FB621A
:100A6C003B1D1946054800F043FA0121034800F0EC
:100A7C007DFA00BF3037BD4680BD00BF300002405C
:100A8C000C3001408000002080B500AF4FF4001006
:100A9C0000F088FA0346002B12D04FF4001000F03F
:100AAC00A9FA0A20FFF77AFF0121064800F094FB0F
:100ABC000121044800F0AFFB0021034800F056FA76
:100ACC0000BF80BD005400406C00024080B586B071
:100ADC0000AF01214FF4804000F0F8FB114800F00A
:100AEC004FFC0023BB804FF48273FB8000233B81BF
:100AFC0000237B810023BB814FF40073FB813023E7
:100B0C003B8200237B820723BB823B1D1946054891
:100B1C0000F070FC0121034800F0AFFC00BF183757
:100B2C00BD4680BD0038004080B584B000AF0346A0
:100B3C00FB710023FB7300BF02210E4800F0D6FCB2
:100B4C000346012BF8D10B4BFA7992B29A8100BF74
:100B5C000121084800F0CAFC0346012BF8D10548D6
:100B6C0000F0B8FC0346FB73FB7B18461037BD4600
:100B7C0080BD00BF0038004080B500AF4FF48051FD
:100B8C00064800F01BFB0620FFF7CEFF4FF4805108
:100B9C00024800F005FB00BF80BD00BF000C014007
:100BAC0080B500AF0121042000F072FB0121092067
:100BBC0000F06EFB2D4B1822DA702C4B03229A702E
:100BCC002A4BA0221A802A4B1022DA70284B0322BF
:100BDC009A70274B50221A802449264800F024FA98
:100BEC002349244800F020FA234B4822DA70224B88
:100BFC0003229A70204B4FF4E0621A801E491D4864
:100C0C0000F012FA1C4B20221A801B491B4800F0E2
:100C1C000BFA164B1822DA70144B03229A70134BF2
:100C2C004FF420421A80144B4822DA70124B0322E4
:100C3C009A70114B4FF480421A800D4B1022DA70CF
:100C4C000B4B03229A700A4B4FF480521A800849BE
:100C5C000A4800F0E9F90549084800F0E5F90649A9
:100C6C00064800F0E1F900BF80BD00BF8004002001
:100C7C00840400200008014088040020000C01407E
:100C8C0080B586B000AF01214FF4805000F000FB1E
:100C9C00154800F075FB4FF44043BB804FF4827352
:100CAC00FB8000233B8100237B810023BB814FF41D
:100CBC000073FB8100233B8200237B820723BB82D2
:100CCC003B1D1946084800F095FB074B02229A8001
:100CDC000121054800F0D1FB6420FFF781FE00BF25
:100CEC001837BD4680BD00BF0030014080B584B0D0
:100CFC0000AF0346FB710023FB734021124800F048
:100D0C005DFA05E0FB7B0133FB73FB7BC82B16D82C
:100D1C0002210E4800F0EAFB0346002BF2D06420BF
:100D2C00FFF75EFEFB799BB21946084800F0C4FB46
:100D3C000023FB734021044800F032FA00E000BFAE
:100D4C001037BD4680BD00BF000801400030014097
:100D5C0080B500AF1021024800F030FA00BF80BD12
:100D6C000008014080B500AF1021024800F018FACD
:100D7C0000BF80BD0008014080B483B000AF786034
:100D8C007B681A684FF6FE7313407A6813607B68B1
:100D9C0000221A607B6800225A607B6800229A60ED
:100DAC007B680022DA607B68434A934206D1434B4E
:100DBC005B68424A43F00F03536077E07B68404A1C
:100DCC00934206D13D4B5B683C4A43F0F0035360C1
:100DDC006CE07B683B4A934206D1384B5B68374AE0
:100DEC0043F47063536061E07B68374A934206D1E9
:100DFC00324B5B68314A43F47043536056E07B6876
:100E0C00324A934206D12D4B5B682C4A43F4702333
:100E1C0053604BE07B682E4A934206D1274B5B68AC
:100E2C00264A43F47003536040E07B68294A93429E
:100E3C0006D1224B5B68214A43F07063536035E066
:100E4C007B68254A934206D1244B5B68234A43F0C6
:100E5C000F0353602AE07B68214A934206D11F4B53
:100E6C005B681E4A43F0F00353601FE07B681D4A29
:100E7C00934206D1194B5B68184A43F47063536074
:100E8C0014E07B68184A934206D1144B5B68134AF2
:100E9C0043F47043536009E07B68144A934205D1D4
:100EAC000E4B5B680D4A43F47023536000BF0C3744
:100EBC00BD4680BC704700BF0800024000000240E5
:100ECC001C00024030000240440002405800024026
:100EDC006C00024080000240080402400004024002
:100EEC001C040240300402404404024058040240F6
:100EFC0080B485B000AF786039600023FB607B68FC
:100F0C001B68FB60FB6823F4FF4323F07003FB605A
:100F1C003B689A683B681B6A1A433B681B691A4317
:100F2C003B685B691A433B689B691A433B68DB6906
:100F3C001A433B685B6A1A433B689B6A1343FA6823
:100F4C001343FB607B68FA681A603B68DA687B685D
:100F5C005A603B681A687B689A603B685A687B6881
:100F6C00DA6000BF1437BD4680BC704780B483B0D4
:100F7C0000AF78600B46FB70FB78002B06D07B68CB
:100F8C001B6843F001027B681A6006E07B681A68F4
:100F9C004FF6FE7313407A68136000BF0C37BD46E2
:100FAC0080BC704780B485B000AF78600023FB73C1
:100FBC000023BB607B6803F08053002B03D00B4BEA
:100FCC001B68BB6002E00A4B1B68BB60BA687B689D
:100FDC001340002B02D00123FB7301E00023FB73B1
:100FEC00FB7B18461437BD4680BC7047000402409A
:100FFC000000024080B483B000AF78607B6803F0DF
:10100C008053002B03D0064A7B68536002E0054AEC
:10101C007B68536000BF0C37BD4680BC704700BF77
:10102C00000402400000024080B489B000AF786038
:10103C0039600023FB6100233B610023BB6100236B
:10104C00FB6000237B610023BB603B68DB7803F013
:10105C000F03FB613B68DB7803F01003002B05D01A
:10106C003B689B781A46FB691343FB613B681B8802
:10107C00DBB2002B44D07B681B687B610023BB6117
:10108C0038E00122BB6902FA03F3FB603B681B8862
:10109C001A46FB6813403B613A69FB689A4226D1B9
:1010AC00BB699B00FB600F22FB6802FA03F3BB6079
:1010BC00BB68DB437A6913407B61FA69FB6802FA0F
:1010CC0003F37A6913437B613B68DB78282B05D1EA
:1010DC000122BB699A407B685A6108E03B68DB7867
:1010EC00482B04D10122BB699A407B681A61BB6909
:1010FC000133BB61BB69072BC3D97B687A691A6062
:10110C003B681B88FF2B46D97B685B687B6100239F
:10111C00BB613AE0BB690833012202FA03F3FB60BE
:10112C003B681B881A46FB6813403B613A69FB68B5
:10113C009A4227D1BB699B00FB600F22FB6802FA25
:10114C0003F3BB60BB68DB437A6913407B61FA69CC
:10115C00FB6802FA03F37A6913437B613B68DB7823
:10116C00282B05D1BB69083301229A407B685A6150
:10117C003B68DB78482B05D1BB69083301229A40C8
:10118C007B681A61BB690133BB61BB69072BC1D991
:10119C007B687A695A6000BF2437BD4680BC7047B3
:1011AC0080B483B000AF78600B467B807A887B6814
:1011BC001A6100BF0C37BD4680BC704780B483B049
:1011CC0000AF78600B467B807A887B685A6100BFE1
:1011DC000C37BD4680BC704780B483B000AF7860DC
:1011EC000B46FB70FB78002B08D07B681B889BB2EE
:1011FC0043F400739AB27B681A8007E07B681B8803
:10120C009BB223F400739AB27B681A8000BF0C3730
:10121C00BD4680BC704780B483B000AF78600B468D
:10122C00FB70FB78002B08D07B681B889BB243F4C7
:10123C0080639AB27B681A8007E07B681B889BB23C
:10124C0023F480639AB27B681A8000BF0C37BD46CA
:10125C0080BC704780B483B000AF78600B46FB70E5
:10126C00FB78002B06D0094B5A6908497B6813435D
:10127C004B6106E0054B5A697B68DB43034913401D
:10128C004B6100BF0C37BD4680BC7047001002405C
:10129C0080B483B000AF78600B46FB70FB78002BFA
:1012AC0006D0094B9A6908497B6813438B6106E0A9
:1012BC00054B9A697B68DB43034913408B6100BF84
:1012CC000C37BD4680BC70470010024080B483B020
:1012DC0000AF78600B46FB70FB78002B06D0094BF7
:1012EC00DA6908497B681343CB6106E0054BDA6980
:1012FC007B68DB4303491340CB6100BF0C37BD4611
:10130C0080BC70470010024080B483B000AF78609E
:10131C000B46FB70FB78002B06D0094BDA680849AA
:10132C007B681343CB6006E0054BDA687B68DB43D4
:10133C0003491340CB6000BF0C37BD4680BC7047DF
:10134C000010024080B483B000AF78600B46FB7095
:10135C00FB78002B06D0094B1A6908497B681343AC
:10136C000B6106E0054B1A697B68DB4303491340AC
:10137C000B6100BF0C37BD4680BC704700100240AB
:10138C0080B582B000AF78607B68174A93420AD16F
:10139C0001214FF48050FFF7B7FF00214FF480502C
:1013AC00FFF7B2FF1CE07B68104A93420AD101217F
:1013BC004FF48040FFF7C6FF00214FF48040FFF749
:1013CC00C1FF0DE07B680A4A934209D101214FF419
:1013DC000040FFF7B7FF00214FF40040FFF7B2FFCA
:1013EC0000BF0837BD4680BD0030014000380040CA
:1013FC00003C004080B485B000AF786039600023B9
:10140C00FB817B681B88FB81FB8903F44153FB81C7
:10141C003B681A883B685B8813439AB23B689B888D
:10142C0013439AB23B68DB8813439AB23B681B891F
:10143C0013439AB23B685B8913439AB23B689B890E
:10144C0013439AB23B68DB8913439AB2FB8913436B
:10145C00FB817B68FA891A807B689B8B9BB223F497
:10146C0000639AB27B689A833B681A8A7B681A82FB
:10147C0000BF1437BD4680BC704780B483B000AF4A
:10148C0078600B46FB70FB78002B08D07B681B88C0
:10149C009BB243F040039AB27B681A8007E07B68EA
:1014AC001B889BB223F040039AB27B681A8000BF62
:1014BC000C37BD4680BC704780B483B000AF7860F9
:1014CC000B467B807B687A889A8100BF0C37BD46BF
:1014DC0080BC704780B483B000AF78607B689B8918
:1014EC009BB218460C37BD4680BC704780B485B0A3
:1014FC0000AF78600B467B800023FB737B681B89F5
:10150C009AB27B8813409BB2002B02D00123FB7351
:10151C0001E00023FB73FB7B18461437BD4680BCEF
:10152C007047000070B500260C4D0D4C641BA410C8
:10153C00A64209D100F01AF800260A4D0A4C641B89
:10154C00A410A64205D170BD55F8043B984701364E
:10155C00EEE755F8043B98470136F2E79816000879
:10156C0098160008981600089C160008F8B500BFDD
:10157C00F8BC08BC9E467047F8B500BFF8BC08BC68
:04158C009E467047C0
:101590000000000080C0E0E0F0F0F0F0F0F0F0F0CB
:1015A000F0F0F0F0F0F0F0F0E000000000000000DB
:1015B00080C0E0E0E0C0800000000000000000000B
:1015C000FFFFFFFFFFFFFF070707070707070707E3
:1015D0000707070383C0E0F0F8FCFEFFFF7F3F1F13
:1015E0000F0703000000000000000000FFFFFFFFE6
:1015F000FFFFFF000000000080C0E0F0F8FCFEFFED
:10160000FF7F3F1F0F07030100E0F8F8F8F8F8F03C
:101610000000000000000000FFFFFFFFFFFFFF00D1
:101620000000000F1F1F1F1F0F0703010000000015
:101630000000000000FFFFFFFFFFFFFF00000000B1
:10164000000000001F3F7F7FFFFFFFFEFEFEFEFE4B
:10165000FEFEFEFEFEFEFEFEFEFEFEFEFEFEFEFEAA
:10166000FEFFFFFF7F7F3F1F000000000000000023
:10167000000000000000000000000000000000006A
:10168000000000000000000000000000000000005A
:08169000000000000000000052
:041698003101000814
:04169C000D01000834
:040000050800095D89
:00000001FF
