:020000040800F2
:1000000000500020E1070008B1010008BD01000810
:10001000C3010008C9010008CF010008000000006A
:10002000000000000000000000000000D5010008F2
:10003000E101000800000000ED010008F9010008DE
:1000400029080008290800082908000829080008CC
:1000500029080008290800082908000829080008BC
:1000600029080008290800082908000829080008AC
:10007000290800082908000829080008290800089C
:10008000190900082908000829080008290800089B
:10009000290800082908000829080008290800087C
:1000A000290800082908000829080008290800086C
:1000B000290800082908000829080008290800085C
:1000C000290800082908000829080008290800084C
:1000D000290800082908000829080008290800083C
:1000E0002908000829080008290800080000000065
:1000F0000000000000000000000000000000000000
:0C01000000000000000000005FF808F1A3
:10010C0010B5054C237833B9044B13B10448AFF345
:10011C0000800123237010BD0000002000000000AF
:10012C008C14000808B5034B1BB103490348AFF30B
:10013C00008008BD00000000040000208C140008A2
:10014C0080B584B000AF00F0A0FB00F055F8134A66
:10015C0007F10C031268114619800233120C1A7045
:10016C000F4A07F108031268114619800233120C6A
:10017C001A7007F1080107F10C030322184600F06E
:10018C0034FA391D07F10C030322184600F0D7F995
:10019C0000F0FCF800F0A0F9FAE700BFA414000886
:1001AC00A814000880B400AF00BFBD4680BC7047E7
:1001BC0080B400AFFEE780B400AFFEE780B400AFC0
:1001CC00FEE780B400AFFEE780B400AF00BFBD46D1
:1001DC0080BC704780B400AF00BFBD4680BC704788
:1001EC0080B400AF00BFBD4680BC704780B400AF88
:1001FC0000BFBD4680BC704780B500AF0A2000F040
:10020C0031FB00F015FD0A2000F02CFB00F01AFD6C
:10021C00AE2000F0DBFCD52000F0D8FC802000F0F4
:10022C00D5FC812000F0D2FC7F2000F0CFFC8D208B
:10023C0000F0CCFC142000F0C9FC202000F0C6FC1F
:10024C00002000F0C3FC212000F0C0FC002000F0D6
:10025C00BDFC7F2000F0BAFC222000F0B7FC00208F
:10026C0000F0B4FC072000F0B1FCC92000F0AEFC9B
:10027C00A12000F0ABFCA42000F0A8FCA62000F00C
:10028C00A5FCAF2000F0A2FC562000F09FFC00F073
:10029C0007FB00BF80BD80B400AF00BFBD4680BC73
:1002AC007047000080B582B000AF00F0FBF8034649
:1002BC00FB711A4BDB7803F00103002B08D0FB79A0
:1002CC00032B03D8FB790233FB7101E00023FB7194
:1002DC00124BDB7803F00203002B08D0FB79002BC8
:1002EC0003D0FB79023BFB7101E00423FB710B4B48
:1002FC009B7803F00403002B08D0FB7903F0010377
:10030C00DBB2002B02D1FB790133FB71FB79184670
:10031C0000F0D2F800BF0837BD4680BD2000002099
:10032C0080B400AF00BFBD4680BC704780B400AF46
:10033C0000BFBD4680BC704780B400AF00BFBD4657
:10034C0080BC704780B500AF0F4B1B78032B17D8C0
:10035C0001A252F823F000BF750300087B030008CC
:10036C008103000887030008FFF79CFF09E0FFF7F3
:10037C00D7FF06E0FFF7DAFF03E0FFF7DDFF00E051
:10038C0000BF00BF80BD00BF2400002080B582B03C
:10039C0000AF0023FB710123BB710023FB7140E014
:1003AC00FB79184600F094FB0346002B17D0FB7921
:1003BC003A4AD35C142B2ED8FB79384AD25C0132E2
:1003CC00D1B2364AD154354AD35C142B23D9344B91
:1003DC001A78BB791343DAB2314B1A701BE0FB79F4
:1003EC002E4AD35C002B16D0FB792C4AD25C013AF6
:1003FC00D1B22A4AD154294AD35C002B0BD1284BB9
:10040C001B785AB297F90630DB435BB213405BB2F0
:10041C00DAB2234B1A70BB795B00BB71FB790133E9
:10042C00FB71FB79032BBBD91D4B1A781C4B5B78EA
:10043C009A421DD01A4B1B785AB2194B5B785BB29F
:10044C00DB435BB213405BB2DAB2154B9A70144BC0
:10045C001B785BB2DB435AB2114B5B785BB2134037
:10046C005BB2DAB20E4BDA700D4B1A780C4B5A7039
:10047C000B4B9B78002B04D0FFF70DFF084B002291
:10048C009A70074BDB78002B04D0FFF75BFF044B13
:10049C000022DA7000BF0837BD4680BD1C0000206A
:1004AC002000002080B400AF024B5B781846BD469C
:1004BC0080BC70472400002080B483B000AF03469A
:1004CC00FB71044AFB79537000BF0C37BD4680BCEE
:1004DC00704700BF2400002080B400AF134B1B7882
:1004EC00032B1BD801A252F823F000BF090500080A
:1004FC002905000829050008290500080B4B5B7825
:10050C0003F00103DBB2002B0AD0084B5B785B08CD
:10051C00DBB20133DAB2054B1A7001E000BF00E028
:10052C0000BF00BFBD4680BC704700BF2400002048
:10053C0080B500AF062000F041FA00BF80BD90B539
:10054C0087B000AFF860B9601346FB71032000F070
:10055C0035FA0023FB7509E0FB7DFA6813441B7820
:10056C00184600F02BFAFB7D0133FB75FB7D022B4B
:10057C00F2D90023BB750AE0BB7DBA68D418FF2002
:10058C0000F01CFA03462370BB7D0133BB75BA7DAA
:10059C00FB799A42F0D300BF00BF1C37BD4690BD1B
:1005AC0080B584B000AF0346FB71FB79032B0CD0F4
:1005BC00032B0DDC012B02D0022B03D008E005230A
:1005CC00FB7306E03523FB7303E01523FB7300E09C
:1005DC0000BFFB7B184600F0F1F9FF2000F0EEF9AC
:1005EC00034618461037BD4680BD80B586B000AFB7
:1005FC00F860B9601346FB7100BF0120FFF7D0FF14
:10060C00034603F00103012BF7D1FFF791FF022002
:10061C0000F0D4F90023FB7509E0FB7DFA68134464
:10062C001B78184600F0CAF9FB7D0133FB75FB7D86
:10063C00022BF2D90023BB7509E0BB7DBA681344C9
:10064C001B78184600F0BAF9BB7D0133BB75BA7D37
:10065C00FB799A42F1D300BF00BF1837BD4680BD6D
:10066C0080B500AF154B1B68144A43F001031360AF
:10067C00124B5A681149124B13404B600F4B1B68BD
:10068C000E4A23F0847323F4803313600B4B1B68E6
:10069C000A4A23F480231360084B5B68074A23F44F
:1006AC00FE035360054B4FF41F029A6000F00CF8E8
:1006BC00044B4FF000629A6000BF80BD00100240F6
:1006CC000000FFF800ED00E080B500AF00F002F88C
:1006DC0000BF80BD80B483B000AF00237B600023DB
:1006EC003B603A4B1B68394A43F480331360374BF9
:1006FC001B6803F400333B607B6801337B603B6811
:10070C00002B03D17B68B3F5A06FF0D12F4B1B6886
:10071C0003F40033002B02D001233B6001E00023E3
:10072C003B603B68012B4BD1294B1B68284A43F09B
:10073C0010031360264B1B68254A23F00303136038
:10074C00234B1B68224A43F0020313601F4B1F4AC2
:10075C005B6853601D4B1D4A5B6853601B4B5B68A9
:10076C001A4A43F480635360184B5B68174A23F4AE
:10077C007C135360154B5B68144A43F4E8135360C5
:10078C00124B1B68114A43F08073136000BF0F4B70
:10079C001B6803F00073002BF9D00C4B5B680B4A01
:1007AC0023F003035360094B5B68084A43F00203D0
:1007BC00536000BF054B5B6803F00C03082BF9D1A9
:1007CC0000BF0C37BD4680BC704700BF0010024014
:1007DC0000200240FFF744FF0B480C490C4A002351
:1007EC0002E0D458C4500433C4188C42F9D3094ADB
:1007FC00094C002301E013600432A242FBD300F049
:10080C001BFEFFF79DFC704700000020000000203D
:10081C00B41400080000002034040020FEE700009F
:10082C0080B483B000AF78600D497A681346DB0062
:10083C001344DB004B600A4B00229A60084B0522E4
:10084C001A6000BF064B1B6803F48033002BF9D0F1
:10085C00034B04221A6000BF0C37BD4680BC7047A6
:10086C0010E000E080B582B000AF786003E04FF498
:10087C007A70FFF7D5FF7B685A1E7A60002BF6D191
:10088C0000BF00BF0837BD4680BD80B500AF00F08B
:10089C00BDF800F069F900F063F800BF80BD0000FE
:1008AC0080B58CB000AF0121012000F05DFC144834
:1008BC0000F0D2F9134B7B60134BBB601023FB6031
:1008CC004FF480633B6100237B618023BB61002379
:1008DC00FB6100233B6220237B624FF48053BB629D
:1008EC000023FB623B1D1946054800F071FA0121FB
:1008FC00034800F0ABFA00BF3037BD4680BD00BFE7
:10090C00300002400C3001402800002080B500AFC0
:10091C004FF4001000F0B6FA0346002B12D04FF43F
:10092C00001000F0D7FA0A20FFF77AFF01210648E1
:10093C0000F0DBFB0121044800F0F6FB002103482A
:10094C0000F084FA00BF80BD005400406C000240EF
:10095C0080B400AF00BF00BFBD4680BC7047000034
:10096C0080B586B000AF01214FF4804000F038FC18
:10097C00114800F08FFC0023BB804FF48273FB8086
:10098C0000233B8100237B810023BB814FF4007348
:10099C00FB8138233B8200237B820723BB823B1DD8
:1009AC001946054800F0B0FC0121034800F0EFFCAB
:1009BC0000BF1837BD4680BD0038004080B582B0FE
:1009CC0000AF0346FB7101E0FFF7C2FF02210E48A6
:1009DC0000F016FD0346002BF6D0FB799BB21946AE
:1009EC00094800F0F3FC00BF0121074800F008FDA6
:1009FC000346002BF8D0044800F0F6FC0346DBB2AB
:100A0C0018460837BD4680BD0038004080B500AFA1
:100A1C000121042000F0C6FB0121092000F0C2FBDB
:100A2C00264B1822DA70254B03229A70234BA022F6
:100A3C001A80234B1022DA70214B03229A70204B20
:100A4C0050221A801D491F4800F05EFA1C491D48AF
:100A5C0000F05AFA1C4B4822DA701B4B03229A7096
:100A6C00194B4FF4E0621A801749164800F04CFA03
:100A7C00154B20221A801449144800F045FA0F4BEC
:100A8C001822DA700D4B03229A700C4B4FF4304243
:100A9C001A800D4B4822DA700B4B03229A700A4BCA
:100AAC004FF480421A800549084800F02DFA064997
:100ABC00064800F029FA00BF80BD00BF28040020C2
:100ACC002C0400200008014030040020000C0140E0
:100ADC0080B582B000AF0346FB71FB79032B3AD88B
:100AEC0001A252F823F000BF050B00081D0B0008F3
:100AFC00350B00084D0B00084FF48071184800F0BE
:100B0C00BFFA0346002B0CBF01230023DBB223E00A
:100B1C004FF40071124800F0B3FA0346002B0CBFDF
:100B2C0001230023DBB217E04FF480610C4800F086
:100B3C00A7FA0346002B0CBF01230023DBB20BE00A
:100B4C002021084800F09CFA0346002B0CBF01231F
:100B5C000023DBB200E0002318460837BD4680BDF9
:100B6C0000080140000C014080B586B000AF0121A7
:100B7C004FF4805000F016FB134800F08BFB4FF441
:100B8C004043BB804FF48273FB8000233B810023E6
:100B9C007B810023BB814FF40073FB8138233B82A4
:100BAC0000237B820723BB823B1D1946064800F0BD
:100BBC00ABFB054B02229A800121034800F0E7FBB6
:100BCC0000BF1837BD4680BD0030014080B584B0F1
:100BDC0000AF0346FB710023FB734021124800F069
:100BEC0076FA05E0FB7B0133FB73FB7BC82B16D835
:100BFC0002210E4800F004FC0346002BF2D06420C6
:100C0C00FFF730FEFB799BB21946084800F0DEFB7B
:100C1C000023FB734021044800F04BFA00E000BFB6
:100C2C001037BD4680BD00BF0008014000300140B8
:100C3C0080B500AF1021024800F049FA00BF80BD1A
:100C4C000008014080B500AF1021024800F031FAD5
:100C5C0000BF80BD0008014080B483B000AF786055
:100C6C007B681A684FF6FE7313407A6813607B68D2
:100C7C0000221A607B6800225A607B6800229A600E
:100C8C007B680022DA607B68434A934206D1434B6F
:100C9C005B68424A43F00F03536077E07B68404A3D
:100CAC00934206D13D4B5B683C4A43F0F0035360E2
:100CBC006CE07B683B4A934206D1384B5B68374A01
:100CCC0043F47063536061E07B68374A934206D10A
:100CDC00324B5B68314A43F47043536056E07B6897
:100CEC00324A934206D12D4B5B682C4A43F4702355
:100CFC0053604BE07B682E4A934206D1274B5B68CE
:100D0C00264A43F47003536040E07B68294A9342BF
:100D1C0006D1224B5B68214A43F07063536035E087
:100D2C007B68254A934206D1244B5B68234A43F0E7
:100D3C000F0353602AE07B68214A934206D11F4B74
:100D4C005B681E4A43F0F00353601FE07B681D4A4A
:100D5C00934206D1194B5B68184A43F47063536095
:100D6C0014E07B68184A934206D1144B5B68134A13
:100D7C0043F47043536009E07B68144A934205D1F5
:100D8C000E4B5B680D4A43F47023536000BF0C3765
:100D9C00BD4680BC704700BF080002400000024006
:100DAC001C00024030000240440002405800024047
:100DBC006C00024080000240080402400004024023
:100DCC001C04024030040240440402405804024017
:100DDC0080B485B000AF786039600023FB607B681D
:100DEC001B68FB60FB6823F4FF4323F07003FB607C
:100DFC003B689A683B681B6A1A433B681B691A4339
:100E0C003B685B691A433B689B691A433B68DB6927
:100E1C001A433B685B6A1A433B689B6A1343FA6844
:100E2C001343FB607B68FA681A603B68DA687B687E
:100E3C005A603B681A687B689A603B685A687B68A2
:100E4C00DA6000BF1437BD4680BC704780B483B0F5
:100E5C0000AF78600B46FB70FB78002B06D07B68EC
:100E6C001B6843F001027B681A6006E07B681A6815
:100E7C004FF6FE7313407A68136000BF0C37BD4603
:100E8C0080BC704780B485B000AF78600023FB73E2
:100E9C000023BB607B6803F08053002B03D00B4B0B
:100EAC001B68BB6002E00A4B1B68BB60BA687B68BE
:100EBC001340002B02D00123FB7301E00023FB73D2
:100ECC00FB7B18461437BD4680BC704700040240BB
:100EDC000000024080B483B000AF78607B6803F000
:100EEC008053002B03D0064A7B68536002E0054A0E
:100EFC007B68536000BF0C37BD4680BC704700BF99
:100F0C00000402400000024080B489B000AF786059
:100F1C0039600023FB6100233B610023BB6100238C
:100F2C00FB6000237B610023BB603B68DB7803F034
:100F3C000F03FB613B68DB7803F01003002B05D03B
:100F4C003B689B781A46FB691343FB613B681B8823
:100F5C00DBB2002B44D07B681B687B610023BB6138
:100F6C0038E00122BB6902FA03F3FB603B681B8883
:100F7C001A46FB6813403B613A69FB689A4226D1DA
:100F8C00BB699B00FB600F22FB6802FA03F3BB609A
:100F9C00BB68DB437A6913407B61FA69FB6802FA30
:100FAC0003F37A6913437B613B68DB78282B05D10B
:100FBC000122BB699A407B685A6108E03B68DB7888
:100FCC00482B04D10122BB699A407B681A61BB692A
:100FDC000133BB61BB69072BC3D97B687A691A6083
:100FEC003B681B88FF2B46D97B685B687B610023C1
:100FFC00BB613AE0BB690833012202FA03F3FB60E0
:10100C003B681B881A46FB6813403B613A69FB68D6
:10101C009A4227D1BB699B00FB600F22FB6802FA46
:10102C0003F3BB60BB68DB437A6913407B61FA69ED
:10103C00FB6802FA03F37A6913437B613B68DB7844
:10104C00282B05D1BB69083301229A407B685A6171
:10105C003B68DB78482B05D1BB69083301229A40E9
:10106C007B681A61BB690133BB61BB69072BC1D9B2
:10107C007B687A695A6000BF2437BD4680BC7047D4
:10108C0080B485B000AF78600B467B800023FB7387
:10109C007B689A687B881340002B02D00123FB737A
:1010AC0001E00023FB73FB7B18461437BD4680BC64
:1010BC00704780B483B000AF78600B467B807A8831
:1010CC007B681A6100BF0C37BD4680BC704780B48A
:1010DC0083B000AF78600B467B807A887B685A615E
:1010EC0000BF0C37BD4680BC704780B483B000AFE6
:1010FC0078600B46FB70FB78002B08D07B681B8854
:10110C009BB243F400739AB27B681A8007E07B6849
:10111C001B889BB223F400739AB27B681A8000BFC1
:10112C000C37BD4680BC704780B483B000AF78608C
:10113C000B46FB70FB78002B08D07B681B889BB29E
:10114C0043F480639AB27B681A8007E07B681B8843
:10115C009BB223F480639AB27B681A8000BF0C3771
:10116C00BD4680BC7047000080B483B000AF78608F
:10117C000B46FB70FB78002B06D0094B5A690849CB
:10118C007B6813434B6106E0054B5A697B68DB4374
:10119C00034913404B6100BF0C37BD4680BC704700
:1011AC000010024080B483B000AF78600B46FB7037
:1011BC00FB78002B06D0094B9A6908497B681343CE
:1011CC008B6106E0054B9A697B68DB43034913404E
:1011DC008B6100BF0C37BD4680BC704700100240CD
:1011EC0080B483B000AF78600B46FB70FB78002BAB
:1011FC0006D0094BDA6908497B681343CB6106E0DA
:10120C00054BDA697B68DB4303491340CB6100BFB4
:10121C000C37BD4680BC70470010024080B483B0D0
:10122C0000AF78600B46FB70FB78002B06D0094BA7
:10123C00DA6808497B681343CB6006E0054BDA6833
:10124C007B68DB4303491340CB6000BF0C37BD46C2
:10125C0080BC70470010024080B483B000AF78604F
:10126C000B46FB70FB78002B06D0094B1A6908491A
:10127C007B6813430B6106E0054B1A697B68DB4303
:10128C00034913400B6100BF0C37BD4680BC70474F
:10129C000010024080B582B000AF78607B68174ABE
:1012AC0093420AD101214FF48050FFF7B7FF002180
:1012BC004FF48050FFF7B2FF1CE07B68104A93425A
:1012CC000AD101214FF48040FFF7C6FF00214FF4F3
:1012DC008040FFF7C1FF0DE07B680A4A934209D1B9
:1012EC0001214FF40040FFF7B7FF00214FF40040FD
:1012FC00FFF7B2FF00BF0837BD4680BD003001408C
:10130C0000380040003C004080B485B000AF7860ED
:10131C0039600023FB817B681B88FB81FB8903F40C
:10132C004153FB813B681A883B685B8813439AB234
:10133C003B689B8813439AB23B68DB8813439AB291
:10134C003B681B8913439AB23B685B8913439AB27F
:10135C003B689B8913439AB23B68DB8913439AB26F
:10136C00FB891343FB817B68FA891A807B689B8B12
:10137C009BB223F400639AB27B689A833B681A8A07
:10138C007B681A8200BF1437BD4680BC704780B49E
:10139C0083B000AF78600B46FB70FB78002B08D055
:1013AC007B681B889BB243F040039AB27B681A801F
:1013BC0007E07B681B889BB223F040039AB27B68E2
:1013CC001A8000BF0C37BD4680BC704780B483B018
:1013DC0000AF78600B467B807B687A889A8100BF6F
:1013EC000C37BD4680BC704780B483B000AF7860CA
:1013FC007B689B899BB218460C37BD4680BC7047F6
:10140C0080B485B000AF78600B467B800023FB7303
:10141C007B681B899AB27B8813409BB2002B02D04D
:10142C000123FB7301E00023FB73FB7B184614378D
:10143C00BD4680BC7047000070B500260C4D0D4CAD
:10144C00641BA410A64209D100F01AF800260A4D1C
:10145C000A4C641BA410A64205D170BD55F8043B80
:10146C0098470136EEE755F8043B98470136F2E70A
:10147C00AC140008AC140008AC140008B01400083C
:10148C00F8B500BFF8BC08BC9E467047F8B500BF65
:08149C00F8BC08BC9E46704735
:0814A40000000000010203003A
:0414AC003101000802
:0414B0000D01000822
:04000005080007E107
:00000001FF
